{
	"data": {
		"bytecode": {
			"linkReferences": {},
			"object": "6080604052348015600e575f80fd5b50335f806101000a81548173ffffffffffffffffffffffffffffffffffffffff021916908373ffffffffffffffffffffffffffffffffffffffff160217905550614fa38061005b5f395ff3fe6080604052600436106101ba575f3560e01c806374f079b8116100eb578063a5e2952f11610089578063dc8d378811610063578063dc8d3788146105ff578063e3366fed1461062c578063e68de8d314610656578063fe9f07071461067e576101c1565b8063a5e2952f14610568578063af65d82d14610595578063c30f303d146105bd576101c1565b806389308f29116100c557806389308f29146104cb5780638da5cb5b146104f8578063a2ce902714610522578063a4f85a2a1461055e576101c1565b806374f079b81461043d5780637bbda1ba146104675780637bf86e891461048f576101c1565b806337de568b11610158578063411c0c5511610132578063411c0c5514610389578063412566b5146103b157806352c44644146103ed5780636e7c4ab114610415576101c1565b806337de568b1461030757806339e23871146103495780633f64dc161461035f576101c1565b80631cec677d116101945780631cec677d1461023f5780632bc95de1146102675780632e9db8d71461028f5780632f2909f3146102cb576101c1565b80630be435bd146101c557806314dee24514610201578063155dd5ee14610217576101c1565b366101c157005b5f80fd5b3480156101d0575f80fd5b506101eb60048036038101906101e69190613bf8565b6106ba565b6040516101f89190613c3d565b60405180910390f35b34801561020c575f80fd5b506102156106d7565b005b348015610222575f80fd5b5061023d60048036038101906102389190613c89565b6107b8565b005b34801561024a575f80fd5b5061026560048036038101906102609190613cb4565b61099d565b005b348015610272575f80fd5b5061028d60048036038101906102889190613d1c565b610d28565b005b34801561029a575f80fd5b506102b560048036038101906102b09190613bf8565b6111b5565b6040516102c29190613ddc565b60405180910390f35b3480156102d6575f80fd5b506102f160048036038101906102ec9190613bf8565b6111fb565b6040516102fe9190613ddc565b60405180910390f35b348015610312575f80fd5b5061032d60048036038101906103289190613cb4565b611210565b6040516103409796959493929190613ee7565b60405180910390f35b348015610354575f80fd5b5061035d611317565b005b34801561036a575f80fd5b50610373611793565b6040516103809190614133565b60405180910390f35b348015610394575f80fd5b506103af60048036038101906103aa9190613c89565b611a7d565b005b3480156103bc575f80fd5b506103d760048036038101906103d29190613bf8565b611e50565b6040516103e491906141fb565b60405180910390f35b3480156103f8575f80fd5b50610413600480360381019061040e9190613c89565b611f18565b005b348015610420575f80fd5b5061043b60048036038101906104369190613bf8565b61236b565b005b348015610448575f80fd5b506104516127b6565b60405161045e9190613ddc565b60405180910390f35b348015610472575f80fd5b5061048d6004803603810190610488919061421b565b6127bc565b005b34801561049a575f80fd5b506104b560048036038101906104b09190613cb4565b6129fb565b6040516104c2919061426b565b60405180910390f35b3480156104d6575f80fd5b506104df612a43565b6040516104ef949392919061432c565b60405180910390f35b348015610503575f80fd5b5061050c612aea565b604051610519919061426b565b60405180910390f35b34801561052d575f80fd5b506105486004803603810190610543919061438b565b612b0d565b6040516105559190613c3d565b60405180910390f35b610566612b37565b005b348015610573575f80fd5b5061057c612ca5565b60405161058c949392919061432c565b60405180910390f35b3480156105a0575f80fd5b506105bb60048036038101906105b69190613d1c565b612d4c565b005b3480156105c8575f80fd5b506105e360048036038101906105de919061438b565b612fac565b6040516105f697969594939291906143c9565b60405180910390f35b34801561060a575f80fd5b50610613613001565b604051610623949392919061432c565b60405180910390f35b348015610637575f80fd5b506106406130a7565b60405161064d919061456a565b60405180910390f35b348015610661575f80fd5b5061067c60048036038101906106779190613c89565b613381565b005b348015610689575f80fd5b506106a4600480360381019061069f919061438b565b61357e565b6040516106b19190613ddc565b60405180910390f35b6002602052805f5260405f205f915054906101000a900460ff1681565b60025f3373ffffffffffffffffffffffffffffffffffffffff1673ffffffffffffffffffffffffffffffffffffffff1681526020019081526020015f205f9054906101000a900460ff1615610761576040517f08c379a0000000000000000000000000000000000000000000000000000000008152600401610758906145fa565b60405180910390fd5b600160025f3373ffffffffffffffffffffffffffffffffffffffff1673ffffffffffffffffffffffffffffffffffffffff1681526020019081526020015f205f6101000a81548160ff021916908315150217905550565b60025f3373ffffffffffffffffffffffffffffffffffffffff1673ffffffffffffffffffffffffffffffffffffffff1681526020019081526020015f205f9054906101000a900460ff16610841576040517f08c379a000000000000000000000000000000000000000000000000000000000815260040161083890614662565b60405180910390fd5b8060065f3373ffffffffffffffffffffffffffffffffffffffff1673ffffffffffffffffffffffffffffffffffffffff1681526020019081526020015f205410156108c1576040517f08c379a00000000000000000000000000000000000000000000000000000000081526004016108b8906146ca565b60405180910390fd5b5f8111610903576040517f08c379a00000000000000000000000000000000000000000000000000000000081526004016108fa90614732565b60405180910390fd5b8060065f3373ffffffffffffffffffffffffffffffffffffffff1673ffffffffffffffffffffffffffffffffffffffff1681526020019081526020015f205f82825461094f919061477d565b925050819055503373ffffffffffffffffffffffffffffffffffffffff166108fc8290811502906040515f60405180830381858888f19350505050158015610999573d5f803e3d5ffd5b5050565b60025f3373ffffffffffffffffffffffffffffffffffffffff1673ffffffffffffffffffffffffffffffffffffffff1681526020019081526020015f205f9054906101000a900460ff16610a26576040517f08c379a0000000000000000000000000000000000000000000000000000000008152600401610a1d90614662565b60405180910390fd5b60045f3373ffffffffffffffffffffffffffffffffffffffff1673ffffffffffffffffffffffffffffffffffffffff1681526020019081526020015f205f8373ffffffffffffffffffffffffffffffffffffffff1673ffffffffffffffffffffffffffffffffffffffff1681526020019081526020015f205f9054906101000a900460ff16610aea576040517f08c379a0000000000000000000000000000000000000000000000000000000008152600401610ae1906147fa565b60405180910390fd5b5f610af5338461357e565b905060015f815480929190610b0990614818565b91905055506040518060e0016040528060015481526020018473ffffffffffffffffffffffffffffffffffffffff1681526020018281526020018381526020015f6002811115610b5c57610b5b613e04565b5b81526020015f151581526020016040518060400160405280600f81526020017f53616c6172792074696d656c6f636b000000000000000000000000000000000081525081525060055f3373ffffffffffffffffffffffffffffffffffffffff1673ffffffffffffffffffffffffffffffffffffffff1681526020019081526020015f205f60015481526020019081526020015f205f820151815f01556020820151816001015f6101000a81548173ffffffffffffffffffffffffffffffffffffffff021916908373ffffffffffffffffffffffffffffffffffffffff16021790555060408201518160020155606082015181600301556080820151816004015f6101000a81548160ff02191690836002811115610c7c57610c7b613e04565b5b021790555060a08201518160040160016101000a81548160ff02191690831515021790555060c0820151816005019081610cb69190614a86565b509050508273ffffffffffffffffffffffffffffffffffffffff163373ffffffffffffffffffffffffffffffffffffffff167f1b1d2b58e28c6d8522850c924145f2165ecfd5d6cbc3a168321be4387e642af884600154604051610d1b929190614b55565b60405180910390a3505050565b60025f3373ffffffffffffffffffffffffffffffffffffffff1673ffffffffffffffffffffffffffffffffffffffff1681526020019081526020015f205f9054906101000a900460ff16610db1576040517f08c379a0000000000000000000000000000000000000000000000000000000008152600401610da890614662565b60405180910390fd5b5f73ffffffffffffffffffffffffffffffffffffffff168873ffffffffffffffffffffffffffffffffffffffff1614158015610e1957503373ffffffffffffffffffffffffffffffffffffffff168873ffffffffffffffffffffffffffffffffffffffff1614155b610e58576040517f08c379a0000000000000000000000000000000000000000000000000000000008152600401610e4f90614bc6565b60405180910390fd5b60045f3373ffffffffffffffffffffffffffffffffffffffff1673ffffffffffffffffffffffffffffffffffffffff1681526020019081526020015f205f8973ffffffffffffffffffffffffffffffffffffffff1673ffffffffffffffffffffffffffffffffffffffff1681526020019081526020015f205f9054906101000a900460ff1615610f1d576040517f08c379a0000000000000000000000000000000000000000000000000000000008152600401610f1490614c2e565b60405180910390fd5b6040518060e0016040528088151581526020018781526020018681526020018581526020018481526020018381526020018281525060035f3373ffffffffffffffffffffffffffffffffffffffff1673ffffffffffffffffffffffffffffffffffffffff1681526020019081526020015f205f8a73ffffffffffffffffffffffffffffffffffffffff1673ffffffffffffffffffffffffffffffffffffffff1681526020019081526020015f205f820151815f015f6101000a81548160ff0219169083151502179055506020820151816001015560408201518160020155606082015181600301556080820151816004015560a0820151816005015560c08201518160060155905050600160045f3373ffffffffffffffffffffffffffffffffffffffff1673ffffffffffffffffffffffffffffffffffffffff1681526020019081526020015f205f8a73ffffffffffffffffffffffffffffffffffffffff1673ffffffffffffffffffffffffffffffffffffffff1681526020019081526020015f205f6101000a81548160ff02191690831515021790555060075f3373ffffffffffffffffffffffffffffffffffffffff1673ffffffffffffffffffffffffffffffffffffffff1681526020019081526020015f2088908060018154018082558091505060019003905f5260205f20015f9091909190916101000a81548173ffffffffffffffffffffffffffffffffffffffff021916908373ffffffffffffffffffffffffffffffffffffffff1602179055508773ffffffffffffffffffffffffffffffffffffffff163373ffffffffffffffffffffffffffffffffffffffff167fd41127bc1ef851a201f5a1dfbd1e1c6476563f6d0379f2ad3c63598549ed420860405160405180910390a35050505050505050565b5f60065f8373ffffffffffffffffffffffffffffffffffffffff1673ffffffffffffffffffffffffffffffffffffffff1681526020019081526020015f20549050919050565b6006602052805f5260405f205f915090505481565b6005602052815f5260405f20602052805f5260405f205f9150915050805f015490806001015f9054906101000a900473ffffffffffffffffffffffffffffffffffffffff1690806002015490806003015490806004015f9054906101000a900460ff16908060040160019054906101000a900460ff1690806005018054611296906148b9565b80601f01602080910402602001604051908101604052809291908181526020018280546112c2906148b9565b801561130d5780601f106112e45761010080835404028352916020019161130d565b820191905f5260205f20905b8154815290600101906020018083116112f057829003601f168201915b5050505050905087565b60025f3373ffffffffffffffffffffffffffffffffffffffff1673ffffffffffffffffffffffffffffffffffffffff1681526020019081526020015f205f9054906101000a900460ff166113a0576040517f08c379a000000000000000000000000000000000000000000000000000000000815260040161139790614662565b60405180910390fd5b5f805f600190505b600154811161149c575f60055f3373ffffffffffffffffffffffffffffffffffffffff1673ffffffffffffffffffffffffffffffffffffffff1681526020019081526020015f205f8381526020019081526020015f2090505f600281111561141357611412613e04565b5b816004015f9054906101000a900460ff16600281111561143657611435613e04565b5b148015611447575080600301544210155b801561146257508060040160019054906101000a900460ff16155b15611488578060020154846114779190614c4c565b9350828061148490614818565b9350505b50808061149490614818565b9150506113a8565b508160065f3373ffffffffffffffffffffffffffffffffffffffff1673ffffffffffffffffffffffffffffffffffffffff1681526020019081526020015f2054101561151d576040517f08c379a0000000000000000000000000000000000000000000000000000000008152600401611514906146ca565b60405180910390fd5b5f600190505b600154811161178e575f60055f3373ffffffffffffffffffffffffffffffffffffffff1673ffffffffffffffffffffffffffffffffffffffff1681526020019081526020015f205f8381526020019081526020015f2090505f600281111561158e5761158d613e04565b5b816004015f9054906101000a900460ff1660028111156115b1576115b0613e04565b5b1480156115c2575080600301544210155b80156115dd57508060040160019054906101000a900460ff16155b1561177a57806001015f9054906101000a900473ffffffffffffffffffffffffffffffffffffffff1673ffffffffffffffffffffffffffffffffffffffff166108fc826002015490811502906040515f60405180830381858888f1935050505015801561164c573d5f803e3d5ffd5b50806002015460065f3373ffffffffffffffffffffffffffffffffffffffff1673ffffffffffffffffffffffffffffffffffffffff1681526020019081526020015f205f82825461169d919061477d565b925050819055506002816004015f6101000a81548160ff021916908360028111156116cb576116ca613e04565b5b021790555060018160040160016101000a81548160ff021916908315150217905550806001015f9054906101000a900473ffffffffffffffffffffffffffffffffffffffff1673ffffffffffffffffffffffffffffffffffffffff163373ffffffffffffffffffffffffffffffffffffffff167f97392c5d33b1386b104ad21e5f27e3aabf036b5403971bf8c046e4c94102245483600201546040516117719190613ddc565b60405180910390a35b50808061178690614818565b915050611523565b505050565b606060025f3373ffffffffffffffffffffffffffffffffffffffff1673ffffffffffffffffffffffffffffffffffffffff1681526020019081526020015f205f9054906101000a900460ff1661181e576040517f08c379a000000000000000000000000000000000000000000000000000000000815260040161181590614662565b60405180910390fd5b5f60015467ffffffffffffffff81111561183b5761183a61485f565b5b60405190808252806020026020018201604052801561187457816020015b611861613b01565b8152602001906001900390816118595790505b5090505f80600190505b6001548111611a745760055f3373ffffffffffffffffffffffffffffffffffffffff1673ffffffffffffffffffffffffffffffffffffffff1681526020019081526020015f205f8281526020019081526020015f206040518060e00160405290815f8201548152602001600182015f9054906101000a900473ffffffffffffffffffffffffffffffffffffffff1673ffffffffffffffffffffffffffffffffffffffff1673ffffffffffffffffffffffffffffffffffffffff1681526020016002820154815260200160038201548152602001600482015f9054906101000a900460ff16600281111561197457611973613e04565b5b600281111561198657611985613e04565b5b81526020016004820160019054906101000a900460ff161515151581526020016005820180546119b5906148b9565b80601f01602080910402602001604051908101604052809291908181526020018280546119e1906148b9565b8015611a2c5780601f10611a0357610100808354040283529160200191611a2c565b820191905f5260205f20905b815481529060010190602001808311611a0f57829003601f168201915b505050505081525050838381518110611a4857611a47614c7f565b5b60200260200101819052508180611a5e90614818565b9250508080611a6c90614818565b91505061187e565b50819250505090565b60025f3373ffffffffffffffffffffffffffffffffffffffff1673ffffffffffffffffffffffffffffffffffffffff1681526020019081526020015f205f9054906101000a900460ff16611b06576040517f08c379a0000000000000000000000000000000000000000000000000000000008152600401611afd90614662565b60405180910390fd5b5f60075f3373ffffffffffffffffffffffffffffffffffffffff1673ffffffffffffffffffffffffffffffffffffffff1681526020019081526020015f20805480602002602001604051908101604052809291908181526020018280548015611bc157602002820191905f5260205f20905b815f9054906101000a900473ffffffffffffffffffffffffffffffffffffffff1673ffffffffffffffffffffffffffffffffffffffff1681526020019060010190808311611b78575b505050505090505f5b8151811015611e4b575f611bf833848481518110611beb57611bea614c7f565b5b602002602001015161357e565b905060015f815480929190611c0c90614818565b91905055506040518060e001604052806001548152602001848481518110611c3757611c36614c7f565b5b602002602001015173ffffffffffffffffffffffffffffffffffffffff1681526020018281526020018581526020015f6002811115611c7957611c78613e04565b5b81526020015f15158152602001604051806060016040528060218152602001614f4d6021913981525060055f3373ffffffffffffffffffffffffffffffffffffffff1673ffffffffffffffffffffffffffffffffffffffff1681526020019081526020015f205f60015481526020019081526020015f205f820151815f01556020820151816001015f6101000a81548173ffffffffffffffffffffffffffffffffffffffff021916908373ffffffffffffffffffffffffffffffffffffffff16021790555060408201518160020155606082015181600301556080820151816004015f6101000a81548160ff02191690836002811115611d7c57611d7b613e04565b5b021790555060a08201518160040160016101000a81548160ff02191690831515021790555060c0820151816005019081611db69190614a86565b50905050828281518110611dcd57611dcc614c7f565b5b602002602001015173ffffffffffffffffffffffffffffffffffffffff163373ffffffffffffffffffffffffffffffffffffffff167f1b1d2b58e28c6d8522850c924145f2165ecfd5d6cbc3a168321be4387e642af886600154604051611e35929190614b55565b60405180910390a3508080600101915050611bca565b505050565b606060075f8373ffffffffffffffffffffffffffffffffffffffff1673ffffffffffffffffffffffffffffffffffffffff1681526020019081526020015f20805480602002602001604051908101604052809291908181526020018280548015611f0c57602002820191905f5260205f20905b815f9054906101000a900473ffffffffffffffffffffffffffffffffffffffff1673ffffffffffffffffffffffffffffffffffffffff1681526020019060010190808311611ec3575b50505050509050919050565b60025f3373ffffffffffffffffffffffffffffffffffffffff1673ffffffffffffffffffffffffffffffffffffffff1681526020019081526020015f205f9054906101000a900460ff16611fa1576040517f08c379a0000000000000000000000000000000000000000000000000000000008152600401611f9890614662565b60405180910390fd5b805f6002811115611fb557611fb4613e04565b5b60055f3373ffffffffffffffffffffffffffffffffffffffff1673ffffffffffffffffffffffffffffffffffffffff1681526020019081526020015f205f8381526020019081526020015f206004015f9054906101000a900460ff16600281111561202357612022613e04565b5b14612063576040517f08c379a000000000000000000000000000000000000000000000000000000000815260040161205a90614cf6565b60405180910390fd5b5f60055f3373ffffffffffffffffffffffffffffffffffffffff1673ffffffffffffffffffffffffffffffffffffffff1681526020019081526020015f205f8481526020019081526020015f20905080600301544210156120f9576040517f08c379a00000000000000000000000000000000000000000000000000000000081526004016120f090614d5e565b60405180910390fd5b8060040160019054906101000a900460ff161561214b576040517f08c379a000000000000000000000000000000000000000000000000000000000815260040161214290614dc6565b60405180910390fd5b806002015460065f3373ffffffffffffffffffffffffffffffffffffffff1673ffffffffffffffffffffffffffffffffffffffff1681526020019081526020015f205410156121cf576040517f08c379a00000000000000000000000000000000000000000000000000000000081526004016121c6906146ca565b60405180910390fd5b806001015f9054906101000a900473ffffffffffffffffffffffffffffffffffffffff1673ffffffffffffffffffffffffffffffffffffffff166108fc826002015490811502906040515f60405180830381858888f19350505050158015612239573d5f803e3d5ffd5b50806002015460065f3373ffffffffffffffffffffffffffffffffffffffff1673ffffffffffffffffffffffffffffffffffffffff1681526020019081526020015f205f82825461228a919061477d565b925050819055506002816004015f6101000a81548160ff021916908360028111156122b8576122b7613e04565b5b021790555060018160040160016101000a81548160ff021916908315150217905550806001015f9054906101000a900473ffffffffffffffffffffffffffffffffffffffff1673ffffffffffffffffffffffffffffffffffffffff163373ffffffffffffffffffffffffffffffffffffffff167f97392c5d33b1386b104ad21e5f27e3aabf036b5403971bf8c046e4c941022454836002015460405161235e9190613ddc565b60405180910390a3505050565b60025f3373ffffffffffffffffffffffffffffffffffffffff1673ffffffffffffffffffffffffffffffffffffffff1681526020019081526020015f205f9054906101000a900460ff166123f4576040517f08c379a00000000000000000000000000000000000000000000000000000000081526004016123eb90614662565b60405180910390fd5b60045f3373ffffffffffffffffffffffffffffffffffffffff1673ffffffffffffffffffffffffffffffffffffffff1681526020019081526020015f205f8273ffffffffffffffffffffffffffffffffffffffff1673ffffffffffffffffffffffffffffffffffffffff1681526020019081526020015f205f9054906101000a900460ff166124b8576040517f08c379a00000000000000000000000000000000000000000000000000000000081526004016124af906147fa565b60405180910390fd5b60035f3373ffffffffffffffffffffffffffffffffffffffff1673ffffffffffffffffffffffffffffffffffffffff1681526020019081526020015f205f8273ffffffffffffffffffffffffffffffffffffffff1673ffffffffffffffffffffffffffffffffffffffff1681526020019081526020015f205f8082015f6101000a81549060ff0219169055600182015f9055600282015f9055600382015f9055600482015f9055600582015f9055600682015f905550505f60045f3373ffffffffffffffffffffffffffffffffffffffff1673ffffffffffffffffffffffffffffffffffffffff1681526020019081526020015f205f8373ffffffffffffffffffffffffffffffffffffffff1673ffffffffffffffffffffffffffffffffffffffff1681526020019081526020015f205f6101000a81548160ff0219169083151502179055505f60075f3373ffffffffffffffffffffffffffffffffffffffff1673ffffffffffffffffffffffffffffffffffffffff1681526020019081526020015f2090505f5b81805490508110156127b1578273ffffffffffffffffffffffffffffffffffffffff1682828154811061267657612675614c7f565b5b905f5260205f20015f9054906101000a900473ffffffffffffffffffffffffffffffffffffffff1673ffffffffffffffffffffffffffffffffffffffff16036127a45781600183805490506126cb919061477d565b815481106126dc576126db614c7f565b5b905f5260205f20015f9054906101000a900473ffffffffffffffffffffffffffffffffffffffff1682828154811061271757612716614c7f565b5b905f5260205f20015f6101000a81548173ffffffffffffffffffffffffffffffffffffffff021916908373ffffffffffffffffffffffffffffffffffffffff1602179055508180548061276d5761276c614de4565b5b600190038181905f5260205f20015f6101000a81549073ffffffffffffffffffffffffffffffffffffffff021916905590556127b1565b8080600101915050612640565b505050565b60015481565b60025f3373ffffffffffffffffffffffffffffffffffffffff1673ffffffffffffffffffffffffffffffffffffffff1681526020019081526020015f205f9054906101000a900460ff16612845576040517f08c379a000000000000000000000000000000000000000000000000000000000815260040161283c90614662565b60405180910390fd5b825f600281111561285957612858613e04565b5b60055f3373ffffffffffffffffffffffffffffffffffffffff1673ffffffffffffffffffffffffffffffffffffffff1681526020019081526020015f205f8381526020019081526020015f206004015f9054906101000a900460ff1660028111156128c7576128c6613e04565b5b14612907576040517f08c379a00000000000000000000000000000000000000000000000000000000081526004016128fe90614cf6565b60405180910390fd5b5f60055f3373ffffffffffffffffffffffffffffffffffffffff1673ffffffffffffffffffffffffffffffffffffffff1681526020019081526020015f205f8681526020019081526020015f209050838160020181905550828160030181905550806001015f9054906101000a900473ffffffffffffffffffffffffffffffffffffffff1673ffffffffffffffffffffffffffffffffffffffff163373ffffffffffffffffffffffffffffffffffffffff167fd2659efb5686fcf002fc4f1a73fc641f617d6ee62ad6e4d3ce22c8f2a0c228b98787876040516129ec93929190614e11565b60405180910390a35050505050565b6007602052815f5260405f208181548110612a14575f80fd5b905f5260205f20015f915091509054906101000a900473ffffffffffffffffffffffffffffffffffffffff1681565b60608060608060025f3373ffffffffffffffffffffffffffffffffffffffff1673ffffffffffffffffffffffffffffffffffffffff1681526020019081526020015f205f9054906101000a900460ff16612ad2576040517f08c379a0000000000000000000000000000000000000000000000000000000008152600401612ac990614662565b60405180910390fd5b612adc600161375f565b935093509350935090919293565b5f8054906101000a900473ffffffffffffffffffffffffffffffffffffffff1681565b6004602052815f5260405f20602052805f5260405f205f915091509054906101000a900460ff1681565b60025f3373ffffffffffffffffffffffffffffffffffffffff1673ffffffffffffffffffffffffffffffffffffffff1681526020019081526020015f205f9054906101000a900460ff16612bc0576040517f08c379a0000000000000000000000000000000000000000000000000000000008152600401612bb790614662565b60405180910390fd5b5f3411612c02576040517f08c379a0000000000000000000000000000000000000000000000000000000008152600401612bf990614e90565b60405180910390fd5b3460065f3373ffffffffffffffffffffffffffffffffffffffff1673ffffffffffffffffffffffffffffffffffffffff1681526020019081526020015f205f828254612c4e9190614c4c565b925050819055503373ffffffffffffffffffffffffffffffffffffffff167f2eebd85869e78d0d80f0ccd52526291e0eef8dbab2bec717f82b6ee8d3d43f3a34604051612c9b9190613ddc565b60405180910390a2565b60608060608060025f3373ffffffffffffffffffffffffffffffffffffffff1673ffffffffffffffffffffffffffffffffffffffff1681526020019081526020015f205f9054906101000a900460ff16612d34576040517f08c379a0000000000000000000000000000000000000000000000000000000008152600401612d2b90614662565b60405180910390fd5b612d3e600261375f565b935093509350935090919293565b60025f3373ffffffffffffffffffffffffffffffffffffffff1673ffffffffffffffffffffffffffffffffffffffff1681526020019081526020015f205f9054906101000a900460ff16612dd5576040517f08c379a0000000000000000000000000000000000000000000000000000000008152600401612dcc90614662565b60405180910390fd5b60045f3373ffffffffffffffffffffffffffffffffffffffff1673ffffffffffffffffffffffffffffffffffffffff1681526020019081526020015f205f8973ffffffffffffffffffffffffffffffffffffffff1673ffffffffffffffffffffffffffffffffffffffff1681526020019081526020015f205f9054906101000a900460ff16612e99576040517f08c379a0000000000000000000000000000000000000000000000000000000008152600401612e90906147fa565b60405180910390fd5b6040518060e0016040528088151581526020018781526020018681526020018581526020018481526020018381526020018281525060035f3373ffffffffffffffffffffffffffffffffffffffff1673ffffffffffffffffffffffffffffffffffffffff1681526020019081526020015f205f8a73ffffffffffffffffffffffffffffffffffffffff1673ffffffffffffffffffffffffffffffffffffffff1681526020019081526020015f205f820151815f015f6101000a81548160ff0219169083151502179055506020820151816001015560408201518160020155606082015181600301556080820151816004015560a0820151816005015560c082015181600601559050505050505050505050565b6003602052815f5260405f20602052805f5260405f205f9150915050805f015f9054906101000a900460ff16908060010154908060020154908060030154908060040154908060050154908060060154905087565b60608060608060025f3373ffffffffffffffffffffffffffffffffffffffff1673ffffffffffffffffffffffffffffffffffffffff1681526020019081526020015f205f9054906101000a900460ff16613090576040517f08c379a000000000000000000000000000000000000000000000000000000000815260040161308790614662565b60405180910390fd5b6130995f61375f565b935093509350935090919293565b606060025f3373ffffffffffffffffffffffffffffffffffffffff1673ffffffffffffffffffffffffffffffffffffffff1681526020019081526020015f205f9054906101000a900460ff16613132576040517f08c379a000000000000000000000000000000000000000000000000000000000815260040161312990614662565b60405180910390fd5b5f60075f3373ffffffffffffffffffffffffffffffffffffffff1673ffffffffffffffffffffffffffffffffffffffff1681526020019081526020015f208054806020026020016040519081016040528092919081815260200182805480156131ed57602002820191905f5260205f20905b815f9054906101000a900473ffffffffffffffffffffffffffffffffffffffff1673ffffffffffffffffffffffffffffffffffffffff16815260200190600101908083116131a4575b505050505090505f815190505f8167ffffffffffffffff8111156132145761321361485f565b5b60405190808252806020026020018201604052801561324d57816020015b61323a613b62565b8152602001906001900390816132325790505b5090505f5b828110156133775760035f3373ffffffffffffffffffffffffffffffffffffffff1673ffffffffffffffffffffffffffffffffffffffff1681526020019081526020015f205f8583815181106132ab576132aa614c7f565b5b602002602001015173ffffffffffffffffffffffffffffffffffffffff1673ffffffffffffffffffffffffffffffffffffffff1681526020019081526020015f206040518060e00160405290815f82015f9054906101000a900460ff16151515158152602001600182015481526020016002820154815260200160038201548152602001600482015481526020016005820154815260200160068201548152505082828151811061335f5761335e614c7f565b5b60200260200101819052508080600101915050613252565b5080935050505090565b60025f3373ffffffffffffffffffffffffffffffffffffffff1673ffffffffffffffffffffffffffffffffffffffff1681526020019081526020015f205f9054906101000a900460ff1661340a576040517f08c379a000000000000000000000000000000000000000000000000000000000815260040161340190614662565b60405180910390fd5b805f600281111561341e5761341d613e04565b5b60055f3373ffffffffffffffffffffffffffffffffffffffff1673ffffffffffffffffffffffffffffffffffffffff1681526020019081526020015f205f8381526020019081526020015f206004015f9054906101000a900460ff16600281111561348c5761348b613e04565b5b146134cc576040517f08c379a00000000000000000000000000000000000000000000000000000000081526004016134c390614cf6565b60405180910390fd5b600160055f3373ffffffffffffffffffffffffffffffffffffffff1673ffffffffffffffffffffffffffffffffffffffff1681526020019081526020015f205f8481526020019081526020015f206004015f6101000a81548160ff0219169083600281111561353e5761353d613e04565b5b02179055507f2d8885900c84bb029f82b71e344a4ad4d9e1b4fde9f3827244b4048aa8272b08826040516135729190613ddc565b60405180910390a15050565b5f8060035f8573ffffffffffffffffffffffffffffffffffffffff1673ffffffffffffffffffffffffffffffffffffffff1681526020019081526020015f205f8473ffffffffffffffffffffffffffffffffffffffff1673ffffffffffffffffffffffffffffffffffffffff1681526020019081526020015f206040518060e00160405290815f82015f9054906101000a900460ff16151515158152602001600182015481526020016002820154815260200160038201548152602001600482015481526020016005820154815260200160068201548152505090505f815f01511561368457816040015182602001516136789190614eae565b90508092505050613759565b8160a001518260800151836060015161369d9190614eae565b836040015184602001516136b19190614eae565b6136bb9190614c4c565b6136c59190614c4c565b90505f6064600b836136d79190614eae565b6136e19190614f1c565b90505f60646002846136f39190614eae565b6136fd9190614f1c565b90505f6064600a8561370f9190614eae565b6137199190614f1c565b90505f8560c0015182848661372e9190614c4c565b6137389190614c4c565b6137429190614c4c565b90508085613750919061477d565b96505050505050505b92915050565b6060806060805f80600190505b600154811161381d5786600281111561378857613787613e04565b5b60055f3373ffffffffffffffffffffffffffffffffffffffff1673ffffffffffffffffffffffffffffffffffffffff1681526020019081526020015f205f8381526020019081526020015f206004015f9054906101000a900460ff1660028111156137f6576137f5613e04565b5b0361380a57818061380690614818565b9250505b808061381590614818565b91505061376c565b505f8167ffffffffffffffff8111156138395761383861485f565b5b6040519080825280602002602001820160405280156138675781602001602082028036833780820191505090505b5090505f8267ffffffffffffffff8111156138855761388461485f565b5b6040519080825280602002602001820160405280156138b35781602001602082028036833780820191505090505b5090505f8367ffffffffffffffff8111156138d1576138d061485f565b5b6040519080825280602002602001820160405280156138ff5781602001602082028036833780820191505090505b5090505f8467ffffffffffffffff81111561391d5761391c61485f565b5b60405190808252806020026020018201604052801561394b5781602001602082028036833780820191505090505b5090505f80600190505b6001548111613ae7575f60055f3373ffffffffffffffffffffffffffffffffffffffff1673ffffffffffffffffffffffffffffffffffffffff1681526020019081526020015f205f8381526020019081526020015f2090508c60028111156139c0576139bf613e04565b5b816004015f9054906101000a900460ff1660028111156139e3576139e2613e04565b5b03613ad357805f01548784815181106139ff576139fe614c7f565b5b602002602001018181525050806001015f9054906101000a900473ffffffffffffffffffffffffffffffffffffffff16868481518110613a4257613a41614c7f565b5b602002602001019073ffffffffffffffffffffffffffffffffffffffff16908173ffffffffffffffffffffffffffffffffffffffff16815250508060020154858481518110613a9457613a93614c7f565b5b6020026020010181815250508060030154848481518110613ab857613ab7614c7f565b5b6020026020010181815250508280613acf90614818565b9350505b508080613adf90614818565b915050613955565b508484848499509950995099505050505050509193509193565b6040518060e001604052805f81526020015f73ffffffffffffffffffffffffffffffffffffffff1681526020015f81526020015f81526020015f6002811115613b4d57613b4c613e04565b5b81526020015f15158152602001606081525090565b6040518060e001604052805f151581526020015f81526020015f81526020015f81526020015f81526020015f81526020015f81525090565b5f80fd5b5f73ffffffffffffffffffffffffffffffffffffffff82169050919050565b5f613bc782613b9e565b9050919050565b613bd781613bbd565b8114613be1575f80fd5b50565b5f81359050613bf281613bce565b92915050565b5f60208284031215613c0d57613c0c613b9a565b5b5f613c1a84828501613be4565b91505092915050565b5f8115159050919050565b613c3781613c23565b82525050565b5f602082019050613c505f830184613c2e565b92915050565b5f819050919050565b613c6881613c56565b8114613c72575f80fd5b50565b5f81359050613c8381613c5f565b92915050565b5f60208284031215613c9e57613c9d613b9a565b5b5f613cab84828501613c75565b91505092915050565b5f8060408385031215613cca57613cc9613b9a565b5b5f613cd785828601613be4565b9250506020613ce885828601613c75565b9150509250929050565b613cfb81613c23565b8114613d05575f80fd5b50565b5f81359050613d1681613cf2565b92915050565b5f805f805f805f80610100898b031215613d3957613d38613b9a565b5b5f613d468b828c01613be4565b9850506020613d578b828c01613d08565b9750506040613d688b828c01613c75565b9650506060613d798b828c01613c75565b9550506080613d8a8b828c01613c75565b94505060a0613d9b8b828c01613c75565b93505060c0613dac8b828c01613c75565b92505060e0613dbd8b828c01613c75565b9150509295985092959890939650565b613dd681613c56565b82525050565b5f602082019050613def5f830184613dcd565b92915050565b613dfe81613bbd565b82525050565b7f4e487b71000000000000000000000000000000000000000000000000000000005f52602160045260245ffd5b60038110613e4257613e41613e04565b5b50565b5f819050613e5282613e31565b919050565b5f613e6182613e45565b9050919050565b613e7181613e57565b82525050565b5f81519050919050565b5f82825260208201905092915050565b8281835e5f83830152505050565b5f601f19601f8301169050919050565b5f613eb982613e77565b613ec38185613e81565b9350613ed3818560208601613e91565b613edc81613e9f565b840191505092915050565b5f60e082019050613efa5f83018a613dcd565b613f076020830189613df5565b613f146040830188613dcd565b613f216060830187613dcd565b613f2e6080830186613e68565b613f3b60a0830185613c2e565b81810360c0830152613f4d8184613eaf565b905098975050505050505050565b5f81519050919050565b5f82825260208201905092915050565b5f819050602082019050919050565b613f8d81613c56565b82525050565b613f9c81613bbd565b82525050565b613fab81613e57565b82525050565b613fba81613c23565b82525050565b5f82825260208201905092915050565b5f613fda82613e77565b613fe48185613fc0565b9350613ff4818560208601613e91565b613ffd81613e9f565b840191505092915050565b5f60e083015f83015161401d5f860182613f84565b5060208301516140306020860182613f93565b5060408301516140436040860182613f84565b5060608301516140566060860182613f84565b5060808301516140696080860182613fa2565b5060a083015161407c60a0860182613fb1565b5060c083015184820360c08601526140948282613fd0565b9150508091505092915050565b5f6140ac8383614008565b905092915050565b5f602082019050919050565b5f6140ca82613f5b565b6140d48185613f65565b9350836020820285016140e685613f75565b805f5b85811015614121578484038952815161410285826140a1565b945061410d836140b4565b925060208a019950506001810190506140e9565b50829750879550505050505092915050565b5f6020820190508181035f83015261414b81846140c0565b905092915050565b5f81519050919050565b5f82825260208201905092915050565b5f819050602082019050919050565b5f6141878383613f93565b60208301905092915050565b5f602082019050919050565b5f6141a982614153565b6141b3818561415d565b93506141be8361416d565b805f5b838110156141ee5781516141d5888261417c565b97506141e083614193565b9250506001810190506141c1565b5085935050505092915050565b5f6020820190508181035f830152614213818461419f565b905092915050565b5f805f6060848603121561423257614231613b9a565b5b5f61423f86828701613c75565b935050602061425086828701613c75565b925050604061426186828701613c75565b9150509250925092565b5f60208201905061427e5f830184613df5565b92915050565b5f81519050919050565b5f82825260208201905092915050565b5f819050602082019050919050565b5f6142b88383613f84565b60208301905092915050565b5f602082019050919050565b5f6142da82614284565b6142e4818561428e565b93506142ef8361429e565b805f5b8381101561431f57815161430688826142ad565b9750614311836142c4565b9250506001810190506142f2565b5085935050505092915050565b5f6080820190508181035f83015261434481876142d0565b90508181036020830152614358818661419f565b9050818103604083015261436c81856142d0565b9050818103606083015261438081846142d0565b905095945050505050565b5f80604083850312156143a1576143a0613b9a565b5b5f6143ae85828601613be4565b92505060206143bf85828601613be4565b9150509250929050565b5f60e0820190506143dc5f83018a613c2e565b6143e96020830189613dcd565b6143f66040830188613dcd565b6144036060830187613dcd565b6144106080830186613dcd565b61441d60a0830185613dcd565b61442a60c0830184613dcd565b98975050505050505050565b5f81519050919050565b5f82825260208201905092915050565b5f819050602082019050919050565b60e082015f8201516144735f850182613fb1565b5060208201516144866020850182613f84565b5060408201516144996040850182613f84565b5060608201516144ac6060850182613f84565b5060808201516144bf6080850182613f84565b5060a08201516144d260a0850182613f84565b5060c08201516144e560c0850182613f84565b50505050565b5f6144f6838361445f565b60e08301905092915050565b5f602082019050919050565b5f61451882614436565b6145228185614440565b935061452d83614450565b805f5b8381101561455d57815161454488826144eb565b975061454f83614502565b925050600181019050614530565b5085935050505092915050565b5f6020820190508181035f830152614582818461450e565b905092915050565b7f416c7265616479207265676973746572656420617320616e20656d706c6f79655f8201527f7200000000000000000000000000000000000000000000000000000000000000602082015250565b5f6145e4602183613e81565b91506145ef8261458a565b604082019050919050565b5f6020820190508181035f830152614611816145d8565b9050919050565b7f4e6f7420616e20656d706c6f79657200000000000000000000000000000000005f82015250565b5f61464c600f83613e81565b915061465782614618565b602082019050919050565b5f6020820190508181035f83015261467981614640565b9050919050565b7f496e73756666696369656e742066756e647300000000000000000000000000005f82015250565b5f6146b4601283613e81565b91506146bf82614680565b602082019050919050565b5f6020820190508181035f8301526146e1816146a8565b9050919050565b7f416d6f756e74206d7573742062652067726561746572207468616e207a65726f5f82015250565b5f61471c602083613e81565b9150614727826146e8565b602082019050919050565b5f6020820190508181035f83015261474981614710565b9050919050565b7f4e487b71000000000000000000000000000000000000000000000000000000005f52601160045260245ffd5b5f61478782613c56565b915061479283613c56565b92508282039050818111156147aa576147a9614750565b5b92915050565b7f456d706c6f796565206e6f7420666f756e6400000000000000000000000000005f82015250565b5f6147e4601283613e81565b91506147ef826147b0565b602082019050919050565b5f6020820190508181035f830152614811816147d8565b9050919050565b5f61482282613c56565b91507fffffffffffffffffffffffffffffffffffffffffffffffffffffffffffffffff820361485457614853614750565b5b600182019050919050565b7f4e487b71000000000000000000000000000000000000000000000000000000005f52604160045260245ffd5b7f4e487b71000000000000000000000000000000000000000000000000000000005f52602260045260245ffd5b5f60028204905060018216806148d057607f821691505b6020821081036148e3576148e261488c565b5b50919050565b5f819050815f5260205f209050919050565b5f6020601f8301049050919050565b5f82821b905092915050565b5f600883026149457fffffffffffffffffffffffffffffffffffffffffffffffffffffffffffffffff8261490a565b61494f868361490a565b95508019841693508086168417925050509392505050565b5f819050919050565b5f61498a61498561498084613c56565b614967565b613c56565b9050919050565b5f819050919050565b6149a383614970565b6149b76149af82614991565b848454614916565b825550505050565b5f90565b6149cb6149bf565b6149d681848461499a565b505050565b5b818110156149f9576149ee5f826149c3565b6001810190506149dc565b5050565b601f821115614a3e57614a0f816148e9565b614a18846148fb565b81016020851015614a27578190505b614a3b614a33856148fb565b8301826149db565b50505b505050565b5f82821c905092915050565b5f614a5e5f1984600802614a43565b1980831691505092915050565b5f614a768383614a4f565b9150826002028217905092915050565b614a8f82613e77565b67ffffffffffffffff811115614aa857614aa761485f565b5b614ab282546148b9565b614abd8282856149fd565b5f60209050601f831160018114614aee575f8415614adc578287015190505b614ae68582614a6b565b865550614b4d565b601f198416614afc866148e9565b5f5b82811015614b2357848901518255600182019150602085019450602081019050614afe565b86831015614b405784890151614b3c601f891682614a4f565b8355505b6001600288020188555050505b505050505050565b5f604082019050614b685f830185613dcd565b614b756020830184613dcd565b9392505050565b7f496e76616c696420656d706c6f796565000000000000000000000000000000005f82015250565b5f614bb0601083613e81565b9150614bbb82614b7c565b602082019050919050565b5f6020820190508181035f830152614bdd81614ba4565b9050919050565b7f456d706c6f79656520616c7265616479206164646564000000000000000000005f82015250565b5f614c18601683613e81565b9150614c2382614be4565b602082019050919050565b5f6020820190508181035f830152614c4581614c0c565b9050919050565b5f614c5682613c56565b9150614c6183613c56565b9250828201905080821115614c7957614c78614750565b5b92915050565b7f4e487b71000000000000000000000000000000000000000000000000000000005f52603260045260245ffd5b7f54696d656c6f636b206973206e6f7420717565756564000000000000000000005f82015250565b5f614ce0601683613e81565b9150614ceb82614cac565b602082019050919050565b5f6020820190508181035f830152614d0d81614cd4565b9050919050565b7f54696d656c6f636b206e6f7420706173736564000000000000000000000000005f82015250565b5f614d48601383613e81565b9150614d5382614d14565b602082019050919050565b5f6020820190508181035f830152614d7581614d3c565b9050919050565b7f53616c61727920616c72656164792070726f63657373656400000000000000005f82015250565b5f614db0601883613e81565b9150614dbb82614d7c565b602082019050919050565b5f6020820190508181035f830152614ddd81614da4565b9050919050565b7f4e487b71000000000000000000000000000000000000000000000000000000005f52603160045260245ffd5b5f606082019050614e245f830186613dcd565b614e316020830185613dcd565b614e3e6040830184613dcd565b949350505050565b7f4d7573742073656e6420457468657220746f2066756e64206163636f756e74005f82015250565b5f614e7a601f83613e81565b9150614e8582614e46565b602082019050919050565b5f6020820190508181035f830152614ea781614e6e565b9050919050565b5f614eb882613c56565b9150614ec383613c56565b9250828202614ed181613c56565b91508282048414831517614ee857614ee7614750565b5b5092915050565b7f4e487b71000000000000000000000000000000000000000000000000000000005f52601260045260245ffd5b5f614f2682613c56565b9150614f3183613c56565b925082614f4157614f40614eef565b5b82820490509291505056fe53616c6172792074696d656c6f636b20666f7220616c6c20656d706c6f79656573a264697066735822122080747ea13f7dc797f5996b79fc267238bd7ba79added4e594597d0ab8fcaa97664736f6c634300081a0033",
			"opcodes": "PUSH1 0x80 PUSH1 0x40 MSTORE CALLVALUE DUP1 ISZERO PUSH1 0xE JUMPI PUSH0 DUP1 REVERT JUMPDEST POP CALLER PUSH0 DUP1 PUSH2 0x100 EXP DUP2 SLOAD DUP2 PUSH20 0xFFFFFFFFFFFFFFFFFFFFFFFFFFFFFFFFFFFFFFFF MUL NOT AND SWAP1 DUP4 PUSH20 0xFFFFFFFFFFFFFFFFFFFFFFFFFFFFFFFFFFFFFFFF AND MUL OR SWAP1 SSTORE POP PUSH2 0x4FA3 DUP1 PUSH2 0x5B PUSH0 CODECOPY PUSH0 RETURN INVALID PUSH1 0x80 PUSH1 0x40 MSTORE PUSH1 0x4 CALLDATASIZE LT PUSH2 0x1BA JUMPI PUSH0 CALLDATALOAD PUSH1 0xE0 SHR DUP1 PUSH4 0x74F079B8 GT PUSH2 0xEB JUMPI DUP1 PUSH4 0xA5E2952F GT PUSH2 0x89 JUMPI DUP1 PUSH4 0xDC8D3788 GT PUSH2 0x63 JUMPI DUP1 PUSH4 0xDC8D3788 EQ PUSH2 0x5FF JUMPI DUP1 PUSH4 0xE3366FED EQ PUSH2 0x62C JUMPI DUP1 PUSH4 0xE68DE8D3 EQ PUSH2 0x656 JUMPI DUP1 PUSH4 0xFE9F0707 EQ PUSH2 0x67E JUMPI PUSH2 0x1C1 JUMP JUMPDEST DUP1 PUSH4 0xA5E2952F EQ PUSH2 0x568 JUMPI DUP1 PUSH4 0xAF65D82D EQ PUSH2 0x595 JUMPI DUP1 PUSH4 0xC30F303D EQ PUSH2 0x5BD JUMPI PUSH2 0x1C1 JUMP JUMPDEST DUP1 PUSH4 0x89308F29 GT PUSH2 0xC5 JUMPI DUP1 PUSH4 0x89308F29 EQ PUSH2 0x4CB JUMPI DUP1 PUSH4 0x8DA5CB5B EQ PUSH2 0x4F8 JUMPI DUP1 PUSH4 0xA2CE9027 EQ PUSH2 0x522 JUMPI DUP1 PUSH4 0xA4F85A2A EQ PUSH2 0x55E JUMPI PUSH2 0x1C1 JUMP JUMPDEST DUP1 PUSH4 0x74F079B8 EQ PUSH2 0x43D JUMPI DUP1 PUSH4 0x7BBDA1BA EQ PUSH2 0x467 JUMPI DUP1 PUSH4 0x7BF86E89 EQ PUSH2 0x48F JUMPI PUSH2 0x1C1 JUMP JUMPDEST DUP1 PUSH4 0x37DE568B GT PUSH2 0x158 JUMPI DUP1 PUSH4 0x411C0C55 GT PUSH2 0x132 JUMPI DUP1 PUSH4 0x411C0C55 EQ PUSH2 0x389 JUMPI DUP1 PUSH4 0x412566B5 EQ PUSH2 0x3B1 JUMPI DUP1 PUSH4 0x52C44644 EQ PUSH2 0x3ED JUMPI DUP1 PUSH4 0x6E7C4AB1 EQ PUSH2 0x415 JUMPI PUSH2 0x1C1 JUMP JUMPDEST DUP1 PUSH4 0x37DE568B EQ PUSH2 0x307 JUMPI DUP1 PUSH4 0x39E23871 EQ PUSH2 0x349 JUMPI DUP1 PUSH4 0x3F64DC16 EQ PUSH2 0x35F JUMPI PUSH2 0x1C1 JUMP JUMPDEST DUP1 PUSH4 0x1CEC677D GT PUSH2 0x194 JUMPI DUP1 PUSH4 0x1CEC677D EQ PUSH2 0x23F JUMPI DUP1 PUSH4 0x2BC95DE1 EQ PUSH2 0x267 JUMPI DUP1 PUSH4 0x2E9DB8D7 EQ PUSH2 0x28F JUMPI DUP1 PUSH4 0x2F2909F3 EQ PUSH2 0x2CB JUMPI PUSH2 0x1C1 JUMP JUMPDEST DUP1 PUSH4 0xBE435BD EQ PUSH2 0x1C5 JUMPI DUP1 PUSH4 0x14DEE245 EQ PUSH2 0x201 JUMPI DUP1 PUSH4 0x155DD5EE EQ PUSH2 0x217 JUMPI PUSH2 0x1C1 JUMP JUMPDEST CALLDATASIZE PUSH2 0x1C1 JUMPI STOP JUMPDEST PUSH0 DUP1 REVERT JUMPDEST CALLVALUE DUP1 ISZERO PUSH2 0x1D0 JUMPI PUSH0 DUP1 REVERT JUMPDEST POP PUSH2 0x1EB PUSH1 0x4 DUP1 CALLDATASIZE SUB DUP2 ADD SWAP1 PUSH2 0x1E6 SWAP2 SWAP1 PUSH2 0x3BF8 JUMP JUMPDEST PUSH2 0x6BA JUMP JUMPDEST PUSH1 0x40 MLOAD PUSH2 0x1F8 SWAP2 SWAP1 PUSH2 0x3C3D JUMP JUMPDEST PUSH1 0x40 MLOAD DUP1 SWAP2 SUB SWAP1 RETURN JUMPDEST CALLVALUE DUP1 ISZERO PUSH2 0x20C JUMPI PUSH0 DUP1 REVERT JUMPDEST POP PUSH2 0x215 PUSH2 0x6D7 JUMP JUMPDEST STOP JUMPDEST CALLVALUE DUP1 ISZERO PUSH2 0x222 JUMPI PUSH0 DUP1 REVERT JUMPDEST POP PUSH2 0x23D PUSH1 0x4 DUP1 CALLDATASIZE SUB DUP2 ADD SWAP1 PUSH2 0x238 SWAP2 SWAP1 PUSH2 0x3C89 JUMP JUMPDEST PUSH2 0x7B8 JUMP JUMPDEST STOP JUMPDEST CALLVALUE DUP1 ISZERO PUSH2 0x24A JUMPI PUSH0 DUP1 REVERT JUMPDEST POP PUSH2 0x265 PUSH1 0x4 DUP1 CALLDATASIZE SUB DUP2 ADD SWAP1 PUSH2 0x260 SWAP2 SWAP1 PUSH2 0x3CB4 JUMP JUMPDEST PUSH2 0x99D JUMP JUMPDEST STOP JUMPDEST CALLVALUE DUP1 ISZERO PUSH2 0x272 JUMPI PUSH0 DUP1 REVERT JUMPDEST POP PUSH2 0x28D PUSH1 0x4 DUP1 CALLDATASIZE SUB DUP2 ADD SWAP1 PUSH2 0x288 SWAP2 SWAP1 PUSH2 0x3D1C JUMP JUMPDEST PUSH2 0xD28 JUMP JUMPDEST STOP JUMPDEST CALLVALUE DUP1 ISZERO PUSH2 0x29A JUMPI PUSH0 DUP1 REVERT JUMPDEST POP PUSH2 0x2B5 PUSH1 0x4 DUP1 CALLDATASIZE SUB DUP2 ADD SWAP1 PUSH2 0x2B0 SWAP2 SWAP1 PUSH2 0x3BF8 JUMP JUMPDEST PUSH2 0x11B5 JUMP JUMPDEST PUSH1 0x40 MLOAD PUSH2 0x2C2 SWAP2 SWAP1 PUSH2 0x3DDC JUMP JUMPDEST PUSH1 0x40 MLOAD DUP1 SWAP2 SUB SWAP1 RETURN JUMPDEST CALLVALUE DUP1 ISZERO PUSH2 0x2D6 JUMPI PUSH0 DUP1 REVERT JUMPDEST POP PUSH2 0x2F1 PUSH1 0x4 DUP1 CALLDATASIZE SUB DUP2 ADD SWAP1 PUSH2 0x2EC SWAP2 SWAP1 PUSH2 0x3BF8 JUMP JUMPDEST PUSH2 0x11FB JUMP JUMPDEST PUSH1 0x40 MLOAD PUSH2 0x2FE SWAP2 SWAP1 PUSH2 0x3DDC JUMP JUMPDEST PUSH1 0x40 MLOAD DUP1 SWAP2 SUB SWAP1 RETURN JUMPDEST CALLVALUE DUP1 ISZERO PUSH2 0x312 JUMPI PUSH0 DUP1 REVERT JUMPDEST POP PUSH2 0x32D PUSH1 0x4 DUP1 CALLDATASIZE SUB DUP2 ADD SWAP1 PUSH2 0x328 SWAP2 SWAP1 PUSH2 0x3CB4 JUMP JUMPDEST PUSH2 0x1210 JUMP JUMPDEST PUSH1 0x40 MLOAD PUSH2 0x340 SWAP8 SWAP7 SWAP6 SWAP5 SWAP4 SWAP3 SWAP2 SWAP1 PUSH2 0x3EE7 JUMP JUMPDEST PUSH1 0x40 MLOAD DUP1 SWAP2 SUB SWAP1 RETURN JUMPDEST CALLVALUE DUP1 ISZERO PUSH2 0x354 JUMPI PUSH0 DUP1 REVERT JUMPDEST POP PUSH2 0x35D PUSH2 0x1317 JUMP JUMPDEST STOP JUMPDEST CALLVALUE DUP1 ISZERO PUSH2 0x36A JUMPI PUSH0 DUP1 REVERT JUMPDEST POP PUSH2 0x373 PUSH2 0x1793 JUMP JUMPDEST PUSH1 0x40 MLOAD PUSH2 0x380 SWAP2 SWAP1 PUSH2 0x4133 JUMP JUMPDEST PUSH1 0x40 MLOAD DUP1 SWAP2 SUB SWAP1 RETURN JUMPDEST CALLVALUE DUP1 ISZERO PUSH2 0x394 JUMPI PUSH0 DUP1 REVERT JUMPDEST POP PUSH2 0x3AF PUSH1 0x4 DUP1 CALLDATASIZE SUB DUP2 ADD SWAP1 PUSH2 0x3AA SWAP2 SWAP1 PUSH2 0x3C89 JUMP JUMPDEST PUSH2 0x1A7D JUMP JUMPDEST STOP JUMPDEST CALLVALUE DUP1 ISZERO PUSH2 0x3BC JUMPI PUSH0 DUP1 REVERT JUMPDEST POP PUSH2 0x3D7 PUSH1 0x4 DUP1 CALLDATASIZE SUB DUP2 ADD SWAP1 PUSH2 0x3D2 SWAP2 SWAP1 PUSH2 0x3BF8 JUMP JUMPDEST PUSH2 0x1E50 JUMP JUMPDEST PUSH1 0x40 MLOAD PUSH2 0x3E4 SWAP2 SWAP1 PUSH2 0x41FB JUMP JUMPDEST PUSH1 0x40 MLOAD DUP1 SWAP2 SUB SWAP1 RETURN JUMPDEST CALLVALUE DUP1 ISZERO PUSH2 0x3F8 JUMPI PUSH0 DUP1 REVERT JUMPDEST POP PUSH2 0x413 PUSH1 0x4 DUP1 CALLDATASIZE SUB DUP2 ADD SWAP1 PUSH2 0x40E SWAP2 SWAP1 PUSH2 0x3C89 JUMP JUMPDEST PUSH2 0x1F18 JUMP JUMPDEST STOP JUMPDEST CALLVALUE DUP1 ISZERO PUSH2 0x420 JUMPI PUSH0 DUP1 REVERT JUMPDEST POP PUSH2 0x43B PUSH1 0x4 DUP1 CALLDATASIZE SUB DUP2 ADD SWAP1 PUSH2 0x436 SWAP2 SWAP1 PUSH2 0x3BF8 JUMP JUMPDEST PUSH2 0x236B JUMP JUMPDEST STOP JUMPDEST CALLVALUE DUP1 ISZERO PUSH2 0x448 JUMPI PUSH0 DUP1 REVERT JUMPDEST POP PUSH2 0x451 PUSH2 0x27B6 JUMP JUMPDEST PUSH1 0x40 MLOAD PUSH2 0x45E SWAP2 SWAP1 PUSH2 0x3DDC JUMP JUMPDEST PUSH1 0x40 MLOAD DUP1 SWAP2 SUB SWAP1 RETURN JUMPDEST CALLVALUE DUP1 ISZERO PUSH2 0x472 JUMPI PUSH0 DUP1 REVERT JUMPDEST POP PUSH2 0x48D PUSH1 0x4 DUP1 CALLDATASIZE SUB DUP2 ADD SWAP1 PUSH2 0x488 SWAP2 SWAP1 PUSH2 0x421B JUMP JUMPDEST PUSH2 0x27BC JUMP JUMPDEST STOP JUMPDEST CALLVALUE DUP1 ISZERO PUSH2 0x49A JUMPI PUSH0 DUP1 REVERT JUMPDEST POP PUSH2 0x4B5 PUSH1 0x4 DUP1 CALLDATASIZE SUB DUP2 ADD SWAP1 PUSH2 0x4B0 SWAP2 SWAP1 PUSH2 0x3CB4 JUMP JUMPDEST PUSH2 0x29FB JUMP JUMPDEST PUSH1 0x40 MLOAD PUSH2 0x4C2 SWAP2 SWAP1 PUSH2 0x426B JUMP JUMPDEST PUSH1 0x40 MLOAD DUP1 SWAP2 SUB SWAP1 RETURN JUMPDEST CALLVALUE DUP1 ISZERO PUSH2 0x4D6 JUMPI PUSH0 DUP1 REVERT JUMPDEST POP PUSH2 0x4DF PUSH2 0x2A43 JUMP JUMPDEST PUSH1 0x40 MLOAD PUSH2 0x4EF SWAP5 SWAP4 SWAP3 SWAP2 SWAP1 PUSH2 0x432C JUMP JUMPDEST PUSH1 0x40 MLOAD DUP1 SWAP2 SUB SWAP1 RETURN JUMPDEST CALLVALUE DUP1 ISZERO PUSH2 0x503 JUMPI PUSH0 DUP1 REVERT JUMPDEST POP PUSH2 0x50C PUSH2 0x2AEA JUMP JUMPDEST PUSH1 0x40 MLOAD PUSH2 0x519 SWAP2 SWAP1 PUSH2 0x426B JUMP JUMPDEST PUSH1 0x40 MLOAD DUP1 SWAP2 SUB SWAP1 RETURN JUMPDEST CALLVALUE DUP1 ISZERO PUSH2 0x52D JUMPI PUSH0 DUP1 REVERT JUMPDEST POP PUSH2 0x548 PUSH1 0x4 DUP1 CALLDATASIZE SUB DUP2 ADD SWAP1 PUSH2 0x543 SWAP2 SWAP1 PUSH2 0x438B JUMP JUMPDEST PUSH2 0x2B0D JUMP JUMPDEST PUSH1 0x40 MLOAD PUSH2 0x555 SWAP2 SWAP1 PUSH2 0x3C3D JUMP JUMPDEST PUSH1 0x40 MLOAD DUP1 SWAP2 SUB SWAP1 RETURN JUMPDEST PUSH2 0x566 PUSH2 0x2B37 JUMP JUMPDEST STOP JUMPDEST CALLVALUE DUP1 ISZERO PUSH2 0x573 JUMPI PUSH0 DUP1 REVERT JUMPDEST POP PUSH2 0x57C PUSH2 0x2CA5 JUMP JUMPDEST PUSH1 0x40 MLOAD PUSH2 0x58C SWAP5 SWAP4 SWAP3 SWAP2 SWAP1 PUSH2 0x432C JUMP JUMPDEST PUSH1 0x40 MLOAD DUP1 SWAP2 SUB SWAP1 RETURN JUMPDEST CALLVALUE DUP1 ISZERO PUSH2 0x5A0 JUMPI PUSH0 DUP1 REVERT JUMPDEST POP PUSH2 0x5BB PUSH1 0x4 DUP1 CALLDATASIZE SUB DUP2 ADD SWAP1 PUSH2 0x5B6 SWAP2 SWAP1 PUSH2 0x3D1C JUMP JUMPDEST PUSH2 0x2D4C JUMP JUMPDEST STOP JUMPDEST CALLVALUE DUP1 ISZERO PUSH2 0x5C8 JUMPI PUSH0 DUP1 REVERT JUMPDEST POP PUSH2 0x5E3 PUSH1 0x4 DUP1 CALLDATASIZE SUB DUP2 ADD SWAP1 PUSH2 0x5DE SWAP2 SWAP1 PUSH2 0x438B JUMP JUMPDEST PUSH2 0x2FAC JUMP JUMPDEST PUSH1 0x40 MLOAD PUSH2 0x5F6 SWAP8 SWAP7 SWAP6 SWAP5 SWAP4 SWAP3 SWAP2 SWAP1 PUSH2 0x43C9 JUMP JUMPDEST PUSH1 0x40 MLOAD DUP1 SWAP2 SUB SWAP1 RETURN JUMPDEST CALLVALUE DUP1 ISZERO PUSH2 0x60A JUMPI PUSH0 DUP1 REVERT JUMPDEST POP PUSH2 0x613 PUSH2 0x3001 JUMP JUMPDEST PUSH1 0x40 MLOAD PUSH2 0x623 SWAP5 SWAP4 SWAP3 SWAP2 SWAP1 PUSH2 0x432C JUMP JUMPDEST PUSH1 0x40 MLOAD DUP1 SWAP2 SUB SWAP1 RETURN JUMPDEST CALLVALUE DUP1 ISZERO PUSH2 0x637 JUMPI PUSH0 DUP1 REVERT JUMPDEST POP PUSH2 0x640 PUSH2 0x30A7 JUMP JUMPDEST PUSH1 0x40 MLOAD PUSH2 0x64D SWAP2 SWAP1 PUSH2 0x456A JUMP JUMPDEST PUSH1 0x40 MLOAD DUP1 SWAP2 SUB SWAP1 RETURN JUMPDEST CALLVALUE DUP1 ISZERO PUSH2 0x661 JUMPI PUSH0 DUP1 REVERT JUMPDEST POP PUSH2 0x67C PUSH1 0x4 DUP1 CALLDATASIZE SUB DUP2 ADD SWAP1 PUSH2 0x677 SWAP2 SWAP1 PUSH2 0x3C89 JUMP JUMPDEST PUSH2 0x3381 JUMP JUMPDEST STOP JUMPDEST CALLVALUE DUP1 ISZERO PUSH2 0x689 JUMPI PUSH0 DUP1 REVERT JUMPDEST POP PUSH2 0x6A4 PUSH1 0x4 DUP1 CALLDATASIZE SUB DUP2 ADD SWAP1 PUSH2 0x69F SWAP2 SWAP1 PUSH2 0x438B JUMP JUMPDEST PUSH2 0x357E JUMP JUMPDEST PUSH1 0x40 MLOAD PUSH2 0x6B1 SWAP2 SWAP1 PUSH2 0x3DDC JUMP JUMPDEST PUSH1 0x40 MLOAD DUP1 SWAP2 SUB SWAP1 RETURN JUMPDEST PUSH1 0x2 PUSH1 0x20 MSTORE DUP1 PUSH0 MSTORE PUSH1 0x40 PUSH0 KECCAK256 PUSH0 SWAP2 POP SLOAD SWAP1 PUSH2 0x100 EXP SWAP1 DIV PUSH1 0xFF AND DUP2 JUMP JUMPDEST PUSH1 0x2 PUSH0 CALLER PUSH20 0xFFFFFFFFFFFFFFFFFFFFFFFFFFFFFFFFFFFFFFFF AND PUSH20 0xFFFFFFFFFFFFFFFFFFFFFFFFFFFFFFFFFFFFFFFF AND DUP2 MSTORE PUSH1 0x20 ADD SWAP1 DUP2 MSTORE PUSH1 0x20 ADD PUSH0 KECCAK256 PUSH0 SWAP1 SLOAD SWAP1 PUSH2 0x100 EXP SWAP1 DIV PUSH1 0xFF AND ISZERO PUSH2 0x761 JUMPI PUSH1 0x40 MLOAD PUSH32 0x8C379A000000000000000000000000000000000000000000000000000000000 DUP2 MSTORE PUSH1 0x4 ADD PUSH2 0x758 SWAP1 PUSH2 0x45FA JUMP JUMPDEST PUSH1 0x40 MLOAD DUP1 SWAP2 SUB SWAP1 REVERT JUMPDEST PUSH1 0x1 PUSH1 0x2 PUSH0 CALLER PUSH20 0xFFFFFFFFFFFFFFFFFFFFFFFFFFFFFFFFFFFFFFFF AND PUSH20 0xFFFFFFFFFFFFFFFFFFFFFFFFFFFFFFFFFFFFFFFF AND DUP2 MSTORE PUSH1 0x20 ADD SWAP1 DUP2 MSTORE PUSH1 0x20 ADD PUSH0 KECCAK256 PUSH0 PUSH2 0x100 EXP DUP2 SLOAD DUP2 PUSH1 0xFF MUL NOT AND SWAP1 DUP4 ISZERO ISZERO MUL OR SWAP1 SSTORE POP JUMP JUMPDEST PUSH1 0x2 PUSH0 CALLER PUSH20 0xFFFFFFFFFFFFFFFFFFFFFFFFFFFFFFFFFFFFFFFF AND PUSH20 0xFFFFFFFFFFFFFFFFFFFFFFFFFFFFFFFFFFFFFFFF AND DUP2 MSTORE PUSH1 0x20 ADD SWAP1 DUP2 MSTORE PUSH1 0x20 ADD PUSH0 KECCAK256 PUSH0 SWAP1 SLOAD SWAP1 PUSH2 0x100 EXP SWAP1 DIV PUSH1 0xFF AND PUSH2 0x841 JUMPI PUSH1 0x40 MLOAD PUSH32 0x8C379A000000000000000000000000000000000000000000000000000000000 DUP2 MSTORE PUSH1 0x4 ADD PUSH2 0x838 SWAP1 PUSH2 0x4662 JUMP JUMPDEST PUSH1 0x40 MLOAD DUP1 SWAP2 SUB SWAP1 REVERT JUMPDEST DUP1 PUSH1 0x6 PUSH0 CALLER PUSH20 0xFFFFFFFFFFFFFFFFFFFFFFFFFFFFFFFFFFFFFFFF AND PUSH20 0xFFFFFFFFFFFFFFFFFFFFFFFFFFFFFFFFFFFFFFFF AND DUP2 MSTORE PUSH1 0x20 ADD SWAP1 DUP2 MSTORE PUSH1 0x20 ADD PUSH0 KECCAK256 SLOAD LT ISZERO PUSH2 0x8C1 JUMPI PUSH1 0x40 MLOAD PUSH32 0x8C379A000000000000000000000000000000000000000000000000000000000 DUP2 MSTORE PUSH1 0x4 ADD PUSH2 0x8B8 SWAP1 PUSH2 0x46CA JUMP JUMPDEST PUSH1 0x40 MLOAD DUP1 SWAP2 SUB SWAP1 REVERT JUMPDEST PUSH0 DUP2 GT PUSH2 0x903 JUMPI PUSH1 0x40 MLOAD PUSH32 0x8C379A000000000000000000000000000000000000000000000000000000000 DUP2 MSTORE PUSH1 0x4 ADD PUSH2 0x8FA SWAP1 PUSH2 0x4732 JUMP JUMPDEST PUSH1 0x40 MLOAD DUP1 SWAP2 SUB SWAP1 REVERT JUMPDEST DUP1 PUSH1 0x6 PUSH0 CALLER PUSH20 0xFFFFFFFFFFFFFFFFFFFFFFFFFFFFFFFFFFFFFFFF AND PUSH20 0xFFFFFFFFFFFFFFFFFFFFFFFFFFFFFFFFFFFFFFFF AND DUP2 MSTORE PUSH1 0x20 ADD SWAP1 DUP2 MSTORE PUSH1 0x20 ADD PUSH0 KECCAK256 PUSH0 DUP3 DUP3 SLOAD PUSH2 0x94F SWAP2 SWAP1 PUSH2 0x477D JUMP JUMPDEST SWAP3 POP POP DUP2 SWAP1 SSTORE POP CALLER PUSH20 0xFFFFFFFFFFFFFFFFFFFFFFFFFFFFFFFFFFFFFFFF AND PUSH2 0x8FC DUP3 SWAP1 DUP2 ISZERO MUL SWAP1 PUSH1 0x40 MLOAD PUSH0 PUSH1 0x40 MLOAD DUP1 DUP4 SUB DUP2 DUP6 DUP9 DUP9 CALL SWAP4 POP POP POP POP ISZERO DUP1 ISZERO PUSH2 0x999 JUMPI RETURNDATASIZE PUSH0 DUP1 RETURNDATACOPY RETURNDATASIZE PUSH0 REVERT JUMPDEST POP POP JUMP JUMPDEST PUSH1 0x2 PUSH0 CALLER PUSH20 0xFFFFFFFFFFFFFFFFFFFFFFFFFFFFFFFFFFFFFFFF AND PUSH20 0xFFFFFFFFFFFFFFFFFFFFFFFFFFFFFFFFFFFFFFFF AND DUP2 MSTORE PUSH1 0x20 ADD SWAP1 DUP2 MSTORE PUSH1 0x20 ADD PUSH0 KECCAK256 PUSH0 SWAP1 SLOAD SWAP1 PUSH2 0x100 EXP SWAP1 DIV PUSH1 0xFF AND PUSH2 0xA26 JUMPI PUSH1 0x40 MLOAD PUSH32 0x8C379A000000000000000000000000000000000000000000000000000000000 DUP2 MSTORE PUSH1 0x4 ADD PUSH2 0xA1D SWAP1 PUSH2 0x4662 JUMP JUMPDEST PUSH1 0x40 MLOAD DUP1 SWAP2 SUB SWAP1 REVERT JUMPDEST PUSH1 0x4 PUSH0 CALLER PUSH20 0xFFFFFFFFFFFFFFFFFFFFFFFFFFFFFFFFFFFFFFFF AND PUSH20 0xFFFFFFFFFFFFFFFFFFFFFFFFFFFFFFFFFFFFFFFF AND DUP2 MSTORE PUSH1 0x20 ADD SWAP1 DUP2 MSTORE PUSH1 0x20 ADD PUSH0 KECCAK256 PUSH0 DUP4 PUSH20 0xFFFFFFFFFFFFFFFFFFFFFFFFFFFFFFFFFFFFFFFF AND PUSH20 0xFFFFFFFFFFFFFFFFFFFFFFFFFFFFFFFFFFFFFFFF AND DUP2 MSTORE PUSH1 0x20 ADD SWAP1 DUP2 MSTORE PUSH1 0x20 ADD PUSH0 KECCAK256 PUSH0 SWAP1 SLOAD SWAP1 PUSH2 0x100 EXP SWAP1 DIV PUSH1 0xFF AND PUSH2 0xAEA JUMPI PUSH1 0x40 MLOAD PUSH32 0x8C379A000000000000000000000000000000000000000000000000000000000 DUP2 MSTORE PUSH1 0x4 ADD PUSH2 0xAE1 SWAP1 PUSH2 0x47FA JUMP JUMPDEST PUSH1 0x40 MLOAD DUP1 SWAP2 SUB SWAP1 REVERT JUMPDEST PUSH0 PUSH2 0xAF5 CALLER DUP5 PUSH2 0x357E JUMP JUMPDEST SWAP1 POP PUSH1 0x1 PUSH0 DUP2 SLOAD DUP1 SWAP3 SWAP2 SWAP1 PUSH2 0xB09 SWAP1 PUSH2 0x4818 JUMP JUMPDEST SWAP2 SWAP1 POP SSTORE POP PUSH1 0x40 MLOAD DUP1 PUSH1 0xE0 ADD PUSH1 0x40 MSTORE DUP1 PUSH1 0x1 SLOAD DUP2 MSTORE PUSH1 0x20 ADD DUP5 PUSH20 0xFFFFFFFFFFFFFFFFFFFFFFFFFFFFFFFFFFFFFFFF AND DUP2 MSTORE PUSH1 0x20 ADD DUP3 DUP2 MSTORE PUSH1 0x20 ADD DUP4 DUP2 MSTORE PUSH1 0x20 ADD PUSH0 PUSH1 0x2 DUP2 GT ISZERO PUSH2 0xB5C JUMPI PUSH2 0xB5B PUSH2 0x3E04 JUMP JUMPDEST JUMPDEST DUP2 MSTORE PUSH1 0x20 ADD PUSH0 ISZERO ISZERO DUP2 MSTORE PUSH1 0x20 ADD PUSH1 0x40 MLOAD DUP1 PUSH1 0x40 ADD PUSH1 0x40 MSTORE DUP1 PUSH1 0xF DUP2 MSTORE PUSH1 0x20 ADD PUSH32 0x53616C6172792074696D656C6F636B0000000000000000000000000000000000 DUP2 MSTORE POP DUP2 MSTORE POP PUSH1 0x5 PUSH0 CALLER PUSH20 0xFFFFFFFFFFFFFFFFFFFFFFFFFFFFFFFFFFFFFFFF AND PUSH20 0xFFFFFFFFFFFFFFFFFFFFFFFFFFFFFFFFFFFFFFFF AND DUP2 MSTORE PUSH1 0x20 ADD SWAP1 DUP2 MSTORE PUSH1 0x20 ADD PUSH0 KECCAK256 PUSH0 PUSH1 0x1 SLOAD DUP2 MSTORE PUSH1 0x20 ADD SWAP1 DUP2 MSTORE PUSH1 0x20 ADD PUSH0 KECCAK256 PUSH0 DUP3 ADD MLOAD DUP2 PUSH0 ADD SSTORE PUSH1 0x20 DUP3 ADD MLOAD DUP2 PUSH1 0x1 ADD PUSH0 PUSH2 0x100 EXP DUP2 SLOAD DUP2 PUSH20 0xFFFFFFFFFFFFFFFFFFFFFFFFFFFFFFFFFFFFFFFF MUL NOT AND SWAP1 DUP4 PUSH20 0xFFFFFFFFFFFFFFFFFFFFFFFFFFFFFFFFFFFFFFFF AND MUL OR SWAP1 SSTORE POP PUSH1 0x40 DUP3 ADD MLOAD DUP2 PUSH1 0x2 ADD SSTORE PUSH1 0x60 DUP3 ADD MLOAD DUP2 PUSH1 0x3 ADD SSTORE PUSH1 0x80 DUP3 ADD MLOAD DUP2 PUSH1 0x4 ADD PUSH0 PUSH2 0x100 EXP DUP2 SLOAD DUP2 PUSH1 0xFF MUL NOT AND SWAP1 DUP4 PUSH1 0x2 DUP2 GT ISZERO PUSH2 0xC7C JUMPI PUSH2 0xC7B PUSH2 0x3E04 JUMP JUMPDEST JUMPDEST MUL OR SWAP1 SSTORE POP PUSH1 0xA0 DUP3 ADD MLOAD DUP2 PUSH1 0x4 ADD PUSH1 0x1 PUSH2 0x100 EXP DUP2 SLOAD DUP2 PUSH1 0xFF MUL NOT AND SWAP1 DUP4 ISZERO ISZERO MUL OR SWAP1 SSTORE POP PUSH1 0xC0 DUP3 ADD MLOAD DUP2 PUSH1 0x5 ADD SWAP1 DUP2 PUSH2 0xCB6 SWAP2 SWAP1 PUSH2 0x4A86 JUMP JUMPDEST POP SWAP1 POP POP DUP3 PUSH20 0xFFFFFFFFFFFFFFFFFFFFFFFFFFFFFFFFFFFFFFFF AND CALLER PUSH20 0xFFFFFFFFFFFFFFFFFFFFFFFFFFFFFFFFFFFFFFFF AND PUSH32 0x1B1D2B58E28C6D8522850C924145F2165ECFD5D6CBC3A168321BE4387E642AF8 DUP5 PUSH1 0x1 SLOAD PUSH1 0x40 MLOAD PUSH2 0xD1B SWAP3 SWAP2 SWAP1 PUSH2 0x4B55 JUMP JUMPDEST PUSH1 0x40 MLOAD DUP1 SWAP2 SUB SWAP1 LOG3 POP POP POP JUMP JUMPDEST PUSH1 0x2 PUSH0 CALLER PUSH20 0xFFFFFFFFFFFFFFFFFFFFFFFFFFFFFFFFFFFFFFFF AND PUSH20 0xFFFFFFFFFFFFFFFFFFFFFFFFFFFFFFFFFFFFFFFF AND DUP2 MSTORE PUSH1 0x20 ADD SWAP1 DUP2 MSTORE PUSH1 0x20 ADD PUSH0 KECCAK256 PUSH0 SWAP1 SLOAD SWAP1 PUSH2 0x100 EXP SWAP1 DIV PUSH1 0xFF AND PUSH2 0xDB1 JUMPI PUSH1 0x40 MLOAD PUSH32 0x8C379A000000000000000000000000000000000000000000000000000000000 DUP2 MSTORE PUSH1 0x4 ADD PUSH2 0xDA8 SWAP1 PUSH2 0x4662 JUMP JUMPDEST PUSH1 0x40 MLOAD DUP1 SWAP2 SUB SWAP1 REVERT JUMPDEST PUSH0 PUSH20 0xFFFFFFFFFFFFFFFFFFFFFFFFFFFFFFFFFFFFFFFF AND DUP9 PUSH20 0xFFFFFFFFFFFFFFFFFFFFFFFFFFFFFFFFFFFFFFFF AND EQ ISZERO DUP1 ISZERO PUSH2 0xE19 JUMPI POP CALLER PUSH20 0xFFFFFFFFFFFFFFFFFFFFFFFFFFFFFFFFFFFFFFFF AND DUP9 PUSH20 0xFFFFFFFFFFFFFFFFFFFFFFFFFFFFFFFFFFFFFFFF AND EQ ISZERO JUMPDEST PUSH2 0xE58 JUMPI PUSH1 0x40 MLOAD PUSH32 0x8C379A000000000000000000000000000000000000000000000000000000000 DUP2 MSTORE PUSH1 0x4 ADD PUSH2 0xE4F SWAP1 PUSH2 0x4BC6 JUMP JUMPDEST PUSH1 0x40 MLOAD DUP1 SWAP2 SUB SWAP1 REVERT JUMPDEST PUSH1 0x4 PUSH0 CALLER PUSH20 0xFFFFFFFFFFFFFFFFFFFFFFFFFFFFFFFFFFFFFFFF AND PUSH20 0xFFFFFFFFFFFFFFFFFFFFFFFFFFFFFFFFFFFFFFFF AND DUP2 MSTORE PUSH1 0x20 ADD SWAP1 DUP2 MSTORE PUSH1 0x20 ADD PUSH0 KECCAK256 PUSH0 DUP10 PUSH20 0xFFFFFFFFFFFFFFFFFFFFFFFFFFFFFFFFFFFFFFFF AND PUSH20 0xFFFFFFFFFFFFFFFFFFFFFFFFFFFFFFFFFFFFFFFF AND DUP2 MSTORE PUSH1 0x20 ADD SWAP1 DUP2 MSTORE PUSH1 0x20 ADD PUSH0 KECCAK256 PUSH0 SWAP1 SLOAD SWAP1 PUSH2 0x100 EXP SWAP1 DIV PUSH1 0xFF AND ISZERO PUSH2 0xF1D JUMPI PUSH1 0x40 MLOAD PUSH32 0x8C379A000000000000000000000000000000000000000000000000000000000 DUP2 MSTORE PUSH1 0x4 ADD PUSH2 0xF14 SWAP1 PUSH2 0x4C2E JUMP JUMPDEST PUSH1 0x40 MLOAD DUP1 SWAP2 SUB SWAP1 REVERT JUMPDEST PUSH1 0x40 MLOAD DUP1 PUSH1 0xE0 ADD PUSH1 0x40 MSTORE DUP1 DUP9 ISZERO ISZERO DUP2 MSTORE PUSH1 0x20 ADD DUP8 DUP2 MSTORE PUSH1 0x20 ADD DUP7 DUP2 MSTORE PUSH1 0x20 ADD DUP6 DUP2 MSTORE PUSH1 0x20 ADD DUP5 DUP2 MSTORE PUSH1 0x20 ADD DUP4 DUP2 MSTORE PUSH1 0x20 ADD DUP3 DUP2 MSTORE POP PUSH1 0x3 PUSH0 CALLER PUSH20 0xFFFFFFFFFFFFFFFFFFFFFFFFFFFFFFFFFFFFFFFF AND PUSH20 0xFFFFFFFFFFFFFFFFFFFFFFFFFFFFFFFFFFFFFFFF AND DUP2 MSTORE PUSH1 0x20 ADD SWAP1 DUP2 MSTORE PUSH1 0x20 ADD PUSH0 KECCAK256 PUSH0 DUP11 PUSH20 0xFFFFFFFFFFFFFFFFFFFFFFFFFFFFFFFFFFFFFFFF AND PUSH20 0xFFFFFFFFFFFFFFFFFFFFFFFFFFFFFFFFFFFFFFFF AND DUP2 MSTORE PUSH1 0x20 ADD SWAP1 DUP2 MSTORE PUSH1 0x20 ADD PUSH0 KECCAK256 PUSH0 DUP3 ADD MLOAD DUP2 PUSH0 ADD PUSH0 PUSH2 0x100 EXP DUP2 SLOAD DUP2 PUSH1 0xFF MUL NOT AND SWAP1 DUP4 ISZERO ISZERO MUL OR SWAP1 SSTORE POP PUSH1 0x20 DUP3 ADD MLOAD DUP2 PUSH1 0x1 ADD SSTORE PUSH1 0x40 DUP3 ADD MLOAD DUP2 PUSH1 0x2 ADD SSTORE PUSH1 0x60 DUP3 ADD MLOAD DUP2 PUSH1 0x3 ADD SSTORE PUSH1 0x80 DUP3 ADD MLOAD DUP2 PUSH1 0x4 ADD SSTORE PUSH1 0xA0 DUP3 ADD MLOAD DUP2 PUSH1 0x5 ADD SSTORE PUSH1 0xC0 DUP3 ADD MLOAD DUP2 PUSH1 0x6 ADD SSTORE SWAP1 POP POP PUSH1 0x1 PUSH1 0x4 PUSH0 CALLER PUSH20 0xFFFFFFFFFFFFFFFFFFFFFFFFFFFFFFFFFFFFFFFF AND PUSH20 0xFFFFFFFFFFFFFFFFFFFFFFFFFFFFFFFFFFFFFFFF AND DUP2 MSTORE PUSH1 0x20 ADD SWAP1 DUP2 MSTORE PUSH1 0x20 ADD PUSH0 KECCAK256 PUSH0 DUP11 PUSH20 0xFFFFFFFFFFFFFFFFFFFFFFFFFFFFFFFFFFFFFFFF AND PUSH20 0xFFFFFFFFFFFFFFFFFFFFFFFFFFFFFFFFFFFFFFFF AND DUP2 MSTORE PUSH1 0x20 ADD SWAP1 DUP2 MSTORE PUSH1 0x20 ADD PUSH0 KECCAK256 PUSH0 PUSH2 0x100 EXP DUP2 SLOAD DUP2 PUSH1 0xFF MUL NOT AND SWAP1 DUP4 ISZERO ISZERO MUL OR SWAP1 SSTORE POP PUSH1 0x7 PUSH0 CALLER PUSH20 0xFFFFFFFFFFFFFFFFFFFFFFFFFFFFFFFFFFFFFFFF AND PUSH20 0xFFFFFFFFFFFFFFFFFFFFFFFFFFFFFFFFFFFFFFFF AND DUP2 MSTORE PUSH1 0x20 ADD SWAP1 DUP2 MSTORE PUSH1 0x20 ADD PUSH0 KECCAK256 DUP9 SWAP1 DUP1 PUSH1 0x1 DUP2 SLOAD ADD DUP1 DUP3 SSTORE DUP1 SWAP2 POP POP PUSH1 0x1 SWAP1 SUB SWAP1 PUSH0 MSTORE PUSH1 0x20 PUSH0 KECCAK256 ADD PUSH0 SWAP1 SWAP2 SWAP1 SWAP2 SWAP1 SWAP2 PUSH2 0x100 EXP DUP2 SLOAD DUP2 PUSH20 0xFFFFFFFFFFFFFFFFFFFFFFFFFFFFFFFFFFFFFFFF MUL NOT AND SWAP1 DUP4 PUSH20 0xFFFFFFFFFFFFFFFFFFFFFFFFFFFFFFFFFFFFFFFF AND MUL OR SWAP1 SSTORE POP DUP8 PUSH20 0xFFFFFFFFFFFFFFFFFFFFFFFFFFFFFFFFFFFFFFFF AND CALLER PUSH20 0xFFFFFFFFFFFFFFFFFFFFFFFFFFFFFFFFFFFFFFFF AND PUSH32 0xD41127BC1EF851A201F5A1DFBD1E1C6476563F6D0379F2AD3C63598549ED4208 PUSH1 0x40 MLOAD PUSH1 0x40 MLOAD DUP1 SWAP2 SUB SWAP1 LOG3 POP POP POP POP POP POP POP POP JUMP JUMPDEST PUSH0 PUSH1 0x6 PUSH0 DUP4 PUSH20 0xFFFFFFFFFFFFFFFFFFFFFFFFFFFFFFFFFFFFFFFF AND PUSH20 0xFFFFFFFFFFFFFFFFFFFFFFFFFFFFFFFFFFFFFFFF AND DUP2 MSTORE PUSH1 0x20 ADD SWAP1 DUP2 MSTORE PUSH1 0x20 ADD PUSH0 KECCAK256 SLOAD SWAP1 POP SWAP2 SWAP1 POP JUMP JUMPDEST PUSH1 0x6 PUSH1 0x20 MSTORE DUP1 PUSH0 MSTORE PUSH1 0x40 PUSH0 KECCAK256 PUSH0 SWAP2 POP SWAP1 POP SLOAD DUP2 JUMP JUMPDEST PUSH1 0x5 PUSH1 0x20 MSTORE DUP2 PUSH0 MSTORE PUSH1 0x40 PUSH0 KECCAK256 PUSH1 0x20 MSTORE DUP1 PUSH0 MSTORE PUSH1 0x40 PUSH0 KECCAK256 PUSH0 SWAP2 POP SWAP2 POP POP DUP1 PUSH0 ADD SLOAD SWAP1 DUP1 PUSH1 0x1 ADD PUSH0 SWAP1 SLOAD SWAP1 PUSH2 0x100 EXP SWAP1 DIV PUSH20 0xFFFFFFFFFFFFFFFFFFFFFFFFFFFFFFFFFFFFFFFF AND SWAP1 DUP1 PUSH1 0x2 ADD SLOAD SWAP1 DUP1 PUSH1 0x3 ADD SLOAD SWAP1 DUP1 PUSH1 0x4 ADD PUSH0 SWAP1 SLOAD SWAP1 PUSH2 0x100 EXP SWAP1 DIV PUSH1 0xFF AND SWAP1 DUP1 PUSH1 0x4 ADD PUSH1 0x1 SWAP1 SLOAD SWAP1 PUSH2 0x100 EXP SWAP1 DIV PUSH1 0xFF AND SWAP1 DUP1 PUSH1 0x5 ADD DUP1 SLOAD PUSH2 0x1296 SWAP1 PUSH2 0x48B9 JUMP JUMPDEST DUP1 PUSH1 0x1F ADD PUSH1 0x20 DUP1 SWAP2 DIV MUL PUSH1 0x20 ADD PUSH1 0x40 MLOAD SWAP1 DUP2 ADD PUSH1 0x40 MSTORE DUP1 SWAP3 SWAP2 SWAP1 DUP2 DUP2 MSTORE PUSH1 0x20 ADD DUP3 DUP1 SLOAD PUSH2 0x12C2 SWAP1 PUSH2 0x48B9 JUMP JUMPDEST DUP1 ISZERO PUSH2 0x130D JUMPI DUP1 PUSH1 0x1F LT PUSH2 0x12E4 JUMPI PUSH2 0x100 DUP1 DUP4 SLOAD DIV MUL DUP4 MSTORE SWAP2 PUSH1 0x20 ADD SWAP2 PUSH2 0x130D JUMP JUMPDEST DUP3 ADD SWAP2 SWAP1 PUSH0 MSTORE PUSH1 0x20 PUSH0 KECCAK256 SWAP1 JUMPDEST DUP2 SLOAD DUP2 MSTORE SWAP1 PUSH1 0x1 ADD SWAP1 PUSH1 0x20 ADD DUP1 DUP4 GT PUSH2 0x12F0 JUMPI DUP3 SWAP1 SUB PUSH1 0x1F AND DUP3 ADD SWAP2 JUMPDEST POP POP POP POP POP SWAP1 POP DUP8 JUMP JUMPDEST PUSH1 0x2 PUSH0 CALLER PUSH20 0xFFFFFFFFFFFFFFFFFFFFFFFFFFFFFFFFFFFFFFFF AND PUSH20 0xFFFFFFFFFFFFFFFFFFFFFFFFFFFFFFFFFFFFFFFF AND DUP2 MSTORE PUSH1 0x20 ADD SWAP1 DUP2 MSTORE PUSH1 0x20 ADD PUSH0 KECCAK256 PUSH0 SWAP1 SLOAD SWAP1 PUSH2 0x100 EXP SWAP1 DIV PUSH1 0xFF AND PUSH2 0x13A0 JUMPI PUSH1 0x40 MLOAD PUSH32 0x8C379A000000000000000000000000000000000000000000000000000000000 DUP2 MSTORE PUSH1 0x4 ADD PUSH2 0x1397 SWAP1 PUSH2 0x4662 JUMP JUMPDEST PUSH1 0x40 MLOAD DUP1 SWAP2 SUB SWAP1 REVERT JUMPDEST PUSH0 DUP1 PUSH0 PUSH1 0x1 SWAP1 POP JUMPDEST PUSH1 0x1 SLOAD DUP2 GT PUSH2 0x149C JUMPI PUSH0 PUSH1 0x5 PUSH0 CALLER PUSH20 0xFFFFFFFFFFFFFFFFFFFFFFFFFFFFFFFFFFFFFFFF AND PUSH20 0xFFFFFFFFFFFFFFFFFFFFFFFFFFFFFFFFFFFFFFFF AND DUP2 MSTORE PUSH1 0x20 ADD SWAP1 DUP2 MSTORE PUSH1 0x20 ADD PUSH0 KECCAK256 PUSH0 DUP4 DUP2 MSTORE PUSH1 0x20 ADD SWAP1 DUP2 MSTORE PUSH1 0x20 ADD PUSH0 KECCAK256 SWAP1 POP PUSH0 PUSH1 0x2 DUP2 GT ISZERO PUSH2 0x1413 JUMPI PUSH2 0x1412 PUSH2 0x3E04 JUMP JUMPDEST JUMPDEST DUP2 PUSH1 0x4 ADD PUSH0 SWAP1 SLOAD SWAP1 PUSH2 0x100 EXP SWAP1 DIV PUSH1 0xFF AND PUSH1 0x2 DUP2 GT ISZERO PUSH2 0x1436 JUMPI PUSH2 0x1435 PUSH2 0x3E04 JUMP JUMPDEST JUMPDEST EQ DUP1 ISZERO PUSH2 0x1447 JUMPI POP DUP1 PUSH1 0x3 ADD SLOAD TIMESTAMP LT ISZERO JUMPDEST DUP1 ISZERO PUSH2 0x1462 JUMPI POP DUP1 PUSH1 0x4 ADD PUSH1 0x1 SWAP1 SLOAD SWAP1 PUSH2 0x100 EXP SWAP1 DIV PUSH1 0xFF AND ISZERO JUMPDEST ISZERO PUSH2 0x1488 JUMPI DUP1 PUSH1 0x2 ADD SLOAD DUP5 PUSH2 0x1477 SWAP2 SWAP1 PUSH2 0x4C4C JUMP JUMPDEST SWAP4 POP DUP3 DUP1 PUSH2 0x1484 SWAP1 PUSH2 0x4818 JUMP JUMPDEST SWAP4 POP POP JUMPDEST POP DUP1 DUP1 PUSH2 0x1494 SWAP1 PUSH2 0x4818 JUMP JUMPDEST SWAP2 POP POP PUSH2 0x13A8 JUMP JUMPDEST POP DUP2 PUSH1 0x6 PUSH0 CALLER PUSH20 0xFFFFFFFFFFFFFFFFFFFFFFFFFFFFFFFFFFFFFFFF AND PUSH20 0xFFFFFFFFFFFFFFFFFFFFFFFFFFFFFFFFFFFFFFFF AND DUP2 MSTORE PUSH1 0x20 ADD SWAP1 DUP2 MSTORE PUSH1 0x20 ADD PUSH0 KECCAK256 SLOAD LT ISZERO PUSH2 0x151D JUMPI PUSH1 0x40 MLOAD PUSH32 0x8C379A000000000000000000000000000000000000000000000000000000000 DUP2 MSTORE PUSH1 0x4 ADD PUSH2 0x1514 SWAP1 PUSH2 0x46CA JUMP JUMPDEST PUSH1 0x40 MLOAD DUP1 SWAP2 SUB SWAP1 REVERT JUMPDEST PUSH0 PUSH1 0x1 SWAP1 POP JUMPDEST PUSH1 0x1 SLOAD DUP2 GT PUSH2 0x178E JUMPI PUSH0 PUSH1 0x5 PUSH0 CALLER PUSH20 0xFFFFFFFFFFFFFFFFFFFFFFFFFFFFFFFFFFFFFFFF AND PUSH20 0xFFFFFFFFFFFFFFFFFFFFFFFFFFFFFFFFFFFFFFFF AND DUP2 MSTORE PUSH1 0x20 ADD SWAP1 DUP2 MSTORE PUSH1 0x20 ADD PUSH0 KECCAK256 PUSH0 DUP4 DUP2 MSTORE PUSH1 0x20 ADD SWAP1 DUP2 MSTORE PUSH1 0x20 ADD PUSH0 KECCAK256 SWAP1 POP PUSH0 PUSH1 0x2 DUP2 GT ISZERO PUSH2 0x158E JUMPI PUSH2 0x158D PUSH2 0x3E04 JUMP JUMPDEST JUMPDEST DUP2 PUSH1 0x4 ADD PUSH0 SWAP1 SLOAD SWAP1 PUSH2 0x100 EXP SWAP1 DIV PUSH1 0xFF AND PUSH1 0x2 DUP2 GT ISZERO PUSH2 0x15B1 JUMPI PUSH2 0x15B0 PUSH2 0x3E04 JUMP JUMPDEST JUMPDEST EQ DUP1 ISZERO PUSH2 0x15C2 JUMPI POP DUP1 PUSH1 0x3 ADD SLOAD TIMESTAMP LT ISZERO JUMPDEST DUP1 ISZERO PUSH2 0x15DD JUMPI POP DUP1 PUSH1 0x4 ADD PUSH1 0x1 SWAP1 SLOAD SWAP1 PUSH2 0x100 EXP SWAP1 DIV PUSH1 0xFF AND ISZERO JUMPDEST ISZERO PUSH2 0x177A JUMPI DUP1 PUSH1 0x1 ADD PUSH0 SWAP1 SLOAD SWAP1 PUSH2 0x100 EXP SWAP1 DIV PUSH20 0xFFFFFFFFFFFFFFFFFFFFFFFFFFFFFFFFFFFFFFFF AND PUSH20 0xFFFFFFFFFFFFFFFFFFFFFFFFFFFFFFFFFFFFFFFF AND PUSH2 0x8FC DUP3 PUSH1 0x2 ADD SLOAD SWAP1 DUP2 ISZERO MUL SWAP1 PUSH1 0x40 MLOAD PUSH0 PUSH1 0x40 MLOAD DUP1 DUP4 SUB DUP2 DUP6 DUP9 DUP9 CALL SWAP4 POP POP POP POP ISZERO DUP1 ISZERO PUSH2 0x164C JUMPI RETURNDATASIZE PUSH0 DUP1 RETURNDATACOPY RETURNDATASIZE PUSH0 REVERT JUMPDEST POP DUP1 PUSH1 0x2 ADD SLOAD PUSH1 0x6 PUSH0 CALLER PUSH20 0xFFFFFFFFFFFFFFFFFFFFFFFFFFFFFFFFFFFFFFFF AND PUSH20 0xFFFFFFFFFFFFFFFFFFFFFFFFFFFFFFFFFFFFFFFF AND DUP2 MSTORE PUSH1 0x20 ADD SWAP1 DUP2 MSTORE PUSH1 0x20 ADD PUSH0 KECCAK256 PUSH0 DUP3 DUP3 SLOAD PUSH2 0x169D SWAP2 SWAP1 PUSH2 0x477D JUMP JUMPDEST SWAP3 POP POP DUP2 SWAP1 SSTORE POP PUSH1 0x2 DUP2 PUSH1 0x4 ADD PUSH0 PUSH2 0x100 EXP DUP2 SLOAD DUP2 PUSH1 0xFF MUL NOT AND SWAP1 DUP4 PUSH1 0x2 DUP2 GT ISZERO PUSH2 0x16CB JUMPI PUSH2 0x16CA PUSH2 0x3E04 JUMP JUMPDEST JUMPDEST MUL OR SWAP1 SSTORE POP PUSH1 0x1 DUP2 PUSH1 0x4 ADD PUSH1 0x1 PUSH2 0x100 EXP DUP2 SLOAD DUP2 PUSH1 0xFF MUL NOT AND SWAP1 DUP4 ISZERO ISZERO MUL OR SWAP1 SSTORE POP DUP1 PUSH1 0x1 ADD PUSH0 SWAP1 SLOAD SWAP1 PUSH2 0x100 EXP SWAP1 DIV PUSH20 0xFFFFFFFFFFFFFFFFFFFFFFFFFFFFFFFFFFFFFFFF AND PUSH20 0xFFFFFFFFFFFFFFFFFFFFFFFFFFFFFFFFFFFFFFFF AND CALLER PUSH20 0xFFFFFFFFFFFFFFFFFFFFFFFFFFFFFFFFFFFFFFFF AND PUSH32 0x97392C5D33B1386B104AD21E5F27E3AABF036B5403971BF8C046E4C941022454 DUP4 PUSH1 0x2 ADD SLOAD PUSH1 0x40 MLOAD PUSH2 0x1771 SWAP2 SWAP1 PUSH2 0x3DDC JUMP JUMPDEST PUSH1 0x40 MLOAD DUP1 SWAP2 SUB SWAP1 LOG3 JUMPDEST POP DUP1 DUP1 PUSH2 0x1786 SWAP1 PUSH2 0x4818 JUMP JUMPDEST SWAP2 POP POP PUSH2 0x1523 JUMP JUMPDEST POP POP POP JUMP JUMPDEST PUSH1 0x60 PUSH1 0x2 PUSH0 CALLER PUSH20 0xFFFFFFFFFFFFFFFFFFFFFFFFFFFFFFFFFFFFFFFF AND PUSH20 0xFFFFFFFFFFFFFFFFFFFFFFFFFFFFFFFFFFFFFFFF AND DUP2 MSTORE PUSH1 0x20 ADD SWAP1 DUP2 MSTORE PUSH1 0x20 ADD PUSH0 KECCAK256 PUSH0 SWAP1 SLOAD SWAP1 PUSH2 0x100 EXP SWAP1 DIV PUSH1 0xFF AND PUSH2 0x181E JUMPI PUSH1 0x40 MLOAD PUSH32 0x8C379A000000000000000000000000000000000000000000000000000000000 DUP2 MSTORE PUSH1 0x4 ADD PUSH2 0x1815 SWAP1 PUSH2 0x4662 JUMP JUMPDEST PUSH1 0x40 MLOAD DUP1 SWAP2 SUB SWAP1 REVERT JUMPDEST PUSH0 PUSH1 0x1 SLOAD PUSH8 0xFFFFFFFFFFFFFFFF DUP2 GT ISZERO PUSH2 0x183B JUMPI PUSH2 0x183A PUSH2 0x485F JUMP JUMPDEST JUMPDEST PUSH1 0x40 MLOAD SWAP1 DUP1 DUP3 MSTORE DUP1 PUSH1 0x20 MUL PUSH1 0x20 ADD DUP3 ADD PUSH1 0x40 MSTORE DUP1 ISZERO PUSH2 0x1874 JUMPI DUP2 PUSH1 0x20 ADD JUMPDEST PUSH2 0x1861 PUSH2 0x3B01 JUMP JUMPDEST DUP2 MSTORE PUSH1 0x20 ADD SWAP1 PUSH1 0x1 SWAP1 SUB SWAP1 DUP2 PUSH2 0x1859 JUMPI SWAP1 POP JUMPDEST POP SWAP1 POP PUSH0 DUP1 PUSH1 0x1 SWAP1 POP JUMPDEST PUSH1 0x1 SLOAD DUP2 GT PUSH2 0x1A74 JUMPI PUSH1 0x5 PUSH0 CALLER PUSH20 0xFFFFFFFFFFFFFFFFFFFFFFFFFFFFFFFFFFFFFFFF AND PUSH20 0xFFFFFFFFFFFFFFFFFFFFFFFFFFFFFFFFFFFFFFFF AND DUP2 MSTORE PUSH1 0x20 ADD SWAP1 DUP2 MSTORE PUSH1 0x20 ADD PUSH0 KECCAK256 PUSH0 DUP3 DUP2 MSTORE PUSH1 0x20 ADD SWAP1 DUP2 MSTORE PUSH1 0x20 ADD PUSH0 KECCAK256 PUSH1 0x40 MLOAD DUP1 PUSH1 0xE0 ADD PUSH1 0x40 MSTORE SWAP1 DUP2 PUSH0 DUP3 ADD SLOAD DUP2 MSTORE PUSH1 0x20 ADD PUSH1 0x1 DUP3 ADD PUSH0 SWAP1 SLOAD SWAP1 PUSH2 0x100 EXP SWAP1 DIV PUSH20 0xFFFFFFFFFFFFFFFFFFFFFFFFFFFFFFFFFFFFFFFF AND PUSH20 0xFFFFFFFFFFFFFFFFFFFFFFFFFFFFFFFFFFFFFFFF AND PUSH20 0xFFFFFFFFFFFFFFFFFFFFFFFFFFFFFFFFFFFFFFFF AND DUP2 MSTORE PUSH1 0x20 ADD PUSH1 0x2 DUP3 ADD SLOAD DUP2 MSTORE PUSH1 0x20 ADD PUSH1 0x3 DUP3 ADD SLOAD DUP2 MSTORE PUSH1 0x20 ADD PUSH1 0x4 DUP3 ADD PUSH0 SWAP1 SLOAD SWAP1 PUSH2 0x100 EXP SWAP1 DIV PUSH1 0xFF AND PUSH1 0x2 DUP2 GT ISZERO PUSH2 0x1974 JUMPI PUSH2 0x1973 PUSH2 0x3E04 JUMP JUMPDEST JUMPDEST PUSH1 0x2 DUP2 GT ISZERO PUSH2 0x1986 JUMPI PUSH2 0x1985 PUSH2 0x3E04 JUMP JUMPDEST JUMPDEST DUP2 MSTORE PUSH1 0x20 ADD PUSH1 0x4 DUP3 ADD PUSH1 0x1 SWAP1 SLOAD SWAP1 PUSH2 0x100 EXP SWAP1 DIV PUSH1 0xFF AND ISZERO ISZERO ISZERO ISZERO DUP2 MSTORE PUSH1 0x20 ADD PUSH1 0x5 DUP3 ADD DUP1 SLOAD PUSH2 0x19B5 SWAP1 PUSH2 0x48B9 JUMP JUMPDEST DUP1 PUSH1 0x1F ADD PUSH1 0x20 DUP1 SWAP2 DIV MUL PUSH1 0x20 ADD PUSH1 0x40 MLOAD SWAP1 DUP2 ADD PUSH1 0x40 MSTORE DUP1 SWAP3 SWAP2 SWAP1 DUP2 DUP2 MSTORE PUSH1 0x20 ADD DUP3 DUP1 SLOAD PUSH2 0x19E1 SWAP1 PUSH2 0x48B9 JUMP JUMPDEST DUP1 ISZERO PUSH2 0x1A2C JUMPI DUP1 PUSH1 0x1F LT PUSH2 0x1A03 JUMPI PUSH2 0x100 DUP1 DUP4 SLOAD DIV MUL DUP4 MSTORE SWAP2 PUSH1 0x20 ADD SWAP2 PUSH2 0x1A2C JUMP JUMPDEST DUP3 ADD SWAP2 SWAP1 PUSH0 MSTORE PUSH1 0x20 PUSH0 KECCAK256 SWAP1 JUMPDEST DUP2 SLOAD DUP2 MSTORE SWAP1 PUSH1 0x1 ADD SWAP1 PUSH1 0x20 ADD DUP1 DUP4 GT PUSH2 0x1A0F JUMPI DUP3 SWAP1 SUB PUSH1 0x1F AND DUP3 ADD SWAP2 JUMPDEST POP POP POP POP POP DUP2 MSTORE POP POP DUP4 DUP4 DUP2 MLOAD DUP2 LT PUSH2 0x1A48 JUMPI PUSH2 0x1A47 PUSH2 0x4C7F JUMP JUMPDEST JUMPDEST PUSH1 0x20 MUL PUSH1 0x20 ADD ADD DUP2 SWAP1 MSTORE POP DUP2 DUP1 PUSH2 0x1A5E SWAP1 PUSH2 0x4818 JUMP JUMPDEST SWAP3 POP POP DUP1 DUP1 PUSH2 0x1A6C SWAP1 PUSH2 0x4818 JUMP JUMPDEST SWAP2 POP POP PUSH2 0x187E JUMP JUMPDEST POP DUP2 SWAP3 POP POP POP SWAP1 JUMP JUMPDEST PUSH1 0x2 PUSH0 CALLER PUSH20 0xFFFFFFFFFFFFFFFFFFFFFFFFFFFFFFFFFFFFFFFF AND PUSH20 0xFFFFFFFFFFFFFFFFFFFFFFFFFFFFFFFFFFFFFFFF AND DUP2 MSTORE PUSH1 0x20 ADD SWAP1 DUP2 MSTORE PUSH1 0x20 ADD PUSH0 KECCAK256 PUSH0 SWAP1 SLOAD SWAP1 PUSH2 0x100 EXP SWAP1 DIV PUSH1 0xFF AND PUSH2 0x1B06 JUMPI PUSH1 0x40 MLOAD PUSH32 0x8C379A000000000000000000000000000000000000000000000000000000000 DUP2 MSTORE PUSH1 0x4 ADD PUSH2 0x1AFD SWAP1 PUSH2 0x4662 JUMP JUMPDEST PUSH1 0x40 MLOAD DUP1 SWAP2 SUB SWAP1 REVERT JUMPDEST PUSH0 PUSH1 0x7 PUSH0 CALLER PUSH20 0xFFFFFFFFFFFFFFFFFFFFFFFFFFFFFFFFFFFFFFFF AND PUSH20 0xFFFFFFFFFFFFFFFFFFFFFFFFFFFFFFFFFFFFFFFF AND DUP2 MSTORE PUSH1 0x20 ADD SWAP1 DUP2 MSTORE PUSH1 0x20 ADD PUSH0 KECCAK256 DUP1 SLOAD DUP1 PUSH1 0x20 MUL PUSH1 0x20 ADD PUSH1 0x40 MLOAD SWAP1 DUP2 ADD PUSH1 0x40 MSTORE DUP1 SWAP3 SWAP2 SWAP1 DUP2 DUP2 MSTORE PUSH1 0x20 ADD DUP3 DUP1 SLOAD DUP1 ISZERO PUSH2 0x1BC1 JUMPI PUSH1 0x20 MUL DUP3 ADD SWAP2 SWAP1 PUSH0 MSTORE PUSH1 0x20 PUSH0 KECCAK256 SWAP1 JUMPDEST DUP2 PUSH0 SWAP1 SLOAD SWAP1 PUSH2 0x100 EXP SWAP1 DIV PUSH20 0xFFFFFFFFFFFFFFFFFFFFFFFFFFFFFFFFFFFFFFFF AND PUSH20 0xFFFFFFFFFFFFFFFFFFFFFFFFFFFFFFFFFFFFFFFF AND DUP2 MSTORE PUSH1 0x20 ADD SWAP1 PUSH1 0x1 ADD SWAP1 DUP1 DUP4 GT PUSH2 0x1B78 JUMPI JUMPDEST POP POP POP POP POP SWAP1 POP PUSH0 JUMPDEST DUP2 MLOAD DUP2 LT ISZERO PUSH2 0x1E4B JUMPI PUSH0 PUSH2 0x1BF8 CALLER DUP5 DUP5 DUP2 MLOAD DUP2 LT PUSH2 0x1BEB JUMPI PUSH2 0x1BEA PUSH2 0x4C7F JUMP JUMPDEST JUMPDEST PUSH1 0x20 MUL PUSH1 0x20 ADD ADD MLOAD PUSH2 0x357E JUMP JUMPDEST SWAP1 POP PUSH1 0x1 PUSH0 DUP2 SLOAD DUP1 SWAP3 SWAP2 SWAP1 PUSH2 0x1C0C SWAP1 PUSH2 0x4818 JUMP JUMPDEST SWAP2 SWAP1 POP SSTORE POP PUSH1 0x40 MLOAD DUP1 PUSH1 0xE0 ADD PUSH1 0x40 MSTORE DUP1 PUSH1 0x1 SLOAD DUP2 MSTORE PUSH1 0x20 ADD DUP5 DUP5 DUP2 MLOAD DUP2 LT PUSH2 0x1C37 JUMPI PUSH2 0x1C36 PUSH2 0x4C7F JUMP JUMPDEST JUMPDEST PUSH1 0x20 MUL PUSH1 0x20 ADD ADD MLOAD PUSH20 0xFFFFFFFFFFFFFFFFFFFFFFFFFFFFFFFFFFFFFFFF AND DUP2 MSTORE PUSH1 0x20 ADD DUP3 DUP2 MSTORE PUSH1 0x20 ADD DUP6 DUP2 MSTORE PUSH1 0x20 ADD PUSH0 PUSH1 0x2 DUP2 GT ISZERO PUSH2 0x1C79 JUMPI PUSH2 0x1C78 PUSH2 0x3E04 JUMP JUMPDEST JUMPDEST DUP2 MSTORE PUSH1 0x20 ADD PUSH0 ISZERO ISZERO DUP2 MSTORE PUSH1 0x20 ADD PUSH1 0x40 MLOAD DUP1 PUSH1 0x60 ADD PUSH1 0x40 MSTORE DUP1 PUSH1 0x21 DUP2 MSTORE PUSH1 0x20 ADD PUSH2 0x4F4D PUSH1 0x21 SWAP2 CODECOPY DUP2 MSTORE POP PUSH1 0x5 PUSH0 CALLER PUSH20 0xFFFFFFFFFFFFFFFFFFFFFFFFFFFFFFFFFFFFFFFF AND PUSH20 0xFFFFFFFFFFFFFFFFFFFFFFFFFFFFFFFFFFFFFFFF AND DUP2 MSTORE PUSH1 0x20 ADD SWAP1 DUP2 MSTORE PUSH1 0x20 ADD PUSH0 KECCAK256 PUSH0 PUSH1 0x1 SLOAD DUP2 MSTORE PUSH1 0x20 ADD SWAP1 DUP2 MSTORE PUSH1 0x20 ADD PUSH0 KECCAK256 PUSH0 DUP3 ADD MLOAD DUP2 PUSH0 ADD SSTORE PUSH1 0x20 DUP3 ADD MLOAD DUP2 PUSH1 0x1 ADD PUSH0 PUSH2 0x100 EXP DUP2 SLOAD DUP2 PUSH20 0xFFFFFFFFFFFFFFFFFFFFFFFFFFFFFFFFFFFFFFFF MUL NOT AND SWAP1 DUP4 PUSH20 0xFFFFFFFFFFFFFFFFFFFFFFFFFFFFFFFFFFFFFFFF AND MUL OR SWAP1 SSTORE POP PUSH1 0x40 DUP3 ADD MLOAD DUP2 PUSH1 0x2 ADD SSTORE PUSH1 0x60 DUP3 ADD MLOAD DUP2 PUSH1 0x3 ADD SSTORE PUSH1 0x80 DUP3 ADD MLOAD DUP2 PUSH1 0x4 ADD PUSH0 PUSH2 0x100 EXP DUP2 SLOAD DUP2 PUSH1 0xFF MUL NOT AND SWAP1 DUP4 PUSH1 0x2 DUP2 GT ISZERO PUSH2 0x1D7C JUMPI PUSH2 0x1D7B PUSH2 0x3E04 JUMP JUMPDEST JUMPDEST MUL OR SWAP1 SSTORE POP PUSH1 0xA0 DUP3 ADD MLOAD DUP2 PUSH1 0x4 ADD PUSH1 0x1 PUSH2 0x100 EXP DUP2 SLOAD DUP2 PUSH1 0xFF MUL NOT AND SWAP1 DUP4 ISZERO ISZERO MUL OR SWAP1 SSTORE POP PUSH1 0xC0 DUP3 ADD MLOAD DUP2 PUSH1 0x5 ADD SWAP1 DUP2 PUSH2 0x1DB6 SWAP2 SWAP1 PUSH2 0x4A86 JUMP JUMPDEST POP SWAP1 POP POP DUP3 DUP3 DUP2 MLOAD DUP2 LT PUSH2 0x1DCD JUMPI PUSH2 0x1DCC PUSH2 0x4C7F JUMP JUMPDEST JUMPDEST PUSH1 0x20 MUL PUSH1 0x20 ADD ADD MLOAD PUSH20 0xFFFFFFFFFFFFFFFFFFFFFFFFFFFFFFFFFFFFFFFF AND CALLER PUSH20 0xFFFFFFFFFFFFFFFFFFFFFFFFFFFFFFFFFFFFFFFF AND PUSH32 0x1B1D2B58E28C6D8522850C924145F2165ECFD5D6CBC3A168321BE4387E642AF8 DUP7 PUSH1 0x1 SLOAD PUSH1 0x40 MLOAD PUSH2 0x1E35 SWAP3 SWAP2 SWAP1 PUSH2 0x4B55 JUMP JUMPDEST PUSH1 0x40 MLOAD DUP1 SWAP2 SUB SWAP1 LOG3 POP DUP1 DUP1 PUSH1 0x1 ADD SWAP2 POP POP PUSH2 0x1BCA JUMP JUMPDEST POP POP POP JUMP JUMPDEST PUSH1 0x60 PUSH1 0x7 PUSH0 DUP4 PUSH20 0xFFFFFFFFFFFFFFFFFFFFFFFFFFFFFFFFFFFFFFFF AND PUSH20 0xFFFFFFFFFFFFFFFFFFFFFFFFFFFFFFFFFFFFFFFF AND DUP2 MSTORE PUSH1 0x20 ADD SWAP1 DUP2 MSTORE PUSH1 0x20 ADD PUSH0 KECCAK256 DUP1 SLOAD DUP1 PUSH1 0x20 MUL PUSH1 0x20 ADD PUSH1 0x40 MLOAD SWAP1 DUP2 ADD PUSH1 0x40 MSTORE DUP1 SWAP3 SWAP2 SWAP1 DUP2 DUP2 MSTORE PUSH1 0x20 ADD DUP3 DUP1 SLOAD DUP1 ISZERO PUSH2 0x1F0C JUMPI PUSH1 0x20 MUL DUP3 ADD SWAP2 SWAP1 PUSH0 MSTORE PUSH1 0x20 PUSH0 KECCAK256 SWAP1 JUMPDEST DUP2 PUSH0 SWAP1 SLOAD SWAP1 PUSH2 0x100 EXP SWAP1 DIV PUSH20 0xFFFFFFFFFFFFFFFFFFFFFFFFFFFFFFFFFFFFFFFF AND PUSH20 0xFFFFFFFFFFFFFFFFFFFFFFFFFFFFFFFFFFFFFFFF AND DUP2 MSTORE PUSH1 0x20 ADD SWAP1 PUSH1 0x1 ADD SWAP1 DUP1 DUP4 GT PUSH2 0x1EC3 JUMPI JUMPDEST POP POP POP POP POP SWAP1 POP SWAP2 SWAP1 POP JUMP JUMPDEST PUSH1 0x2 PUSH0 CALLER PUSH20 0xFFFFFFFFFFFFFFFFFFFFFFFFFFFFFFFFFFFFFFFF AND PUSH20 0xFFFFFFFFFFFFFFFFFFFFFFFFFFFFFFFFFFFFFFFF AND DUP2 MSTORE PUSH1 0x20 ADD SWAP1 DUP2 MSTORE PUSH1 0x20 ADD PUSH0 KECCAK256 PUSH0 SWAP1 SLOAD SWAP1 PUSH2 0x100 EXP SWAP1 DIV PUSH1 0xFF AND PUSH2 0x1FA1 JUMPI PUSH1 0x40 MLOAD PUSH32 0x8C379A000000000000000000000000000000000000000000000000000000000 DUP2 MSTORE PUSH1 0x4 ADD PUSH2 0x1F98 SWAP1 PUSH2 0x4662 JUMP JUMPDEST PUSH1 0x40 MLOAD DUP1 SWAP2 SUB SWAP1 REVERT JUMPDEST DUP1 PUSH0 PUSH1 0x2 DUP2 GT ISZERO PUSH2 0x1FB5 JUMPI PUSH2 0x1FB4 PUSH2 0x3E04 JUMP JUMPDEST JUMPDEST PUSH1 0x5 PUSH0 CALLER PUSH20 0xFFFFFFFFFFFFFFFFFFFFFFFFFFFFFFFFFFFFFFFF AND PUSH20 0xFFFFFFFFFFFFFFFFFFFFFFFFFFFFFFFFFFFFFFFF AND DUP2 MSTORE PUSH1 0x20 ADD SWAP1 DUP2 MSTORE PUSH1 0x20 ADD PUSH0 KECCAK256 PUSH0 DUP4 DUP2 MSTORE PUSH1 0x20 ADD SWAP1 DUP2 MSTORE PUSH1 0x20 ADD PUSH0 KECCAK256 PUSH1 0x4 ADD PUSH0 SWAP1 SLOAD SWAP1 PUSH2 0x100 EXP SWAP1 DIV PUSH1 0xFF AND PUSH1 0x2 DUP2 GT ISZERO PUSH2 0x2023 JUMPI PUSH2 0x2022 PUSH2 0x3E04 JUMP JUMPDEST JUMPDEST EQ PUSH2 0x2063 JUMPI PUSH1 0x40 MLOAD PUSH32 0x8C379A000000000000000000000000000000000000000000000000000000000 DUP2 MSTORE PUSH1 0x4 ADD PUSH2 0x205A SWAP1 PUSH2 0x4CF6 JUMP JUMPDEST PUSH1 0x40 MLOAD DUP1 SWAP2 SUB SWAP1 REVERT JUMPDEST PUSH0 PUSH1 0x5 PUSH0 CALLER PUSH20 0xFFFFFFFFFFFFFFFFFFFFFFFFFFFFFFFFFFFFFFFF AND PUSH20 0xFFFFFFFFFFFFFFFFFFFFFFFFFFFFFFFFFFFFFFFF AND DUP2 MSTORE PUSH1 0x20 ADD SWAP1 DUP2 MSTORE PUSH1 0x20 ADD PUSH0 KECCAK256 PUSH0 DUP5 DUP2 MSTORE PUSH1 0x20 ADD SWAP1 DUP2 MSTORE PUSH1 0x20 ADD PUSH0 KECCAK256 SWAP1 POP DUP1 PUSH1 0x3 ADD SLOAD TIMESTAMP LT ISZERO PUSH2 0x20F9 JUMPI PUSH1 0x40 MLOAD PUSH32 0x8C379A000000000000000000000000000000000000000000000000000000000 DUP2 MSTORE PUSH1 0x4 ADD PUSH2 0x20F0 SWAP1 PUSH2 0x4D5E JUMP JUMPDEST PUSH1 0x40 MLOAD DUP1 SWAP2 SUB SWAP1 REVERT JUMPDEST DUP1 PUSH1 0x4 ADD PUSH1 0x1 SWAP1 SLOAD SWAP1 PUSH2 0x100 EXP SWAP1 DIV PUSH1 0xFF AND ISZERO PUSH2 0x214B JUMPI PUSH1 0x40 MLOAD PUSH32 0x8C379A000000000000000000000000000000000000000000000000000000000 DUP2 MSTORE PUSH1 0x4 ADD PUSH2 0x2142 SWAP1 PUSH2 0x4DC6 JUMP JUMPDEST PUSH1 0x40 MLOAD DUP1 SWAP2 SUB SWAP1 REVERT JUMPDEST DUP1 PUSH1 0x2 ADD SLOAD PUSH1 0x6 PUSH0 CALLER PUSH20 0xFFFFFFFFFFFFFFFFFFFFFFFFFFFFFFFFFFFFFFFF AND PUSH20 0xFFFFFFFFFFFFFFFFFFFFFFFFFFFFFFFFFFFFFFFF AND DUP2 MSTORE PUSH1 0x20 ADD SWAP1 DUP2 MSTORE PUSH1 0x20 ADD PUSH0 KECCAK256 SLOAD LT ISZERO PUSH2 0x21CF JUMPI PUSH1 0x40 MLOAD PUSH32 0x8C379A000000000000000000000000000000000000000000000000000000000 DUP2 MSTORE PUSH1 0x4 ADD PUSH2 0x21C6 SWAP1 PUSH2 0x46CA JUMP JUMPDEST PUSH1 0x40 MLOAD DUP1 SWAP2 SUB SWAP1 REVERT JUMPDEST DUP1 PUSH1 0x1 ADD PUSH0 SWAP1 SLOAD SWAP1 PUSH2 0x100 EXP SWAP1 DIV PUSH20 0xFFFFFFFFFFFFFFFFFFFFFFFFFFFFFFFFFFFFFFFF AND PUSH20 0xFFFFFFFFFFFFFFFFFFFFFFFFFFFFFFFFFFFFFFFF AND PUSH2 0x8FC DUP3 PUSH1 0x2 ADD SLOAD SWAP1 DUP2 ISZERO MUL SWAP1 PUSH1 0x40 MLOAD PUSH0 PUSH1 0x40 MLOAD DUP1 DUP4 SUB DUP2 DUP6 DUP9 DUP9 CALL SWAP4 POP POP POP POP ISZERO DUP1 ISZERO PUSH2 0x2239 JUMPI RETURNDATASIZE PUSH0 DUP1 RETURNDATACOPY RETURNDATASIZE PUSH0 REVERT JUMPDEST POP DUP1 PUSH1 0x2 ADD SLOAD PUSH1 0x6 PUSH0 CALLER PUSH20 0xFFFFFFFFFFFFFFFFFFFFFFFFFFFFFFFFFFFFFFFF AND PUSH20 0xFFFFFFFFFFFFFFFFFFFFFFFFFFFFFFFFFFFFFFFF AND DUP2 MSTORE PUSH1 0x20 ADD SWAP1 DUP2 MSTORE PUSH1 0x20 ADD PUSH0 KECCAK256 PUSH0 DUP3 DUP3 SLOAD PUSH2 0x228A SWAP2 SWAP1 PUSH2 0x477D JUMP JUMPDEST SWAP3 POP POP DUP2 SWAP1 SSTORE POP PUSH1 0x2 DUP2 PUSH1 0x4 ADD PUSH0 PUSH2 0x100 EXP DUP2 SLOAD DUP2 PUSH1 0xFF MUL NOT AND SWAP1 DUP4 PUSH1 0x2 DUP2 GT ISZERO PUSH2 0x22B8 JUMPI PUSH2 0x22B7 PUSH2 0x3E04 JUMP JUMPDEST JUMPDEST MUL OR SWAP1 SSTORE POP PUSH1 0x1 DUP2 PUSH1 0x4 ADD PUSH1 0x1 PUSH2 0x100 EXP DUP2 SLOAD DUP2 PUSH1 0xFF MUL NOT AND SWAP1 DUP4 ISZERO ISZERO MUL OR SWAP1 SSTORE POP DUP1 PUSH1 0x1 ADD PUSH0 SWAP1 SLOAD SWAP1 PUSH2 0x100 EXP SWAP1 DIV PUSH20 0xFFFFFFFFFFFFFFFFFFFFFFFFFFFFFFFFFFFFFFFF AND PUSH20 0xFFFFFFFFFFFFFFFFFFFFFFFFFFFFFFFFFFFFFFFF AND CALLER PUSH20 0xFFFFFFFFFFFFFFFFFFFFFFFFFFFFFFFFFFFFFFFF AND PUSH32 0x97392C5D33B1386B104AD21E5F27E3AABF036B5403971BF8C046E4C941022454 DUP4 PUSH1 0x2 ADD SLOAD PUSH1 0x40 MLOAD PUSH2 0x235E SWAP2 SWAP1 PUSH2 0x3DDC JUMP JUMPDEST PUSH1 0x40 MLOAD DUP1 SWAP2 SUB SWAP1 LOG3 POP POP POP JUMP JUMPDEST PUSH1 0x2 PUSH0 CALLER PUSH20 0xFFFFFFFFFFFFFFFFFFFFFFFFFFFFFFFFFFFFFFFF AND PUSH20 0xFFFFFFFFFFFFFFFFFFFFFFFFFFFFFFFFFFFFFFFF AND DUP2 MSTORE PUSH1 0x20 ADD SWAP1 DUP2 MSTORE PUSH1 0x20 ADD PUSH0 KECCAK256 PUSH0 SWAP1 SLOAD SWAP1 PUSH2 0x100 EXP SWAP1 DIV PUSH1 0xFF AND PUSH2 0x23F4 JUMPI PUSH1 0x40 MLOAD PUSH32 0x8C379A000000000000000000000000000000000000000000000000000000000 DUP2 MSTORE PUSH1 0x4 ADD PUSH2 0x23EB SWAP1 PUSH2 0x4662 JUMP JUMPDEST PUSH1 0x40 MLOAD DUP1 SWAP2 SUB SWAP1 REVERT JUMPDEST PUSH1 0x4 PUSH0 CALLER PUSH20 0xFFFFFFFFFFFFFFFFFFFFFFFFFFFFFFFFFFFFFFFF AND PUSH20 0xFFFFFFFFFFFFFFFFFFFFFFFFFFFFFFFFFFFFFFFF AND DUP2 MSTORE PUSH1 0x20 ADD SWAP1 DUP2 MSTORE PUSH1 0x20 ADD PUSH0 KECCAK256 PUSH0 DUP3 PUSH20 0xFFFFFFFFFFFFFFFFFFFFFFFFFFFFFFFFFFFFFFFF AND PUSH20 0xFFFFFFFFFFFFFFFFFFFFFFFFFFFFFFFFFFFFFFFF AND DUP2 MSTORE PUSH1 0x20 ADD SWAP1 DUP2 MSTORE PUSH1 0x20 ADD PUSH0 KECCAK256 PUSH0 SWAP1 SLOAD SWAP1 PUSH2 0x100 EXP SWAP1 DIV PUSH1 0xFF AND PUSH2 0x24B8 JUMPI PUSH1 0x40 MLOAD PUSH32 0x8C379A000000000000000000000000000000000000000000000000000000000 DUP2 MSTORE PUSH1 0x4 ADD PUSH2 0x24AF SWAP1 PUSH2 0x47FA JUMP JUMPDEST PUSH1 0x40 MLOAD DUP1 SWAP2 SUB SWAP1 REVERT JUMPDEST PUSH1 0x3 PUSH0 CALLER PUSH20 0xFFFFFFFFFFFFFFFFFFFFFFFFFFFFFFFFFFFFFFFF AND PUSH20 0xFFFFFFFFFFFFFFFFFFFFFFFFFFFFFFFFFFFFFFFF AND DUP2 MSTORE PUSH1 0x20 ADD SWAP1 DUP2 MSTORE PUSH1 0x20 ADD PUSH0 KECCAK256 PUSH0 DUP3 PUSH20 0xFFFFFFFFFFFFFFFFFFFFFFFFFFFFFFFFFFFFFFFF AND PUSH20 0xFFFFFFFFFFFFFFFFFFFFFFFFFFFFFFFFFFFFFFFF AND DUP2 MSTORE PUSH1 0x20 ADD SWAP1 DUP2 MSTORE PUSH1 0x20 ADD PUSH0 KECCAK256 PUSH0 DUP1 DUP3 ADD PUSH0 PUSH2 0x100 EXP DUP2 SLOAD SWAP1 PUSH1 0xFF MUL NOT AND SWAP1 SSTORE PUSH1 0x1 DUP3 ADD PUSH0 SWAP1 SSTORE PUSH1 0x2 DUP3 ADD PUSH0 SWAP1 SSTORE PUSH1 0x3 DUP3 ADD PUSH0 SWAP1 SSTORE PUSH1 0x4 DUP3 ADD PUSH0 SWAP1 SSTORE PUSH1 0x5 DUP3 ADD PUSH0 SWAP1 SSTORE PUSH1 0x6 DUP3 ADD PUSH0 SWAP1 SSTORE POP POP PUSH0 PUSH1 0x4 PUSH0 CALLER PUSH20 0xFFFFFFFFFFFFFFFFFFFFFFFFFFFFFFFFFFFFFFFF AND PUSH20 0xFFFFFFFFFFFFFFFFFFFFFFFFFFFFFFFFFFFFFFFF AND DUP2 MSTORE PUSH1 0x20 ADD SWAP1 DUP2 MSTORE PUSH1 0x20 ADD PUSH0 KECCAK256 PUSH0 DUP4 PUSH20 0xFFFFFFFFFFFFFFFFFFFFFFFFFFFFFFFFFFFFFFFF AND PUSH20 0xFFFFFFFFFFFFFFFFFFFFFFFFFFFFFFFFFFFFFFFF AND DUP2 MSTORE PUSH1 0x20 ADD SWAP1 DUP2 MSTORE PUSH1 0x20 ADD PUSH0 KECCAK256 PUSH0 PUSH2 0x100 EXP DUP2 SLOAD DUP2 PUSH1 0xFF MUL NOT AND SWAP1 DUP4 ISZERO ISZERO MUL OR SWAP1 SSTORE POP PUSH0 PUSH1 0x7 PUSH0 CALLER PUSH20 0xFFFFFFFFFFFFFFFFFFFFFFFFFFFFFFFFFFFFFFFF AND PUSH20 0xFFFFFFFFFFFFFFFFFFFFFFFFFFFFFFFFFFFFFFFF AND DUP2 MSTORE PUSH1 0x20 ADD SWAP1 DUP2 MSTORE PUSH1 0x20 ADD PUSH0 KECCAK256 SWAP1 POP PUSH0 JUMPDEST DUP2 DUP1 SLOAD SWAP1 POP DUP2 LT ISZERO PUSH2 0x27B1 JUMPI DUP3 PUSH20 0xFFFFFFFFFFFFFFFFFFFFFFFFFFFFFFFFFFFFFFFF AND DUP3 DUP3 DUP2 SLOAD DUP2 LT PUSH2 0x2676 JUMPI PUSH2 0x2675 PUSH2 0x4C7F JUMP JUMPDEST JUMPDEST SWAP1 PUSH0 MSTORE PUSH1 0x20 PUSH0 KECCAK256 ADD PUSH0 SWAP1 SLOAD SWAP1 PUSH2 0x100 EXP SWAP1 DIV PUSH20 0xFFFFFFFFFFFFFFFFFFFFFFFFFFFFFFFFFFFFFFFF AND PUSH20 0xFFFFFFFFFFFFFFFFFFFFFFFFFFFFFFFFFFFFFFFF AND SUB PUSH2 0x27A4 JUMPI DUP2 PUSH1 0x1 DUP4 DUP1 SLOAD SWAP1 POP PUSH2 0x26CB SWAP2 SWAP1 PUSH2 0x477D JUMP JUMPDEST DUP2 SLOAD DUP2 LT PUSH2 0x26DC JUMPI PUSH2 0x26DB PUSH2 0x4C7F JUMP JUMPDEST JUMPDEST SWAP1 PUSH0 MSTORE PUSH1 0x20 PUSH0 KECCAK256 ADD PUSH0 SWAP1 SLOAD SWAP1 PUSH2 0x100 EXP SWAP1 DIV PUSH20 0xFFFFFFFFFFFFFFFFFFFFFFFFFFFFFFFFFFFFFFFF AND DUP3 DUP3 DUP2 SLOAD DUP2 LT PUSH2 0x2717 JUMPI PUSH2 0x2716 PUSH2 0x4C7F JUMP JUMPDEST JUMPDEST SWAP1 PUSH0 MSTORE PUSH1 0x20 PUSH0 KECCAK256 ADD PUSH0 PUSH2 0x100 EXP DUP2 SLOAD DUP2 PUSH20 0xFFFFFFFFFFFFFFFFFFFFFFFFFFFFFFFFFFFFFFFF MUL NOT AND SWAP1 DUP4 PUSH20 0xFFFFFFFFFFFFFFFFFFFFFFFFFFFFFFFFFFFFFFFF AND MUL OR SWAP1 SSTORE POP DUP2 DUP1 SLOAD DUP1 PUSH2 0x276D JUMPI PUSH2 0x276C PUSH2 0x4DE4 JUMP JUMPDEST JUMPDEST PUSH1 0x1 SWAP1 SUB DUP2 DUP2 SWAP1 PUSH0 MSTORE PUSH1 0x20 PUSH0 KECCAK256 ADD PUSH0 PUSH2 0x100 EXP DUP2 SLOAD SWAP1 PUSH20 0xFFFFFFFFFFFFFFFFFFFFFFFFFFFFFFFFFFFFFFFF MUL NOT AND SWAP1 SSTORE SWAP1 SSTORE PUSH2 0x27B1 JUMP JUMPDEST DUP1 DUP1 PUSH1 0x1 ADD SWAP2 POP POP PUSH2 0x2640 JUMP JUMPDEST POP POP POP JUMP JUMPDEST PUSH1 0x1 SLOAD DUP2 JUMP JUMPDEST PUSH1 0x2 PUSH0 CALLER PUSH20 0xFFFFFFFFFFFFFFFFFFFFFFFFFFFFFFFFFFFFFFFF AND PUSH20 0xFFFFFFFFFFFFFFFFFFFFFFFFFFFFFFFFFFFFFFFF AND DUP2 MSTORE PUSH1 0x20 ADD SWAP1 DUP2 MSTORE PUSH1 0x20 ADD PUSH0 KECCAK256 PUSH0 SWAP1 SLOAD SWAP1 PUSH2 0x100 EXP SWAP1 DIV PUSH1 0xFF AND PUSH2 0x2845 JUMPI PUSH1 0x40 MLOAD PUSH32 0x8C379A000000000000000000000000000000000000000000000000000000000 DUP2 MSTORE PUSH1 0x4 ADD PUSH2 0x283C SWAP1 PUSH2 0x4662 JUMP JUMPDEST PUSH1 0x40 MLOAD DUP1 SWAP2 SUB SWAP1 REVERT JUMPDEST DUP3 PUSH0 PUSH1 0x2 DUP2 GT ISZERO PUSH2 0x2859 JUMPI PUSH2 0x2858 PUSH2 0x3E04 JUMP JUMPDEST JUMPDEST PUSH1 0x5 PUSH0 CALLER PUSH20 0xFFFFFFFFFFFFFFFFFFFFFFFFFFFFFFFFFFFFFFFF AND PUSH20 0xFFFFFFFFFFFFFFFFFFFFFFFFFFFFFFFFFFFFFFFF AND DUP2 MSTORE PUSH1 0x20 ADD SWAP1 DUP2 MSTORE PUSH1 0x20 ADD PUSH0 KECCAK256 PUSH0 DUP4 DUP2 MSTORE PUSH1 0x20 ADD SWAP1 DUP2 MSTORE PUSH1 0x20 ADD PUSH0 KECCAK256 PUSH1 0x4 ADD PUSH0 SWAP1 SLOAD SWAP1 PUSH2 0x100 EXP SWAP1 DIV PUSH1 0xFF AND PUSH1 0x2 DUP2 GT ISZERO PUSH2 0x28C7 JUMPI PUSH2 0x28C6 PUSH2 0x3E04 JUMP JUMPDEST JUMPDEST EQ PUSH2 0x2907 JUMPI PUSH1 0x40 MLOAD PUSH32 0x8C379A000000000000000000000000000000000000000000000000000000000 DUP2 MSTORE PUSH1 0x4 ADD PUSH2 0x28FE SWAP1 PUSH2 0x4CF6 JUMP JUMPDEST PUSH1 0x40 MLOAD DUP1 SWAP2 SUB SWAP1 REVERT JUMPDEST PUSH0 PUSH1 0x5 PUSH0 CALLER PUSH20 0xFFFFFFFFFFFFFFFFFFFFFFFFFFFFFFFFFFFFFFFF AND PUSH20 0xFFFFFFFFFFFFFFFFFFFFFFFFFFFFFFFFFFFFFFFF AND DUP2 MSTORE PUSH1 0x20 ADD SWAP1 DUP2 MSTORE PUSH1 0x20 ADD PUSH0 KECCAK256 PUSH0 DUP7 DUP2 MSTORE PUSH1 0x20 ADD SWAP1 DUP2 MSTORE PUSH1 0x20 ADD PUSH0 KECCAK256 SWAP1 POP DUP4 DUP2 PUSH1 0x2 ADD DUP2 SWAP1 SSTORE POP DUP3 DUP2 PUSH1 0x3 ADD DUP2 SWAP1 SSTORE POP DUP1 PUSH1 0x1 ADD PUSH0 SWAP1 SLOAD SWAP1 PUSH2 0x100 EXP SWAP1 DIV PUSH20 0xFFFFFFFFFFFFFFFFFFFFFFFFFFFFFFFFFFFFFFFF AND PUSH20 0xFFFFFFFFFFFFFFFFFFFFFFFFFFFFFFFFFFFFFFFF AND CALLER PUSH20 0xFFFFFFFFFFFFFFFFFFFFFFFFFFFFFFFFFFFFFFFF AND PUSH32 0xD2659EFB5686FCF002FC4F1A73FC641F617D6EE62AD6E4D3CE22C8F2A0C228B9 DUP8 DUP8 DUP8 PUSH1 0x40 MLOAD PUSH2 0x29EC SWAP4 SWAP3 SWAP2 SWAP1 PUSH2 0x4E11 JUMP JUMPDEST PUSH1 0x40 MLOAD DUP1 SWAP2 SUB SWAP1 LOG3 POP POP POP POP POP JUMP JUMPDEST PUSH1 0x7 PUSH1 0x20 MSTORE DUP2 PUSH0 MSTORE PUSH1 0x40 PUSH0 KECCAK256 DUP2 DUP2 SLOAD DUP2 LT PUSH2 0x2A14 JUMPI PUSH0 DUP1 REVERT JUMPDEST SWAP1 PUSH0 MSTORE PUSH1 0x20 PUSH0 KECCAK256 ADD PUSH0 SWAP2 POP SWAP2 POP SWAP1 SLOAD SWAP1 PUSH2 0x100 EXP SWAP1 DIV PUSH20 0xFFFFFFFFFFFFFFFFFFFFFFFFFFFFFFFFFFFFFFFF AND DUP2 JUMP JUMPDEST PUSH1 0x60 DUP1 PUSH1 0x60 DUP1 PUSH1 0x2 PUSH0 CALLER PUSH20 0xFFFFFFFFFFFFFFFFFFFFFFFFFFFFFFFFFFFFFFFF AND PUSH20 0xFFFFFFFFFFFFFFFFFFFFFFFFFFFFFFFFFFFFFFFF AND DUP2 MSTORE PUSH1 0x20 ADD SWAP1 DUP2 MSTORE PUSH1 0x20 ADD PUSH0 KECCAK256 PUSH0 SWAP1 SLOAD SWAP1 PUSH2 0x100 EXP SWAP1 DIV PUSH1 0xFF AND PUSH2 0x2AD2 JUMPI PUSH1 0x40 MLOAD PUSH32 0x8C379A000000000000000000000000000000000000000000000000000000000 DUP2 MSTORE PUSH1 0x4 ADD PUSH2 0x2AC9 SWAP1 PUSH2 0x4662 JUMP JUMPDEST PUSH1 0x40 MLOAD DUP1 SWAP2 SUB SWAP1 REVERT JUMPDEST PUSH2 0x2ADC PUSH1 0x1 PUSH2 0x375F JUMP JUMPDEST SWAP4 POP SWAP4 POP SWAP4 POP SWAP4 POP SWAP1 SWAP2 SWAP3 SWAP4 JUMP JUMPDEST PUSH0 DUP1 SLOAD SWAP1 PUSH2 0x100 EXP SWAP1 DIV PUSH20 0xFFFFFFFFFFFFFFFFFFFFFFFFFFFFFFFFFFFFFFFF AND DUP2 JUMP JUMPDEST PUSH1 0x4 PUSH1 0x20 MSTORE DUP2 PUSH0 MSTORE PUSH1 0x40 PUSH0 KECCAK256 PUSH1 0x20 MSTORE DUP1 PUSH0 MSTORE PUSH1 0x40 PUSH0 KECCAK256 PUSH0 SWAP2 POP SWAP2 POP SWAP1 SLOAD SWAP1 PUSH2 0x100 EXP SWAP1 DIV PUSH1 0xFF AND DUP2 JUMP JUMPDEST PUSH1 0x2 PUSH0 CALLER PUSH20 0xFFFFFFFFFFFFFFFFFFFFFFFFFFFFFFFFFFFFFFFF AND PUSH20 0xFFFFFFFFFFFFFFFFFFFFFFFFFFFFFFFFFFFFFFFF AND DUP2 MSTORE PUSH1 0x20 ADD SWAP1 DUP2 MSTORE PUSH1 0x20 ADD PUSH0 KECCAK256 PUSH0 SWAP1 SLOAD SWAP1 PUSH2 0x100 EXP SWAP1 DIV PUSH1 0xFF AND PUSH2 0x2BC0 JUMPI PUSH1 0x40 MLOAD PUSH32 0x8C379A000000000000000000000000000000000000000000000000000000000 DUP2 MSTORE PUSH1 0x4 ADD PUSH2 0x2BB7 SWAP1 PUSH2 0x4662 JUMP JUMPDEST PUSH1 0x40 MLOAD DUP1 SWAP2 SUB SWAP1 REVERT JUMPDEST PUSH0 CALLVALUE GT PUSH2 0x2C02 JUMPI PUSH1 0x40 MLOAD PUSH32 0x8C379A000000000000000000000000000000000000000000000000000000000 DUP2 MSTORE PUSH1 0x4 ADD PUSH2 0x2BF9 SWAP1 PUSH2 0x4E90 JUMP JUMPDEST PUSH1 0x40 MLOAD DUP1 SWAP2 SUB SWAP1 REVERT JUMPDEST CALLVALUE PUSH1 0x6 PUSH0 CALLER PUSH20 0xFFFFFFFFFFFFFFFFFFFFFFFFFFFFFFFFFFFFFFFF AND PUSH20 0xFFFFFFFFFFFFFFFFFFFFFFFFFFFFFFFFFFFFFFFF AND DUP2 MSTORE PUSH1 0x20 ADD SWAP1 DUP2 MSTORE PUSH1 0x20 ADD PUSH0 KECCAK256 PUSH0 DUP3 DUP3 SLOAD PUSH2 0x2C4E SWAP2 SWAP1 PUSH2 0x4C4C JUMP JUMPDEST SWAP3 POP POP DUP2 SWAP1 SSTORE POP CALLER PUSH20 0xFFFFFFFFFFFFFFFFFFFFFFFFFFFFFFFFFFFFFFFF AND PUSH32 0x2EEBD85869E78D0D80F0CCD52526291E0EEF8DBAB2BEC717F82B6EE8D3D43F3A CALLVALUE PUSH1 0x40 MLOAD PUSH2 0x2C9B SWAP2 SWAP1 PUSH2 0x3DDC JUMP JUMPDEST PUSH1 0x40 MLOAD DUP1 SWAP2 SUB SWAP1 LOG2 JUMP JUMPDEST PUSH1 0x60 DUP1 PUSH1 0x60 DUP1 PUSH1 0x2 PUSH0 CALLER PUSH20 0xFFFFFFFFFFFFFFFFFFFFFFFFFFFFFFFFFFFFFFFF AND PUSH20 0xFFFFFFFFFFFFFFFFFFFFFFFFFFFFFFFFFFFFFFFF AND DUP2 MSTORE PUSH1 0x20 ADD SWAP1 DUP2 MSTORE PUSH1 0x20 ADD PUSH0 KECCAK256 PUSH0 SWAP1 SLOAD SWAP1 PUSH2 0x100 EXP SWAP1 DIV PUSH1 0xFF AND PUSH2 0x2D34 JUMPI PUSH1 0x40 MLOAD PUSH32 0x8C379A000000000000000000000000000000000000000000000000000000000 DUP2 MSTORE PUSH1 0x4 ADD PUSH2 0x2D2B SWAP1 PUSH2 0x4662 JUMP JUMPDEST PUSH1 0x40 MLOAD DUP1 SWAP2 SUB SWAP1 REVERT JUMPDEST PUSH2 0x2D3E PUSH1 0x2 PUSH2 0x375F JUMP JUMPDEST SWAP4 POP SWAP4 POP SWAP4 POP SWAP4 POP SWAP1 SWAP2 SWAP3 SWAP4 JUMP JUMPDEST PUSH1 0x2 PUSH0 CALLER PUSH20 0xFFFFFFFFFFFFFFFFFFFFFFFFFFFFFFFFFFFFFFFF AND PUSH20 0xFFFFFFFFFFFFFFFFFFFFFFFFFFFFFFFFFFFFFFFF AND DUP2 MSTORE PUSH1 0x20 ADD SWAP1 DUP2 MSTORE PUSH1 0x20 ADD PUSH0 KECCAK256 PUSH0 SWAP1 SLOAD SWAP1 PUSH2 0x100 EXP SWAP1 DIV PUSH1 0xFF AND PUSH2 0x2DD5 JUMPI PUSH1 0x40 MLOAD PUSH32 0x8C379A000000000000000000000000000000000000000000000000000000000 DUP2 MSTORE PUSH1 0x4 ADD PUSH2 0x2DCC SWAP1 PUSH2 0x4662 JUMP JUMPDEST PUSH1 0x40 MLOAD DUP1 SWAP2 SUB SWAP1 REVERT JUMPDEST PUSH1 0x4 PUSH0 CALLER PUSH20 0xFFFFFFFFFFFFFFFFFFFFFFFFFFFFFFFFFFFFFFFF AND PUSH20 0xFFFFFFFFFFFFFFFFFFFFFFFFFFFFFFFFFFFFFFFF AND DUP2 MSTORE PUSH1 0x20 ADD SWAP1 DUP2 MSTORE PUSH1 0x20 ADD PUSH0 KECCAK256 PUSH0 DUP10 PUSH20 0xFFFFFFFFFFFFFFFFFFFFFFFFFFFFFFFFFFFFFFFF AND PUSH20 0xFFFFFFFFFFFFFFFFFFFFFFFFFFFFFFFFFFFFFFFF AND DUP2 MSTORE PUSH1 0x20 ADD SWAP1 DUP2 MSTORE PUSH1 0x20 ADD PUSH0 KECCAK256 PUSH0 SWAP1 SLOAD SWAP1 PUSH2 0x100 EXP SWAP1 DIV PUSH1 0xFF AND PUSH2 0x2E99 JUMPI PUSH1 0x40 MLOAD PUSH32 0x8C379A000000000000000000000000000000000000000000000000000000000 DUP2 MSTORE PUSH1 0x4 ADD PUSH2 0x2E90 SWAP1 PUSH2 0x47FA JUMP JUMPDEST PUSH1 0x40 MLOAD DUP1 SWAP2 SUB SWAP1 REVERT JUMPDEST PUSH1 0x40 MLOAD DUP1 PUSH1 0xE0 ADD PUSH1 0x40 MSTORE DUP1 DUP9 ISZERO ISZERO DUP2 MSTORE PUSH1 0x20 ADD DUP8 DUP2 MSTORE PUSH1 0x20 ADD DUP7 DUP2 MSTORE PUSH1 0x20 ADD DUP6 DUP2 MSTORE PUSH1 0x20 ADD DUP5 DUP2 MSTORE PUSH1 0x20 ADD DUP4 DUP2 MSTORE PUSH1 0x20 ADD DUP3 DUP2 MSTORE POP PUSH1 0x3 PUSH0 CALLER PUSH20 0xFFFFFFFFFFFFFFFFFFFFFFFFFFFFFFFFFFFFFFFF AND PUSH20 0xFFFFFFFFFFFFFFFFFFFFFFFFFFFFFFFFFFFFFFFF AND DUP2 MSTORE PUSH1 0x20 ADD SWAP1 DUP2 MSTORE PUSH1 0x20 ADD PUSH0 KECCAK256 PUSH0 DUP11 PUSH20 0xFFFFFFFFFFFFFFFFFFFFFFFFFFFFFFFFFFFFFFFF AND PUSH20 0xFFFFFFFFFFFFFFFFFFFFFFFFFFFFFFFFFFFFFFFF AND DUP2 MSTORE PUSH1 0x20 ADD SWAP1 DUP2 MSTORE PUSH1 0x20 ADD PUSH0 KECCAK256 PUSH0 DUP3 ADD MLOAD DUP2 PUSH0 ADD PUSH0 PUSH2 0x100 EXP DUP2 SLOAD DUP2 PUSH1 0xFF MUL NOT AND SWAP1 DUP4 ISZERO ISZERO MUL OR SWAP1 SSTORE POP PUSH1 0x20 DUP3 ADD MLOAD DUP2 PUSH1 0x1 ADD SSTORE PUSH1 0x40 DUP3 ADD MLOAD DUP2 PUSH1 0x2 ADD SSTORE PUSH1 0x60 DUP3 ADD MLOAD DUP2 PUSH1 0x3 ADD SSTORE PUSH1 0x80 DUP3 ADD MLOAD DUP2 PUSH1 0x4 ADD SSTORE PUSH1 0xA0 DUP3 ADD MLOAD DUP2 PUSH1 0x5 ADD SSTORE PUSH1 0xC0 DUP3 ADD MLOAD DUP2 PUSH1 0x6 ADD SSTORE SWAP1 POP POP POP POP POP POP POP POP POP POP JUMP JUMPDEST PUSH1 0x3 PUSH1 0x20 MSTORE DUP2 PUSH0 MSTORE PUSH1 0x40 PUSH0 KECCAK256 PUSH1 0x20 MSTORE DUP1 PUSH0 MSTORE PUSH1 0x40 PUSH0 KECCAK256 PUSH0 SWAP2 POP SWAP2 POP POP DUP1 PUSH0 ADD PUSH0 SWAP1 SLOAD SWAP1 PUSH2 0x100 EXP SWAP1 DIV PUSH1 0xFF AND SWAP1 DUP1 PUSH1 0x1 ADD SLOAD SWAP1 DUP1 PUSH1 0x2 ADD SLOAD SWAP1 DUP1 PUSH1 0x3 ADD SLOAD SWAP1 DUP1 PUSH1 0x4 ADD SLOAD SWAP1 DUP1 PUSH1 0x5 ADD SLOAD SWAP1 DUP1 PUSH1 0x6 ADD SLOAD SWAP1 POP DUP8 JUMP JUMPDEST PUSH1 0x60 DUP1 PUSH1 0x60 DUP1 PUSH1 0x2 PUSH0 CALLER PUSH20 0xFFFFFFFFFFFFFFFFFFFFFFFFFFFFFFFFFFFFFFFF AND PUSH20 0xFFFFFFFFFFFFFFFFFFFFFFFFFFFFFFFFFFFFFFFF AND DUP2 MSTORE PUSH1 0x20 ADD SWAP1 DUP2 MSTORE PUSH1 0x20 ADD PUSH0 KECCAK256 PUSH0 SWAP1 SLOAD SWAP1 PUSH2 0x100 EXP SWAP1 DIV PUSH1 0xFF AND PUSH2 0x3090 JUMPI PUSH1 0x40 MLOAD PUSH32 0x8C379A000000000000000000000000000000000000000000000000000000000 DUP2 MSTORE PUSH1 0x4 ADD PUSH2 0x3087 SWAP1 PUSH2 0x4662 JUMP JUMPDEST PUSH1 0x40 MLOAD DUP1 SWAP2 SUB SWAP1 REVERT JUMPDEST PUSH2 0x3099 PUSH0 PUSH2 0x375F JUMP JUMPDEST SWAP4 POP SWAP4 POP SWAP4 POP SWAP4 POP SWAP1 SWAP2 SWAP3 SWAP4 JUMP JUMPDEST PUSH1 0x60 PUSH1 0x2 PUSH0 CALLER PUSH20 0xFFFFFFFFFFFFFFFFFFFFFFFFFFFFFFFFFFFFFFFF AND PUSH20 0xFFFFFFFFFFFFFFFFFFFFFFFFFFFFFFFFFFFFFFFF AND DUP2 MSTORE PUSH1 0x20 ADD SWAP1 DUP2 MSTORE PUSH1 0x20 ADD PUSH0 KECCAK256 PUSH0 SWAP1 SLOAD SWAP1 PUSH2 0x100 EXP SWAP1 DIV PUSH1 0xFF AND PUSH2 0x3132 JUMPI PUSH1 0x40 MLOAD PUSH32 0x8C379A000000000000000000000000000000000000000000000000000000000 DUP2 MSTORE PUSH1 0x4 ADD PUSH2 0x3129 SWAP1 PUSH2 0x4662 JUMP JUMPDEST PUSH1 0x40 MLOAD DUP1 SWAP2 SUB SWAP1 REVERT JUMPDEST PUSH0 PUSH1 0x7 PUSH0 CALLER PUSH20 0xFFFFFFFFFFFFFFFFFFFFFFFFFFFFFFFFFFFFFFFF AND PUSH20 0xFFFFFFFFFFFFFFFFFFFFFFFFFFFFFFFFFFFFFFFF AND DUP2 MSTORE PUSH1 0x20 ADD SWAP1 DUP2 MSTORE PUSH1 0x20 ADD PUSH0 KECCAK256 DUP1 SLOAD DUP1 PUSH1 0x20 MUL PUSH1 0x20 ADD PUSH1 0x40 MLOAD SWAP1 DUP2 ADD PUSH1 0x40 MSTORE DUP1 SWAP3 SWAP2 SWAP1 DUP2 DUP2 MSTORE PUSH1 0x20 ADD DUP3 DUP1 SLOAD DUP1 ISZERO PUSH2 0x31ED JUMPI PUSH1 0x20 MUL DUP3 ADD SWAP2 SWAP1 PUSH0 MSTORE PUSH1 0x20 PUSH0 KECCAK256 SWAP1 JUMPDEST DUP2 PUSH0 SWAP1 SLOAD SWAP1 PUSH2 0x100 EXP SWAP1 DIV PUSH20 0xFFFFFFFFFFFFFFFFFFFFFFFFFFFFFFFFFFFFFFFF AND PUSH20 0xFFFFFFFFFFFFFFFFFFFFFFFFFFFFFFFFFFFFFFFF AND DUP2 MSTORE PUSH1 0x20 ADD SWAP1 PUSH1 0x1 ADD SWAP1 DUP1 DUP4 GT PUSH2 0x31A4 JUMPI JUMPDEST POP POP POP POP POP SWAP1 POP PUSH0 DUP2 MLOAD SWAP1 POP PUSH0 DUP2 PUSH8 0xFFFFFFFFFFFFFFFF DUP2 GT ISZERO PUSH2 0x3214 JUMPI PUSH2 0x3213 PUSH2 0x485F JUMP JUMPDEST JUMPDEST PUSH1 0x40 MLOAD SWAP1 DUP1 DUP3 MSTORE DUP1 PUSH1 0x20 MUL PUSH1 0x20 ADD DUP3 ADD PUSH1 0x40 MSTORE DUP1 ISZERO PUSH2 0x324D JUMPI DUP2 PUSH1 0x20 ADD JUMPDEST PUSH2 0x323A PUSH2 0x3B62 JUMP JUMPDEST DUP2 MSTORE PUSH1 0x20 ADD SWAP1 PUSH1 0x1 SWAP1 SUB SWAP1 DUP2 PUSH2 0x3232 JUMPI SWAP1 POP JUMPDEST POP SWAP1 POP PUSH0 JUMPDEST DUP3 DUP2 LT ISZERO PUSH2 0x3377 JUMPI PUSH1 0x3 PUSH0 CALLER PUSH20 0xFFFFFFFFFFFFFFFFFFFFFFFFFFFFFFFFFFFFFFFF AND PUSH20 0xFFFFFFFFFFFFFFFFFFFFFFFFFFFFFFFFFFFFFFFF AND DUP2 MSTORE PUSH1 0x20 ADD SWAP1 DUP2 MSTORE PUSH1 0x20 ADD PUSH0 KECCAK256 PUSH0 DUP6 DUP4 DUP2 MLOAD DUP2 LT PUSH2 0x32AB JUMPI PUSH2 0x32AA PUSH2 0x4C7F JUMP JUMPDEST JUMPDEST PUSH1 0x20 MUL PUSH1 0x20 ADD ADD MLOAD PUSH20 0xFFFFFFFFFFFFFFFFFFFFFFFFFFFFFFFFFFFFFFFF AND PUSH20 0xFFFFFFFFFFFFFFFFFFFFFFFFFFFFFFFFFFFFFFFF AND DUP2 MSTORE PUSH1 0x20 ADD SWAP1 DUP2 MSTORE PUSH1 0x20 ADD PUSH0 KECCAK256 PUSH1 0x40 MLOAD DUP1 PUSH1 0xE0 ADD PUSH1 0x40 MSTORE SWAP1 DUP2 PUSH0 DUP3 ADD PUSH0 SWAP1 SLOAD SWAP1 PUSH2 0x100 EXP SWAP1 DIV PUSH1 0xFF AND ISZERO ISZERO ISZERO ISZERO DUP2 MSTORE PUSH1 0x20 ADD PUSH1 0x1 DUP3 ADD SLOAD DUP2 MSTORE PUSH1 0x20 ADD PUSH1 0x2 DUP3 ADD SLOAD DUP2 MSTORE PUSH1 0x20 ADD PUSH1 0x3 DUP3 ADD SLOAD DUP2 MSTORE PUSH1 0x20 ADD PUSH1 0x4 DUP3 ADD SLOAD DUP2 MSTORE PUSH1 0x20 ADD PUSH1 0x5 DUP3 ADD SLOAD DUP2 MSTORE PUSH1 0x20 ADD PUSH1 0x6 DUP3 ADD SLOAD DUP2 MSTORE POP POP DUP3 DUP3 DUP2 MLOAD DUP2 LT PUSH2 0x335F JUMPI PUSH2 0x335E PUSH2 0x4C7F JUMP JUMPDEST JUMPDEST PUSH1 0x20 MUL PUSH1 0x20 ADD ADD DUP2 SWAP1 MSTORE POP DUP1 DUP1 PUSH1 0x1 ADD SWAP2 POP POP PUSH2 0x3252 JUMP JUMPDEST POP DUP1 SWAP4 POP POP POP POP SWAP1 JUMP JUMPDEST PUSH1 0x2 PUSH0 CALLER PUSH20 0xFFFFFFFFFFFFFFFFFFFFFFFFFFFFFFFFFFFFFFFF AND PUSH20 0xFFFFFFFFFFFFFFFFFFFFFFFFFFFFFFFFFFFFFFFF AND DUP2 MSTORE PUSH1 0x20 ADD SWAP1 DUP2 MSTORE PUSH1 0x20 ADD PUSH0 KECCAK256 PUSH0 SWAP1 SLOAD SWAP1 PUSH2 0x100 EXP SWAP1 DIV PUSH1 0xFF AND PUSH2 0x340A JUMPI PUSH1 0x40 MLOAD PUSH32 0x8C379A000000000000000000000000000000000000000000000000000000000 DUP2 MSTORE PUSH1 0x4 ADD PUSH2 0x3401 SWAP1 PUSH2 0x4662 JUMP JUMPDEST PUSH1 0x40 MLOAD DUP1 SWAP2 SUB SWAP1 REVERT JUMPDEST DUP1 PUSH0 PUSH1 0x2 DUP2 GT ISZERO PUSH2 0x341E JUMPI PUSH2 0x341D PUSH2 0x3E04 JUMP JUMPDEST JUMPDEST PUSH1 0x5 PUSH0 CALLER PUSH20 0xFFFFFFFFFFFFFFFFFFFFFFFFFFFFFFFFFFFFFFFF AND PUSH20 0xFFFFFFFFFFFFFFFFFFFFFFFFFFFFFFFFFFFFFFFF AND DUP2 MSTORE PUSH1 0x20 ADD SWAP1 DUP2 MSTORE PUSH1 0x20 ADD PUSH0 KECCAK256 PUSH0 DUP4 DUP2 MSTORE PUSH1 0x20 ADD SWAP1 DUP2 MSTORE PUSH1 0x20 ADD PUSH0 KECCAK256 PUSH1 0x4 ADD PUSH0 SWAP1 SLOAD SWAP1 PUSH2 0x100 EXP SWAP1 DIV PUSH1 0xFF AND PUSH1 0x2 DUP2 GT ISZERO PUSH2 0x348C JUMPI PUSH2 0x348B PUSH2 0x3E04 JUMP JUMPDEST JUMPDEST EQ PUSH2 0x34CC JUMPI PUSH1 0x40 MLOAD PUSH32 0x8C379A000000000000000000000000000000000000000000000000000000000 DUP2 MSTORE PUSH1 0x4 ADD PUSH2 0x34C3 SWAP1 PUSH2 0x4CF6 JUMP JUMPDEST PUSH1 0x40 MLOAD DUP1 SWAP2 SUB SWAP1 REVERT JUMPDEST PUSH1 0x1 PUSH1 0x5 PUSH0 CALLER PUSH20 0xFFFFFFFFFFFFFFFFFFFFFFFFFFFFFFFFFFFFFFFF AND PUSH20 0xFFFFFFFFFFFFFFFFFFFFFFFFFFFFFFFFFFFFFFFF AND DUP2 MSTORE PUSH1 0x20 ADD SWAP1 DUP2 MSTORE PUSH1 0x20 ADD PUSH0 KECCAK256 PUSH0 DUP5 DUP2 MSTORE PUSH1 0x20 ADD SWAP1 DUP2 MSTORE PUSH1 0x20 ADD PUSH0 KECCAK256 PUSH1 0x4 ADD PUSH0 PUSH2 0x100 EXP DUP2 SLOAD DUP2 PUSH1 0xFF MUL NOT AND SWAP1 DUP4 PUSH1 0x2 DUP2 GT ISZERO PUSH2 0x353E JUMPI PUSH2 0x353D PUSH2 0x3E04 JUMP JUMPDEST JUMPDEST MUL OR SWAP1 SSTORE POP PUSH32 0x2D8885900C84BB029F82B71E344A4AD4D9E1B4FDE9F3827244B4048AA8272B08 DUP3 PUSH1 0x40 MLOAD PUSH2 0x3572 SWAP2 SWAP1 PUSH2 0x3DDC JUMP JUMPDEST PUSH1 0x40 MLOAD DUP1 SWAP2 SUB SWAP1 LOG1 POP POP JUMP JUMPDEST PUSH0 DUP1 PUSH1 0x3 PUSH0 DUP6 PUSH20 0xFFFFFFFFFFFFFFFFFFFFFFFFFFFFFFFFFFFFFFFF AND PUSH20 0xFFFFFFFFFFFFFFFFFFFFFFFFFFFFFFFFFFFFFFFF AND DUP2 MSTORE PUSH1 0x20 ADD SWAP1 DUP2 MSTORE PUSH1 0x20 ADD PUSH0 KECCAK256 PUSH0 DUP5 PUSH20 0xFFFFFFFFFFFFFFFFFFFFFFFFFFFFFFFFFFFFFFFF AND PUSH20 0xFFFFFFFFFFFFFFFFFFFFFFFFFFFFFFFFFFFFFFFF AND DUP2 MSTORE PUSH1 0x20 ADD SWAP1 DUP2 MSTORE PUSH1 0x20 ADD PUSH0 KECCAK256 PUSH1 0x40 MLOAD DUP1 PUSH1 0xE0 ADD PUSH1 0x40 MSTORE SWAP1 DUP2 PUSH0 DUP3 ADD PUSH0 SWAP1 SLOAD SWAP1 PUSH2 0x100 EXP SWAP1 DIV PUSH1 0xFF AND ISZERO ISZERO ISZERO ISZERO DUP2 MSTORE PUSH1 0x20 ADD PUSH1 0x1 DUP3 ADD SLOAD DUP2 MSTORE PUSH1 0x20 ADD PUSH1 0x2 DUP3 ADD SLOAD DUP2 MSTORE PUSH1 0x20 ADD PUSH1 0x3 DUP3 ADD SLOAD DUP2 MSTORE PUSH1 0x20 ADD PUSH1 0x4 DUP3 ADD SLOAD DUP2 MSTORE PUSH1 0x20 ADD PUSH1 0x5 DUP3 ADD SLOAD DUP2 MSTORE PUSH1 0x20 ADD PUSH1 0x6 DUP3 ADD SLOAD DUP2 MSTORE POP POP SWAP1 POP PUSH0 DUP2 PUSH0 ADD MLOAD ISZERO PUSH2 0x3684 JUMPI DUP2 PUSH1 0x40 ADD MLOAD DUP3 PUSH1 0x20 ADD MLOAD PUSH2 0x3678 SWAP2 SWAP1 PUSH2 0x4EAE JUMP JUMPDEST SWAP1 POP DUP1 SWAP3 POP POP POP PUSH2 0x3759 JUMP JUMPDEST DUP2 PUSH1 0xA0 ADD MLOAD DUP3 PUSH1 0x80 ADD MLOAD DUP4 PUSH1 0x60 ADD MLOAD PUSH2 0x369D SWAP2 SWAP1 PUSH2 0x4EAE JUMP JUMPDEST DUP4 PUSH1 0x40 ADD MLOAD DUP5 PUSH1 0x20 ADD MLOAD PUSH2 0x36B1 SWAP2 SWAP1 PUSH2 0x4EAE JUMP JUMPDEST PUSH2 0x36BB SWAP2 SWAP1 PUSH2 0x4C4C JUMP JUMPDEST PUSH2 0x36C5 SWAP2 SWAP1 PUSH2 0x4C4C JUMP JUMPDEST SWAP1 POP PUSH0 PUSH1 0x64 PUSH1 0xB DUP4 PUSH2 0x36D7 SWAP2 SWAP1 PUSH2 0x4EAE JUMP JUMPDEST PUSH2 0x36E1 SWAP2 SWAP1 PUSH2 0x4F1C JUMP JUMPDEST SWAP1 POP PUSH0 PUSH1 0x64 PUSH1 0x2 DUP5 PUSH2 0x36F3 SWAP2 SWAP1 PUSH2 0x4EAE JUMP JUMPDEST PUSH2 0x36FD SWAP2 SWAP1 PUSH2 0x4F1C JUMP JUMPDEST SWAP1 POP PUSH0 PUSH1 0x64 PUSH1 0xA DUP6 PUSH2 0x370F SWAP2 SWAP1 PUSH2 0x4EAE JUMP JUMPDEST PUSH2 0x3719 SWAP2 SWAP1 PUSH2 0x4F1C JUMP JUMPDEST SWAP1 POP PUSH0 DUP6 PUSH1 0xC0 ADD MLOAD DUP3 DUP5 DUP7 PUSH2 0x372E SWAP2 SWAP1 PUSH2 0x4C4C JUMP JUMPDEST PUSH2 0x3738 SWAP2 SWAP1 PUSH2 0x4C4C JUMP JUMPDEST PUSH2 0x3742 SWAP2 SWAP1 PUSH2 0x4C4C JUMP JUMPDEST SWAP1 POP DUP1 DUP6 PUSH2 0x3750 SWAP2 SWAP1 PUSH2 0x477D JUMP JUMPDEST SWAP7 POP POP POP POP POP POP POP JUMPDEST SWAP3 SWAP2 POP POP JUMP JUMPDEST PUSH1 0x60 DUP1 PUSH1 0x60 DUP1 PUSH0 DUP1 PUSH1 0x1 SWAP1 POP JUMPDEST PUSH1 0x1 SLOAD DUP2 GT PUSH2 0x381D JUMPI DUP7 PUSH1 0x2 DUP2 GT ISZERO PUSH2 0x3788 JUMPI PUSH2 0x3787 PUSH2 0x3E04 JUMP JUMPDEST JUMPDEST PUSH1 0x5 PUSH0 CALLER PUSH20 0xFFFFFFFFFFFFFFFFFFFFFFFFFFFFFFFFFFFFFFFF AND PUSH20 0xFFFFFFFFFFFFFFFFFFFFFFFFFFFFFFFFFFFFFFFF AND DUP2 MSTORE PUSH1 0x20 ADD SWAP1 DUP2 MSTORE PUSH1 0x20 ADD PUSH0 KECCAK256 PUSH0 DUP4 DUP2 MSTORE PUSH1 0x20 ADD SWAP1 DUP2 MSTORE PUSH1 0x20 ADD PUSH0 KECCAK256 PUSH1 0x4 ADD PUSH0 SWAP1 SLOAD SWAP1 PUSH2 0x100 EXP SWAP1 DIV PUSH1 0xFF AND PUSH1 0x2 DUP2 GT ISZERO PUSH2 0x37F6 JUMPI PUSH2 0x37F5 PUSH2 0x3E04 JUMP JUMPDEST JUMPDEST SUB PUSH2 0x380A JUMPI DUP2 DUP1 PUSH2 0x3806 SWAP1 PUSH2 0x4818 JUMP JUMPDEST SWAP3 POP POP JUMPDEST DUP1 DUP1 PUSH2 0x3815 SWAP1 PUSH2 0x4818 JUMP JUMPDEST SWAP2 POP POP PUSH2 0x376C JUMP JUMPDEST POP PUSH0 DUP2 PUSH8 0xFFFFFFFFFFFFFFFF DUP2 GT ISZERO PUSH2 0x3839 JUMPI PUSH2 0x3838 PUSH2 0x485F JUMP JUMPDEST JUMPDEST PUSH1 0x40 MLOAD SWAP1 DUP1 DUP3 MSTORE DUP1 PUSH1 0x20 MUL PUSH1 0x20 ADD DUP3 ADD PUSH1 0x40 MSTORE DUP1 ISZERO PUSH2 0x3867 JUMPI DUP2 PUSH1 0x20 ADD PUSH1 0x20 DUP3 MUL DUP1 CALLDATASIZE DUP4 CALLDATACOPY DUP1 DUP3 ADD SWAP2 POP POP SWAP1 POP JUMPDEST POP SWAP1 POP PUSH0 DUP3 PUSH8 0xFFFFFFFFFFFFFFFF DUP2 GT ISZERO PUSH2 0x3885 JUMPI PUSH2 0x3884 PUSH2 0x485F JUMP JUMPDEST JUMPDEST PUSH1 0x40 MLOAD SWAP1 DUP1 DUP3 MSTORE DUP1 PUSH1 0x20 MUL PUSH1 0x20 ADD DUP3 ADD PUSH1 0x40 MSTORE DUP1 ISZERO PUSH2 0x38B3 JUMPI DUP2 PUSH1 0x20 ADD PUSH1 0x20 DUP3 MUL DUP1 CALLDATASIZE DUP4 CALLDATACOPY DUP1 DUP3 ADD SWAP2 POP POP SWAP1 POP JUMPDEST POP SWAP1 POP PUSH0 DUP4 PUSH8 0xFFFFFFFFFFFFFFFF DUP2 GT ISZERO PUSH2 0x38D1 JUMPI PUSH2 0x38D0 PUSH2 0x485F JUMP JUMPDEST JUMPDEST PUSH1 0x40 MLOAD SWAP1 DUP1 DUP3 MSTORE DUP1 PUSH1 0x20 MUL PUSH1 0x20 ADD DUP3 ADD PUSH1 0x40 MSTORE DUP1 ISZERO PUSH2 0x38FF JUMPI DUP2 PUSH1 0x20 ADD PUSH1 0x20 DUP3 MUL DUP1 CALLDATASIZE DUP4 CALLDATACOPY DUP1 DUP3 ADD SWAP2 POP POP SWAP1 POP JUMPDEST POP SWAP1 POP PUSH0 DUP5 PUSH8 0xFFFFFFFFFFFFFFFF DUP2 GT ISZERO PUSH2 0x391D JUMPI PUSH2 0x391C PUSH2 0x485F JUMP JUMPDEST JUMPDEST PUSH1 0x40 MLOAD SWAP1 DUP1 DUP3 MSTORE DUP1 PUSH1 0x20 MUL PUSH1 0x20 ADD DUP3 ADD PUSH1 0x40 MSTORE DUP1 ISZERO PUSH2 0x394B JUMPI DUP2 PUSH1 0x20 ADD PUSH1 0x20 DUP3 MUL DUP1 CALLDATASIZE DUP4 CALLDATACOPY DUP1 DUP3 ADD SWAP2 POP POP SWAP1 POP JUMPDEST POP SWAP1 POP PUSH0 DUP1 PUSH1 0x1 SWAP1 POP JUMPDEST PUSH1 0x1 SLOAD DUP2 GT PUSH2 0x3AE7 JUMPI PUSH0 PUSH1 0x5 PUSH0 CALLER PUSH20 0xFFFFFFFFFFFFFFFFFFFFFFFFFFFFFFFFFFFFFFFF AND PUSH20 0xFFFFFFFFFFFFFFFFFFFFFFFFFFFFFFFFFFFFFFFF AND DUP2 MSTORE PUSH1 0x20 ADD SWAP1 DUP2 MSTORE PUSH1 0x20 ADD PUSH0 KECCAK256 PUSH0 DUP4 DUP2 MSTORE PUSH1 0x20 ADD SWAP1 DUP2 MSTORE PUSH1 0x20 ADD PUSH0 KECCAK256 SWAP1 POP DUP13 PUSH1 0x2 DUP2 GT ISZERO PUSH2 0x39C0 JUMPI PUSH2 0x39BF PUSH2 0x3E04 JUMP JUMPDEST JUMPDEST DUP2 PUSH1 0x4 ADD PUSH0 SWAP1 SLOAD SWAP1 PUSH2 0x100 EXP SWAP1 DIV PUSH1 0xFF AND PUSH1 0x2 DUP2 GT ISZERO PUSH2 0x39E3 JUMPI PUSH2 0x39E2 PUSH2 0x3E04 JUMP JUMPDEST JUMPDEST SUB PUSH2 0x3AD3 JUMPI DUP1 PUSH0 ADD SLOAD DUP8 DUP5 DUP2 MLOAD DUP2 LT PUSH2 0x39FF JUMPI PUSH2 0x39FE PUSH2 0x4C7F JUMP JUMPDEST JUMPDEST PUSH1 0x20 MUL PUSH1 0x20 ADD ADD DUP2 DUP2 MSTORE POP POP DUP1 PUSH1 0x1 ADD PUSH0 SWAP1 SLOAD SWAP1 PUSH2 0x100 EXP SWAP1 DIV PUSH20 0xFFFFFFFFFFFFFFFFFFFFFFFFFFFFFFFFFFFFFFFF AND DUP7 DUP5 DUP2 MLOAD DUP2 LT PUSH2 0x3A42 JUMPI PUSH2 0x3A41 PUSH2 0x4C7F JUMP JUMPDEST JUMPDEST PUSH1 0x20 MUL PUSH1 0x20 ADD ADD SWAP1 PUSH20 0xFFFFFFFFFFFFFFFFFFFFFFFFFFFFFFFFFFFFFFFF AND SWAP1 DUP2 PUSH20 0xFFFFFFFFFFFFFFFFFFFFFFFFFFFFFFFFFFFFFFFF AND DUP2 MSTORE POP POP DUP1 PUSH1 0x2 ADD SLOAD DUP6 DUP5 DUP2 MLOAD DUP2 LT PUSH2 0x3A94 JUMPI PUSH2 0x3A93 PUSH2 0x4C7F JUMP JUMPDEST JUMPDEST PUSH1 0x20 MUL PUSH1 0x20 ADD ADD DUP2 DUP2 MSTORE POP POP DUP1 PUSH1 0x3 ADD SLOAD DUP5 DUP5 DUP2 MLOAD DUP2 LT PUSH2 0x3AB8 JUMPI PUSH2 0x3AB7 PUSH2 0x4C7F JUMP JUMPDEST JUMPDEST PUSH1 0x20 MUL PUSH1 0x20 ADD ADD DUP2 DUP2 MSTORE POP POP DUP3 DUP1 PUSH2 0x3ACF SWAP1 PUSH2 0x4818 JUMP JUMPDEST SWAP4 POP POP JUMPDEST POP DUP1 DUP1 PUSH2 0x3ADF SWAP1 PUSH2 0x4818 JUMP JUMPDEST SWAP2 POP POP PUSH2 0x3955 JUMP JUMPDEST POP DUP5 DUP5 DUP5 DUP5 SWAP10 POP SWAP10 POP SWAP10 POP SWAP10 POP POP POP POP POP POP POP SWAP2 SWAP4 POP SWAP2 SWAP4 JUMP JUMPDEST PUSH1 0x40 MLOAD DUP1 PUSH1 0xE0 ADD PUSH1 0x40 MSTORE DUP1 PUSH0 DUP2 MSTORE PUSH1 0x20 ADD PUSH0 PUSH20 0xFFFFFFFFFFFFFFFFFFFFFFFFFFFFFFFFFFFFFFFF AND DUP2 MSTORE PUSH1 0x20 ADD PUSH0 DUP2 MSTORE PUSH1 0x20 ADD PUSH0 DUP2 MSTORE PUSH1 0x20 ADD PUSH0 PUSH1 0x2 DUP2 GT ISZERO PUSH2 0x3B4D JUMPI PUSH2 0x3B4C PUSH2 0x3E04 JUMP JUMPDEST JUMPDEST DUP2 MSTORE PUSH1 0x20 ADD PUSH0 ISZERO ISZERO DUP2 MSTORE PUSH1 0x20 ADD PUSH1 0x60 DUP2 MSTORE POP SWAP1 JUMP JUMPDEST PUSH1 0x40 MLOAD DUP1 PUSH1 0xE0 ADD PUSH1 0x40 MSTORE DUP1 PUSH0 ISZERO ISZERO DUP2 MSTORE PUSH1 0x20 ADD PUSH0 DUP2 MSTORE PUSH1 0x20 ADD PUSH0 DUP2 MSTORE PUSH1 0x20 ADD PUSH0 DUP2 MSTORE PUSH1 0x20 ADD PUSH0 DUP2 MSTORE PUSH1 0x20 ADD PUSH0 DUP2 MSTORE PUSH1 0x20 ADD PUSH0 DUP2 MSTORE POP SWAP1 JUMP JUMPDEST PUSH0 DUP1 REVERT JUMPDEST PUSH0 PUSH20 0xFFFFFFFFFFFFFFFFFFFFFFFFFFFFFFFFFFFFFFFF DUP3 AND SWAP1 POP SWAP2 SWAP1 POP JUMP JUMPDEST PUSH0 PUSH2 0x3BC7 DUP3 PUSH2 0x3B9E JUMP JUMPDEST SWAP1 POP SWAP2 SWAP1 POP JUMP JUMPDEST PUSH2 0x3BD7 DUP2 PUSH2 0x3BBD JUMP JUMPDEST DUP2 EQ PUSH2 0x3BE1 JUMPI PUSH0 DUP1 REVERT JUMPDEST POP JUMP JUMPDEST PUSH0 DUP2 CALLDATALOAD SWAP1 POP PUSH2 0x3BF2 DUP2 PUSH2 0x3BCE JUMP JUMPDEST SWAP3 SWAP2 POP POP JUMP JUMPDEST PUSH0 PUSH1 0x20 DUP3 DUP5 SUB SLT ISZERO PUSH2 0x3C0D JUMPI PUSH2 0x3C0C PUSH2 0x3B9A JUMP JUMPDEST JUMPDEST PUSH0 PUSH2 0x3C1A DUP5 DUP3 DUP6 ADD PUSH2 0x3BE4 JUMP JUMPDEST SWAP2 POP POP SWAP3 SWAP2 POP POP JUMP JUMPDEST PUSH0 DUP2 ISZERO ISZERO SWAP1 POP SWAP2 SWAP1 POP JUMP JUMPDEST PUSH2 0x3C37 DUP2 PUSH2 0x3C23 JUMP JUMPDEST DUP3 MSTORE POP POP JUMP JUMPDEST PUSH0 PUSH1 0x20 DUP3 ADD SWAP1 POP PUSH2 0x3C50 PUSH0 DUP4 ADD DUP5 PUSH2 0x3C2E JUMP JUMPDEST SWAP3 SWAP2 POP POP JUMP JUMPDEST PUSH0 DUP2 SWAP1 POP SWAP2 SWAP1 POP JUMP JUMPDEST PUSH2 0x3C68 DUP2 PUSH2 0x3C56 JUMP JUMPDEST DUP2 EQ PUSH2 0x3C72 JUMPI PUSH0 DUP1 REVERT JUMPDEST POP JUMP JUMPDEST PUSH0 DUP2 CALLDATALOAD SWAP1 POP PUSH2 0x3C83 DUP2 PUSH2 0x3C5F JUMP JUMPDEST SWAP3 SWAP2 POP POP JUMP JUMPDEST PUSH0 PUSH1 0x20 DUP3 DUP5 SUB SLT ISZERO PUSH2 0x3C9E JUMPI PUSH2 0x3C9D PUSH2 0x3B9A JUMP JUMPDEST JUMPDEST PUSH0 PUSH2 0x3CAB DUP5 DUP3 DUP6 ADD PUSH2 0x3C75 JUMP JUMPDEST SWAP2 POP POP SWAP3 SWAP2 POP POP JUMP JUMPDEST PUSH0 DUP1 PUSH1 0x40 DUP4 DUP6 SUB SLT ISZERO PUSH2 0x3CCA JUMPI PUSH2 0x3CC9 PUSH2 0x3B9A JUMP JUMPDEST JUMPDEST PUSH0 PUSH2 0x3CD7 DUP6 DUP3 DUP7 ADD PUSH2 0x3BE4 JUMP JUMPDEST SWAP3 POP POP PUSH1 0x20 PUSH2 0x3CE8 DUP6 DUP3 DUP7 ADD PUSH2 0x3C75 JUMP JUMPDEST SWAP2 POP POP SWAP3 POP SWAP3 SWAP1 POP JUMP JUMPDEST PUSH2 0x3CFB DUP2 PUSH2 0x3C23 JUMP JUMPDEST DUP2 EQ PUSH2 0x3D05 JUMPI PUSH0 DUP1 REVERT JUMPDEST POP JUMP JUMPDEST PUSH0 DUP2 CALLDATALOAD SWAP1 POP PUSH2 0x3D16 DUP2 PUSH2 0x3CF2 JUMP JUMPDEST SWAP3 SWAP2 POP POP JUMP JUMPDEST PUSH0 DUP1 PUSH0 DUP1 PUSH0 DUP1 PUSH0 DUP1 PUSH2 0x100 DUP10 DUP12 SUB SLT ISZERO PUSH2 0x3D39 JUMPI PUSH2 0x3D38 PUSH2 0x3B9A JUMP JUMPDEST JUMPDEST PUSH0 PUSH2 0x3D46 DUP12 DUP3 DUP13 ADD PUSH2 0x3BE4 JUMP JUMPDEST SWAP9 POP POP PUSH1 0x20 PUSH2 0x3D57 DUP12 DUP3 DUP13 ADD PUSH2 0x3D08 JUMP JUMPDEST SWAP8 POP POP PUSH1 0x40 PUSH2 0x3D68 DUP12 DUP3 DUP13 ADD PUSH2 0x3C75 JUMP JUMPDEST SWAP7 POP POP PUSH1 0x60 PUSH2 0x3D79 DUP12 DUP3 DUP13 ADD PUSH2 0x3C75 JUMP JUMPDEST SWAP6 POP POP PUSH1 0x80 PUSH2 0x3D8A DUP12 DUP3 DUP13 ADD PUSH2 0x3C75 JUMP JUMPDEST SWAP5 POP POP PUSH1 0xA0 PUSH2 0x3D9B DUP12 DUP3 DUP13 ADD PUSH2 0x3C75 JUMP JUMPDEST SWAP4 POP POP PUSH1 0xC0 PUSH2 0x3DAC DUP12 DUP3 DUP13 ADD PUSH2 0x3C75 JUMP JUMPDEST SWAP3 POP POP PUSH1 0xE0 PUSH2 0x3DBD DUP12 DUP3 DUP13 ADD PUSH2 0x3C75 JUMP JUMPDEST SWAP2 POP POP SWAP3 SWAP6 SWAP9 POP SWAP3 SWAP6 SWAP9 SWAP1 SWAP4 SWAP7 POP JUMP JUMPDEST PUSH2 0x3DD6 DUP2 PUSH2 0x3C56 JUMP JUMPDEST DUP3 MSTORE POP POP JUMP JUMPDEST PUSH0 PUSH1 0x20 DUP3 ADD SWAP1 POP PUSH2 0x3DEF PUSH0 DUP4 ADD DUP5 PUSH2 0x3DCD JUMP JUMPDEST SWAP3 SWAP2 POP POP JUMP JUMPDEST PUSH2 0x3DFE DUP2 PUSH2 0x3BBD JUMP JUMPDEST DUP3 MSTORE POP POP JUMP JUMPDEST PUSH32 0x4E487B7100000000000000000000000000000000000000000000000000000000 PUSH0 MSTORE PUSH1 0x21 PUSH1 0x4 MSTORE PUSH1 0x24 PUSH0 REVERT JUMPDEST PUSH1 0x3 DUP2 LT PUSH2 0x3E42 JUMPI PUSH2 0x3E41 PUSH2 0x3E04 JUMP JUMPDEST JUMPDEST POP JUMP JUMPDEST PUSH0 DUP2 SWAP1 POP PUSH2 0x3E52 DUP3 PUSH2 0x3E31 JUMP JUMPDEST SWAP2 SWAP1 POP JUMP JUMPDEST PUSH0 PUSH2 0x3E61 DUP3 PUSH2 0x3E45 JUMP JUMPDEST SWAP1 POP SWAP2 SWAP1 POP JUMP JUMPDEST PUSH2 0x3E71 DUP2 PUSH2 0x3E57 JUMP JUMPDEST DUP3 MSTORE POP POP JUMP JUMPDEST PUSH0 DUP2 MLOAD SWAP1 POP SWAP2 SWAP1 POP JUMP JUMPDEST PUSH0 DUP3 DUP3 MSTORE PUSH1 0x20 DUP3 ADD SWAP1 POP SWAP3 SWAP2 POP POP JUMP JUMPDEST DUP3 DUP2 DUP4 MCOPY PUSH0 DUP4 DUP4 ADD MSTORE POP POP POP JUMP JUMPDEST PUSH0 PUSH1 0x1F NOT PUSH1 0x1F DUP4 ADD AND SWAP1 POP SWAP2 SWAP1 POP JUMP JUMPDEST PUSH0 PUSH2 0x3EB9 DUP3 PUSH2 0x3E77 JUMP JUMPDEST PUSH2 0x3EC3 DUP2 DUP6 PUSH2 0x3E81 JUMP JUMPDEST SWAP4 POP PUSH2 0x3ED3 DUP2 DUP6 PUSH1 0x20 DUP7 ADD PUSH2 0x3E91 JUMP JUMPDEST PUSH2 0x3EDC DUP2 PUSH2 0x3E9F JUMP JUMPDEST DUP5 ADD SWAP2 POP POP SWAP3 SWAP2 POP POP JUMP JUMPDEST PUSH0 PUSH1 0xE0 DUP3 ADD SWAP1 POP PUSH2 0x3EFA PUSH0 DUP4 ADD DUP11 PUSH2 0x3DCD JUMP JUMPDEST PUSH2 0x3F07 PUSH1 0x20 DUP4 ADD DUP10 PUSH2 0x3DF5 JUMP JUMPDEST PUSH2 0x3F14 PUSH1 0x40 DUP4 ADD DUP9 PUSH2 0x3DCD JUMP JUMPDEST PUSH2 0x3F21 PUSH1 0x60 DUP4 ADD DUP8 PUSH2 0x3DCD JUMP JUMPDEST PUSH2 0x3F2E PUSH1 0x80 DUP4 ADD DUP7 PUSH2 0x3E68 JUMP JUMPDEST PUSH2 0x3F3B PUSH1 0xA0 DUP4 ADD DUP6 PUSH2 0x3C2E JUMP JUMPDEST DUP2 DUP2 SUB PUSH1 0xC0 DUP4 ADD MSTORE PUSH2 0x3F4D DUP2 DUP5 PUSH2 0x3EAF JUMP JUMPDEST SWAP1 POP SWAP9 SWAP8 POP POP POP POP POP POP POP POP JUMP JUMPDEST PUSH0 DUP2 MLOAD SWAP1 POP SWAP2 SWAP1 POP JUMP JUMPDEST PUSH0 DUP3 DUP3 MSTORE PUSH1 0x20 DUP3 ADD SWAP1 POP SWAP3 SWAP2 POP POP JUMP JUMPDEST PUSH0 DUP2 SWAP1 POP PUSH1 0x20 DUP3 ADD SWAP1 POP SWAP2 SWAP1 POP JUMP JUMPDEST PUSH2 0x3F8D DUP2 PUSH2 0x3C56 JUMP JUMPDEST DUP3 MSTORE POP POP JUMP JUMPDEST PUSH2 0x3F9C DUP2 PUSH2 0x3BBD JUMP JUMPDEST DUP3 MSTORE POP POP JUMP JUMPDEST PUSH2 0x3FAB DUP2 PUSH2 0x3E57 JUMP JUMPDEST DUP3 MSTORE POP POP JUMP JUMPDEST PUSH2 0x3FBA DUP2 PUSH2 0x3C23 JUMP JUMPDEST DUP3 MSTORE POP POP JUMP JUMPDEST PUSH0 DUP3 DUP3 MSTORE PUSH1 0x20 DUP3 ADD SWAP1 POP SWAP3 SWAP2 POP POP JUMP JUMPDEST PUSH0 PUSH2 0x3FDA DUP3 PUSH2 0x3E77 JUMP JUMPDEST PUSH2 0x3FE4 DUP2 DUP6 PUSH2 0x3FC0 JUMP JUMPDEST SWAP4 POP PUSH2 0x3FF4 DUP2 DUP6 PUSH1 0x20 DUP7 ADD PUSH2 0x3E91 JUMP JUMPDEST PUSH2 0x3FFD DUP2 PUSH2 0x3E9F JUMP JUMPDEST DUP5 ADD SWAP2 POP POP SWAP3 SWAP2 POP POP JUMP JUMPDEST PUSH0 PUSH1 0xE0 DUP4 ADD PUSH0 DUP4 ADD MLOAD PUSH2 0x401D PUSH0 DUP7 ADD DUP3 PUSH2 0x3F84 JUMP JUMPDEST POP PUSH1 0x20 DUP4 ADD MLOAD PUSH2 0x4030 PUSH1 0x20 DUP7 ADD DUP3 PUSH2 0x3F93 JUMP JUMPDEST POP PUSH1 0x40 DUP4 ADD MLOAD PUSH2 0x4043 PUSH1 0x40 DUP7 ADD DUP3 PUSH2 0x3F84 JUMP JUMPDEST POP PUSH1 0x60 DUP4 ADD MLOAD PUSH2 0x4056 PUSH1 0x60 DUP7 ADD DUP3 PUSH2 0x3F84 JUMP JUMPDEST POP PUSH1 0x80 DUP4 ADD MLOAD PUSH2 0x4069 PUSH1 0x80 DUP7 ADD DUP3 PUSH2 0x3FA2 JUMP JUMPDEST POP PUSH1 0xA0 DUP4 ADD MLOAD PUSH2 0x407C PUSH1 0xA0 DUP7 ADD DUP3 PUSH2 0x3FB1 JUMP JUMPDEST POP PUSH1 0xC0 DUP4 ADD MLOAD DUP5 DUP3 SUB PUSH1 0xC0 DUP7 ADD MSTORE PUSH2 0x4094 DUP3 DUP3 PUSH2 0x3FD0 JUMP JUMPDEST SWAP2 POP POP DUP1 SWAP2 POP POP SWAP3 SWAP2 POP POP JUMP JUMPDEST PUSH0 PUSH2 0x40AC DUP4 DUP4 PUSH2 0x4008 JUMP JUMPDEST SWAP1 POP SWAP3 SWAP2 POP POP JUMP JUMPDEST PUSH0 PUSH1 0x20 DUP3 ADD SWAP1 POP SWAP2 SWAP1 POP JUMP JUMPDEST PUSH0 PUSH2 0x40CA DUP3 PUSH2 0x3F5B JUMP JUMPDEST PUSH2 0x40D4 DUP2 DUP6 PUSH2 0x3F65 JUMP JUMPDEST SWAP4 POP DUP4 PUSH1 0x20 DUP3 MUL DUP6 ADD PUSH2 0x40E6 DUP6 PUSH2 0x3F75 JUMP JUMPDEST DUP1 PUSH0 JUMPDEST DUP6 DUP2 LT ISZERO PUSH2 0x4121 JUMPI DUP5 DUP5 SUB DUP10 MSTORE DUP2 MLOAD PUSH2 0x4102 DUP6 DUP3 PUSH2 0x40A1 JUMP JUMPDEST SWAP5 POP PUSH2 0x410D DUP4 PUSH2 0x40B4 JUMP JUMPDEST SWAP3 POP PUSH1 0x20 DUP11 ADD SWAP10 POP POP PUSH1 0x1 DUP2 ADD SWAP1 POP PUSH2 0x40E9 JUMP JUMPDEST POP DUP3 SWAP8 POP DUP8 SWAP6 POP POP POP POP POP POP SWAP3 SWAP2 POP POP JUMP JUMPDEST PUSH0 PUSH1 0x20 DUP3 ADD SWAP1 POP DUP2 DUP2 SUB PUSH0 DUP4 ADD MSTORE PUSH2 0x414B DUP2 DUP5 PUSH2 0x40C0 JUMP JUMPDEST SWAP1 POP SWAP3 SWAP2 POP POP JUMP JUMPDEST PUSH0 DUP2 MLOAD SWAP1 POP SWAP2 SWAP1 POP JUMP JUMPDEST PUSH0 DUP3 DUP3 MSTORE PUSH1 0x20 DUP3 ADD SWAP1 POP SWAP3 SWAP2 POP POP JUMP JUMPDEST PUSH0 DUP2 SWAP1 POP PUSH1 0x20 DUP3 ADD SWAP1 POP SWAP2 SWAP1 POP JUMP JUMPDEST PUSH0 PUSH2 0x4187 DUP4 DUP4 PUSH2 0x3F93 JUMP JUMPDEST PUSH1 0x20 DUP4 ADD SWAP1 POP SWAP3 SWAP2 POP POP JUMP JUMPDEST PUSH0 PUSH1 0x20 DUP3 ADD SWAP1 POP SWAP2 SWAP1 POP JUMP JUMPDEST PUSH0 PUSH2 0x41A9 DUP3 PUSH2 0x4153 JUMP JUMPDEST PUSH2 0x41B3 DUP2 DUP6 PUSH2 0x415D JUMP JUMPDEST SWAP4 POP PUSH2 0x41BE DUP4 PUSH2 0x416D JUMP JUMPDEST DUP1 PUSH0 JUMPDEST DUP4 DUP2 LT ISZERO PUSH2 0x41EE JUMPI DUP2 MLOAD PUSH2 0x41D5 DUP9 DUP3 PUSH2 0x417C JUMP JUMPDEST SWAP8 POP PUSH2 0x41E0 DUP4 PUSH2 0x4193 JUMP JUMPDEST SWAP3 POP POP PUSH1 0x1 DUP2 ADD SWAP1 POP PUSH2 0x41C1 JUMP JUMPDEST POP DUP6 SWAP4 POP POP POP POP SWAP3 SWAP2 POP POP JUMP JUMPDEST PUSH0 PUSH1 0x20 DUP3 ADD SWAP1 POP DUP2 DUP2 SUB PUSH0 DUP4 ADD MSTORE PUSH2 0x4213 DUP2 DUP5 PUSH2 0x419F JUMP JUMPDEST SWAP1 POP SWAP3 SWAP2 POP POP JUMP JUMPDEST PUSH0 DUP1 PUSH0 PUSH1 0x60 DUP5 DUP7 SUB SLT ISZERO PUSH2 0x4232 JUMPI PUSH2 0x4231 PUSH2 0x3B9A JUMP JUMPDEST JUMPDEST PUSH0 PUSH2 0x423F DUP7 DUP3 DUP8 ADD PUSH2 0x3C75 JUMP JUMPDEST SWAP4 POP POP PUSH1 0x20 PUSH2 0x4250 DUP7 DUP3 DUP8 ADD PUSH2 0x3C75 JUMP JUMPDEST SWAP3 POP POP PUSH1 0x40 PUSH2 0x4261 DUP7 DUP3 DUP8 ADD PUSH2 0x3C75 JUMP JUMPDEST SWAP2 POP POP SWAP3 POP SWAP3 POP SWAP3 JUMP JUMPDEST PUSH0 PUSH1 0x20 DUP3 ADD SWAP1 POP PUSH2 0x427E PUSH0 DUP4 ADD DUP5 PUSH2 0x3DF5 JUMP JUMPDEST SWAP3 SWAP2 POP POP JUMP JUMPDEST PUSH0 DUP2 MLOAD SWAP1 POP SWAP2 SWAP1 POP JUMP JUMPDEST PUSH0 DUP3 DUP3 MSTORE PUSH1 0x20 DUP3 ADD SWAP1 POP SWAP3 SWAP2 POP POP JUMP JUMPDEST PUSH0 DUP2 SWAP1 POP PUSH1 0x20 DUP3 ADD SWAP1 POP SWAP2 SWAP1 POP JUMP JUMPDEST PUSH0 PUSH2 0x42B8 DUP4 DUP4 PUSH2 0x3F84 JUMP JUMPDEST PUSH1 0x20 DUP4 ADD SWAP1 POP SWAP3 SWAP2 POP POP JUMP JUMPDEST PUSH0 PUSH1 0x20 DUP3 ADD SWAP1 POP SWAP2 SWAP1 POP JUMP JUMPDEST PUSH0 PUSH2 0x42DA DUP3 PUSH2 0x4284 JUMP JUMPDEST PUSH2 0x42E4 DUP2 DUP6 PUSH2 0x428E JUMP JUMPDEST SWAP4 POP PUSH2 0x42EF DUP4 PUSH2 0x429E JUMP JUMPDEST DUP1 PUSH0 JUMPDEST DUP4 DUP2 LT ISZERO PUSH2 0x431F JUMPI DUP2 MLOAD PUSH2 0x4306 DUP9 DUP3 PUSH2 0x42AD JUMP JUMPDEST SWAP8 POP PUSH2 0x4311 DUP4 PUSH2 0x42C4 JUMP JUMPDEST SWAP3 POP POP PUSH1 0x1 DUP2 ADD SWAP1 POP PUSH2 0x42F2 JUMP JUMPDEST POP DUP6 SWAP4 POP POP POP POP SWAP3 SWAP2 POP POP JUMP JUMPDEST PUSH0 PUSH1 0x80 DUP3 ADD SWAP1 POP DUP2 DUP2 SUB PUSH0 DUP4 ADD MSTORE PUSH2 0x4344 DUP2 DUP8 PUSH2 0x42D0 JUMP JUMPDEST SWAP1 POP DUP2 DUP2 SUB PUSH1 0x20 DUP4 ADD MSTORE PUSH2 0x4358 DUP2 DUP7 PUSH2 0x419F JUMP JUMPDEST SWAP1 POP DUP2 DUP2 SUB PUSH1 0x40 DUP4 ADD MSTORE PUSH2 0x436C DUP2 DUP6 PUSH2 0x42D0 JUMP JUMPDEST SWAP1 POP DUP2 DUP2 SUB PUSH1 0x60 DUP4 ADD MSTORE PUSH2 0x4380 DUP2 DUP5 PUSH2 0x42D0 JUMP JUMPDEST SWAP1 POP SWAP6 SWAP5 POP POP POP POP POP JUMP JUMPDEST PUSH0 DUP1 PUSH1 0x40 DUP4 DUP6 SUB SLT ISZERO PUSH2 0x43A1 JUMPI PUSH2 0x43A0 PUSH2 0x3B9A JUMP JUMPDEST JUMPDEST PUSH0 PUSH2 0x43AE DUP6 DUP3 DUP7 ADD PUSH2 0x3BE4 JUMP JUMPDEST SWAP3 POP POP PUSH1 0x20 PUSH2 0x43BF DUP6 DUP3 DUP7 ADD PUSH2 0x3BE4 JUMP JUMPDEST SWAP2 POP POP SWAP3 POP SWAP3 SWAP1 POP JUMP JUMPDEST PUSH0 PUSH1 0xE0 DUP3 ADD SWAP1 POP PUSH2 0x43DC PUSH0 DUP4 ADD DUP11 PUSH2 0x3C2E JUMP JUMPDEST PUSH2 0x43E9 PUSH1 0x20 DUP4 ADD DUP10 PUSH2 0x3DCD JUMP JUMPDEST PUSH2 0x43F6 PUSH1 0x40 DUP4 ADD DUP9 PUSH2 0x3DCD JUMP JUMPDEST PUSH2 0x4403 PUSH1 0x60 DUP4 ADD DUP8 PUSH2 0x3DCD JUMP JUMPDEST PUSH2 0x4410 PUSH1 0x80 DUP4 ADD DUP7 PUSH2 0x3DCD JUMP JUMPDEST PUSH2 0x441D PUSH1 0xA0 DUP4 ADD DUP6 PUSH2 0x3DCD JUMP JUMPDEST PUSH2 0x442A PUSH1 0xC0 DUP4 ADD DUP5 PUSH2 0x3DCD JUMP JUMPDEST SWAP9 SWAP8 POP POP POP POP POP POP POP POP JUMP JUMPDEST PUSH0 DUP2 MLOAD SWAP1 POP SWAP2 SWAP1 POP JUMP JUMPDEST PUSH0 DUP3 DUP3 MSTORE PUSH1 0x20 DUP3 ADD SWAP1 POP SWAP3 SWAP2 POP POP JUMP JUMPDEST PUSH0 DUP2 SWAP1 POP PUSH1 0x20 DUP3 ADD SWAP1 POP SWAP2 SWAP1 POP JUMP JUMPDEST PUSH1 0xE0 DUP3 ADD PUSH0 DUP3 ADD MLOAD PUSH2 0x4473 PUSH0 DUP6 ADD DUP3 PUSH2 0x3FB1 JUMP JUMPDEST POP PUSH1 0x20 DUP3 ADD MLOAD PUSH2 0x4486 PUSH1 0x20 DUP6 ADD DUP3 PUSH2 0x3F84 JUMP JUMPDEST POP PUSH1 0x40 DUP3 ADD MLOAD PUSH2 0x4499 PUSH1 0x40 DUP6 ADD DUP3 PUSH2 0x3F84 JUMP JUMPDEST POP PUSH1 0x60 DUP3 ADD MLOAD PUSH2 0x44AC PUSH1 0x60 DUP6 ADD DUP3 PUSH2 0x3F84 JUMP JUMPDEST POP PUSH1 0x80 DUP3 ADD MLOAD PUSH2 0x44BF PUSH1 0x80 DUP6 ADD DUP3 PUSH2 0x3F84 JUMP JUMPDEST POP PUSH1 0xA0 DUP3 ADD MLOAD PUSH2 0x44D2 PUSH1 0xA0 DUP6 ADD DUP3 PUSH2 0x3F84 JUMP JUMPDEST POP PUSH1 0xC0 DUP3 ADD MLOAD PUSH2 0x44E5 PUSH1 0xC0 DUP6 ADD DUP3 PUSH2 0x3F84 JUMP JUMPDEST POP POP POP POP JUMP JUMPDEST PUSH0 PUSH2 0x44F6 DUP4 DUP4 PUSH2 0x445F JUMP JUMPDEST PUSH1 0xE0 DUP4 ADD SWAP1 POP SWAP3 SWAP2 POP POP JUMP JUMPDEST PUSH0 PUSH1 0x20 DUP3 ADD SWAP1 POP SWAP2 SWAP1 POP JUMP JUMPDEST PUSH0 PUSH2 0x4518 DUP3 PUSH2 0x4436 JUMP JUMPDEST PUSH2 0x4522 DUP2 DUP6 PUSH2 0x4440 JUMP JUMPDEST SWAP4 POP PUSH2 0x452D DUP4 PUSH2 0x4450 JUMP JUMPDEST DUP1 PUSH0 JUMPDEST DUP4 DUP2 LT ISZERO PUSH2 0x455D JUMPI DUP2 MLOAD PUSH2 0x4544 DUP9 DUP3 PUSH2 0x44EB JUMP JUMPDEST SWAP8 POP PUSH2 0x454F DUP4 PUSH2 0x4502 JUMP JUMPDEST SWAP3 POP POP PUSH1 0x1 DUP2 ADD SWAP1 POP PUSH2 0x4530 JUMP JUMPDEST POP DUP6 SWAP4 POP POP POP POP SWAP3 SWAP2 POP POP JUMP JUMPDEST PUSH0 PUSH1 0x20 DUP3 ADD SWAP1 POP DUP2 DUP2 SUB PUSH0 DUP4 ADD MSTORE PUSH2 0x4582 DUP2 DUP5 PUSH2 0x450E JUMP JUMPDEST SWAP1 POP SWAP3 SWAP2 POP POP JUMP JUMPDEST PUSH32 0x416C7265616479207265676973746572656420617320616E20656D706C6F7965 PUSH0 DUP3 ADD MSTORE PUSH32 0x7200000000000000000000000000000000000000000000000000000000000000 PUSH1 0x20 DUP3 ADD MSTORE POP JUMP JUMPDEST PUSH0 PUSH2 0x45E4 PUSH1 0x21 DUP4 PUSH2 0x3E81 JUMP JUMPDEST SWAP2 POP PUSH2 0x45EF DUP3 PUSH2 0x458A JUMP JUMPDEST PUSH1 0x40 DUP3 ADD SWAP1 POP SWAP2 SWAP1 POP JUMP JUMPDEST PUSH0 PUSH1 0x20 DUP3 ADD SWAP1 POP DUP2 DUP2 SUB PUSH0 DUP4 ADD MSTORE PUSH2 0x4611 DUP2 PUSH2 0x45D8 JUMP JUMPDEST SWAP1 POP SWAP2 SWAP1 POP JUMP JUMPDEST PUSH32 0x4E6F7420616E20656D706C6F7965720000000000000000000000000000000000 PUSH0 DUP3 ADD MSTORE POP JUMP JUMPDEST PUSH0 PUSH2 0x464C PUSH1 0xF DUP4 PUSH2 0x3E81 JUMP JUMPDEST SWAP2 POP PUSH2 0x4657 DUP3 PUSH2 0x4618 JUMP JUMPDEST PUSH1 0x20 DUP3 ADD SWAP1 POP SWAP2 SWAP1 POP JUMP JUMPDEST PUSH0 PUSH1 0x20 DUP3 ADD SWAP1 POP DUP2 DUP2 SUB PUSH0 DUP4 ADD MSTORE PUSH2 0x4679 DUP2 PUSH2 0x4640 JUMP JUMPDEST SWAP1 POP SWAP2 SWAP1 POP JUMP JUMPDEST PUSH32 0x496E73756666696369656E742066756E64730000000000000000000000000000 PUSH0 DUP3 ADD MSTORE POP JUMP JUMPDEST PUSH0 PUSH2 0x46B4 PUSH1 0x12 DUP4 PUSH2 0x3E81 JUMP JUMPDEST SWAP2 POP PUSH2 0x46BF DUP3 PUSH2 0x4680 JUMP JUMPDEST PUSH1 0x20 DUP3 ADD SWAP1 POP SWAP2 SWAP1 POP JUMP JUMPDEST PUSH0 PUSH1 0x20 DUP3 ADD SWAP1 POP DUP2 DUP2 SUB PUSH0 DUP4 ADD MSTORE PUSH2 0x46E1 DUP2 PUSH2 0x46A8 JUMP JUMPDEST SWAP1 POP SWAP2 SWAP1 POP JUMP JUMPDEST PUSH32 0x416D6F756E74206D7573742062652067726561746572207468616E207A65726F PUSH0 DUP3 ADD MSTORE POP JUMP JUMPDEST PUSH0 PUSH2 0x471C PUSH1 0x20 DUP4 PUSH2 0x3E81 JUMP JUMPDEST SWAP2 POP PUSH2 0x4727 DUP3 PUSH2 0x46E8 JUMP JUMPDEST PUSH1 0x20 DUP3 ADD SWAP1 POP SWAP2 SWAP1 POP JUMP JUMPDEST PUSH0 PUSH1 0x20 DUP3 ADD SWAP1 POP DUP2 DUP2 SUB PUSH0 DUP4 ADD MSTORE PUSH2 0x4749 DUP2 PUSH2 0x4710 JUMP JUMPDEST SWAP1 POP SWAP2 SWAP1 POP JUMP JUMPDEST PUSH32 0x4E487B7100000000000000000000000000000000000000000000000000000000 PUSH0 MSTORE PUSH1 0x11 PUSH1 0x4 MSTORE PUSH1 0x24 PUSH0 REVERT JUMPDEST PUSH0 PUSH2 0x4787 DUP3 PUSH2 0x3C56 JUMP JUMPDEST SWAP2 POP PUSH2 0x4792 DUP4 PUSH2 0x3C56 JUMP JUMPDEST SWAP3 POP DUP3 DUP3 SUB SWAP1 POP DUP2 DUP2 GT ISZERO PUSH2 0x47AA JUMPI PUSH2 0x47A9 PUSH2 0x4750 JUMP JUMPDEST JUMPDEST SWAP3 SWAP2 POP POP JUMP JUMPDEST PUSH32 0x456D706C6F796565206E6F7420666F756E640000000000000000000000000000 PUSH0 DUP3 ADD MSTORE POP JUMP JUMPDEST PUSH0 PUSH2 0x47E4 PUSH1 0x12 DUP4 PUSH2 0x3E81 JUMP JUMPDEST SWAP2 POP PUSH2 0x47EF DUP3 PUSH2 0x47B0 JUMP JUMPDEST PUSH1 0x20 DUP3 ADD SWAP1 POP SWAP2 SWAP1 POP JUMP JUMPDEST PUSH0 PUSH1 0x20 DUP3 ADD SWAP1 POP DUP2 DUP2 SUB PUSH0 DUP4 ADD MSTORE PUSH2 0x4811 DUP2 PUSH2 0x47D8 JUMP JUMPDEST SWAP1 POP SWAP2 SWAP1 POP JUMP JUMPDEST PUSH0 PUSH2 0x4822 DUP3 PUSH2 0x3C56 JUMP JUMPDEST SWAP2 POP PUSH32 0xFFFFFFFFFFFFFFFFFFFFFFFFFFFFFFFFFFFFFFFFFFFFFFFFFFFFFFFFFFFFFFFF DUP3 SUB PUSH2 0x4854 JUMPI PUSH2 0x4853 PUSH2 0x4750 JUMP JUMPDEST JUMPDEST PUSH1 0x1 DUP3 ADD SWAP1 POP SWAP2 SWAP1 POP JUMP JUMPDEST PUSH32 0x4E487B7100000000000000000000000000000000000000000000000000000000 PUSH0 MSTORE PUSH1 0x41 PUSH1 0x4 MSTORE PUSH1 0x24 PUSH0 REVERT JUMPDEST PUSH32 0x4E487B7100000000000000000000000000000000000000000000000000000000 PUSH0 MSTORE PUSH1 0x22 PUSH1 0x4 MSTORE PUSH1 0x24 PUSH0 REVERT JUMPDEST PUSH0 PUSH1 0x2 DUP3 DIV SWAP1 POP PUSH1 0x1 DUP3 AND DUP1 PUSH2 0x48D0 JUMPI PUSH1 0x7F DUP3 AND SWAP2 POP JUMPDEST PUSH1 0x20 DUP3 LT DUP2 SUB PUSH2 0x48E3 JUMPI PUSH2 0x48E2 PUSH2 0x488C JUMP JUMPDEST JUMPDEST POP SWAP2 SWAP1 POP JUMP JUMPDEST PUSH0 DUP2 SWAP1 POP DUP2 PUSH0 MSTORE PUSH1 0x20 PUSH0 KECCAK256 SWAP1 POP SWAP2 SWAP1 POP JUMP JUMPDEST PUSH0 PUSH1 0x20 PUSH1 0x1F DUP4 ADD DIV SWAP1 POP SWAP2 SWAP1 POP JUMP JUMPDEST PUSH0 DUP3 DUP3 SHL SWAP1 POP SWAP3 SWAP2 POP POP JUMP JUMPDEST PUSH0 PUSH1 0x8 DUP4 MUL PUSH2 0x4945 PUSH32 0xFFFFFFFFFFFFFFFFFFFFFFFFFFFFFFFFFFFFFFFFFFFFFFFFFFFFFFFFFFFFFFFF DUP3 PUSH2 0x490A JUMP JUMPDEST PUSH2 0x494F DUP7 DUP4 PUSH2 0x490A JUMP JUMPDEST SWAP6 POP DUP1 NOT DUP5 AND SWAP4 POP DUP1 DUP7 AND DUP5 OR SWAP3 POP POP POP SWAP4 SWAP3 POP POP POP JUMP JUMPDEST PUSH0 DUP2 SWAP1 POP SWAP2 SWAP1 POP JUMP JUMPDEST PUSH0 PUSH2 0x498A PUSH2 0x4985 PUSH2 0x4980 DUP5 PUSH2 0x3C56 JUMP JUMPDEST PUSH2 0x4967 JUMP JUMPDEST PUSH2 0x3C56 JUMP JUMPDEST SWAP1 POP SWAP2 SWAP1 POP JUMP JUMPDEST PUSH0 DUP2 SWAP1 POP SWAP2 SWAP1 POP JUMP JUMPDEST PUSH2 0x49A3 DUP4 PUSH2 0x4970 JUMP JUMPDEST PUSH2 0x49B7 PUSH2 0x49AF DUP3 PUSH2 0x4991 JUMP JUMPDEST DUP5 DUP5 SLOAD PUSH2 0x4916 JUMP JUMPDEST DUP3 SSTORE POP POP POP POP JUMP JUMPDEST PUSH0 SWAP1 JUMP JUMPDEST PUSH2 0x49CB PUSH2 0x49BF JUMP JUMPDEST PUSH2 0x49D6 DUP2 DUP5 DUP5 PUSH2 0x499A JUMP JUMPDEST POP POP POP JUMP JUMPDEST JUMPDEST DUP2 DUP2 LT ISZERO PUSH2 0x49F9 JUMPI PUSH2 0x49EE PUSH0 DUP3 PUSH2 0x49C3 JUMP JUMPDEST PUSH1 0x1 DUP2 ADD SWAP1 POP PUSH2 0x49DC JUMP JUMPDEST POP POP JUMP JUMPDEST PUSH1 0x1F DUP3 GT ISZERO PUSH2 0x4A3E JUMPI PUSH2 0x4A0F DUP2 PUSH2 0x48E9 JUMP JUMPDEST PUSH2 0x4A18 DUP5 PUSH2 0x48FB JUMP JUMPDEST DUP2 ADD PUSH1 0x20 DUP6 LT ISZERO PUSH2 0x4A27 JUMPI DUP2 SWAP1 POP JUMPDEST PUSH2 0x4A3B PUSH2 0x4A33 DUP6 PUSH2 0x48FB JUMP JUMPDEST DUP4 ADD DUP3 PUSH2 0x49DB JUMP JUMPDEST POP POP JUMPDEST POP POP POP JUMP JUMPDEST PUSH0 DUP3 DUP3 SHR SWAP1 POP SWAP3 SWAP2 POP POP JUMP JUMPDEST PUSH0 PUSH2 0x4A5E PUSH0 NOT DUP5 PUSH1 0x8 MUL PUSH2 0x4A43 JUMP JUMPDEST NOT DUP1 DUP4 AND SWAP2 POP POP SWAP3 SWAP2 POP POP JUMP JUMPDEST PUSH0 PUSH2 0x4A76 DUP4 DUP4 PUSH2 0x4A4F JUMP JUMPDEST SWAP2 POP DUP3 PUSH1 0x2 MUL DUP3 OR SWAP1 POP SWAP3 SWAP2 POP POP JUMP JUMPDEST PUSH2 0x4A8F DUP3 PUSH2 0x3E77 JUMP JUMPDEST PUSH8 0xFFFFFFFFFFFFFFFF DUP2 GT ISZERO PUSH2 0x4AA8 JUMPI PUSH2 0x4AA7 PUSH2 0x485F JUMP JUMPDEST JUMPDEST PUSH2 0x4AB2 DUP3 SLOAD PUSH2 0x48B9 JUMP JUMPDEST PUSH2 0x4ABD DUP3 DUP3 DUP6 PUSH2 0x49FD JUMP JUMPDEST PUSH0 PUSH1 0x20 SWAP1 POP PUSH1 0x1F DUP4 GT PUSH1 0x1 DUP2 EQ PUSH2 0x4AEE JUMPI PUSH0 DUP5 ISZERO PUSH2 0x4ADC JUMPI DUP3 DUP8 ADD MLOAD SWAP1 POP JUMPDEST PUSH2 0x4AE6 DUP6 DUP3 PUSH2 0x4A6B JUMP JUMPDEST DUP7 SSTORE POP PUSH2 0x4B4D JUMP JUMPDEST PUSH1 0x1F NOT DUP5 AND PUSH2 0x4AFC DUP7 PUSH2 0x48E9 JUMP JUMPDEST PUSH0 JUMPDEST DUP3 DUP2 LT ISZERO PUSH2 0x4B23 JUMPI DUP5 DUP10 ADD MLOAD DUP3 SSTORE PUSH1 0x1 DUP3 ADD SWAP2 POP PUSH1 0x20 DUP6 ADD SWAP5 POP PUSH1 0x20 DUP2 ADD SWAP1 POP PUSH2 0x4AFE JUMP JUMPDEST DUP7 DUP4 LT ISZERO PUSH2 0x4B40 JUMPI DUP5 DUP10 ADD MLOAD PUSH2 0x4B3C PUSH1 0x1F DUP10 AND DUP3 PUSH2 0x4A4F JUMP JUMPDEST DUP4 SSTORE POP JUMPDEST PUSH1 0x1 PUSH1 0x2 DUP9 MUL ADD DUP9 SSTORE POP POP POP JUMPDEST POP POP POP POP POP POP JUMP JUMPDEST PUSH0 PUSH1 0x40 DUP3 ADD SWAP1 POP PUSH2 0x4B68 PUSH0 DUP4 ADD DUP6 PUSH2 0x3DCD JUMP JUMPDEST PUSH2 0x4B75 PUSH1 0x20 DUP4 ADD DUP5 PUSH2 0x3DCD JUMP JUMPDEST SWAP4 SWAP3 POP POP POP JUMP JUMPDEST PUSH32 0x496E76616C696420656D706C6F79656500000000000000000000000000000000 PUSH0 DUP3 ADD MSTORE POP JUMP JUMPDEST PUSH0 PUSH2 0x4BB0 PUSH1 0x10 DUP4 PUSH2 0x3E81 JUMP JUMPDEST SWAP2 POP PUSH2 0x4BBB DUP3 PUSH2 0x4B7C JUMP JUMPDEST PUSH1 0x20 DUP3 ADD SWAP1 POP SWAP2 SWAP1 POP JUMP JUMPDEST PUSH0 PUSH1 0x20 DUP3 ADD SWAP1 POP DUP2 DUP2 SUB PUSH0 DUP4 ADD MSTORE PUSH2 0x4BDD DUP2 PUSH2 0x4BA4 JUMP JUMPDEST SWAP1 POP SWAP2 SWAP1 POP JUMP JUMPDEST PUSH32 0x456D706C6F79656520616C726561647920616464656400000000000000000000 PUSH0 DUP3 ADD MSTORE POP JUMP JUMPDEST PUSH0 PUSH2 0x4C18 PUSH1 0x16 DUP4 PUSH2 0x3E81 JUMP JUMPDEST SWAP2 POP PUSH2 0x4C23 DUP3 PUSH2 0x4BE4 JUMP JUMPDEST PUSH1 0x20 DUP3 ADD SWAP1 POP SWAP2 SWAP1 POP JUMP JUMPDEST PUSH0 PUSH1 0x20 DUP3 ADD SWAP1 POP DUP2 DUP2 SUB PUSH0 DUP4 ADD MSTORE PUSH2 0x4C45 DUP2 PUSH2 0x4C0C JUMP JUMPDEST SWAP1 POP SWAP2 SWAP1 POP JUMP JUMPDEST PUSH0 PUSH2 0x4C56 DUP3 PUSH2 0x3C56 JUMP JUMPDEST SWAP2 POP PUSH2 0x4C61 DUP4 PUSH2 0x3C56 JUMP JUMPDEST SWAP3 POP DUP3 DUP3 ADD SWAP1 POP DUP1 DUP3 GT ISZERO PUSH2 0x4C79 JUMPI PUSH2 0x4C78 PUSH2 0x4750 JUMP JUMPDEST JUMPDEST SWAP3 SWAP2 POP POP JUMP JUMPDEST PUSH32 0x4E487B7100000000000000000000000000000000000000000000000000000000 PUSH0 MSTORE PUSH1 0x32 PUSH1 0x4 MSTORE PUSH1 0x24 PUSH0 REVERT JUMPDEST PUSH32 0x54696D656C6F636B206973206E6F742071756575656400000000000000000000 PUSH0 DUP3 ADD MSTORE POP JUMP JUMPDEST PUSH0 PUSH2 0x4CE0 PUSH1 0x16 DUP4 PUSH2 0x3E81 JUMP JUMPDEST SWAP2 POP PUSH2 0x4CEB DUP3 PUSH2 0x4CAC JUMP JUMPDEST PUSH1 0x20 DUP3 ADD SWAP1 POP SWAP2 SWAP1 POP JUMP JUMPDEST PUSH0 PUSH1 0x20 DUP3 ADD SWAP1 POP DUP2 DUP2 SUB PUSH0 DUP4 ADD MSTORE PUSH2 0x4D0D DUP2 PUSH2 0x4CD4 JUMP JUMPDEST SWAP1 POP SWAP2 SWAP1 POP JUMP JUMPDEST PUSH32 0x54696D656C6F636B206E6F742070617373656400000000000000000000000000 PUSH0 DUP3 ADD MSTORE POP JUMP JUMPDEST PUSH0 PUSH2 0x4D48 PUSH1 0x13 DUP4 PUSH2 0x3E81 JUMP JUMPDEST SWAP2 POP PUSH2 0x4D53 DUP3 PUSH2 0x4D14 JUMP JUMPDEST PUSH1 0x20 DUP3 ADD SWAP1 POP SWAP2 SWAP1 POP JUMP JUMPDEST PUSH0 PUSH1 0x20 DUP3 ADD SWAP1 POP DUP2 DUP2 SUB PUSH0 DUP4 ADD MSTORE PUSH2 0x4D75 DUP2 PUSH2 0x4D3C JUMP JUMPDEST SWAP1 POP SWAP2 SWAP1 POP JUMP JUMPDEST PUSH32 0x53616C61727920616C72656164792070726F6365737365640000000000000000 PUSH0 DUP3 ADD MSTORE POP JUMP JUMPDEST PUSH0 PUSH2 0x4DB0 PUSH1 0x18 DUP4 PUSH2 0x3E81 JUMP JUMPDEST SWAP2 POP PUSH2 0x4DBB DUP3 PUSH2 0x4D7C JUMP JUMPDEST PUSH1 0x20 DUP3 ADD SWAP1 POP SWAP2 SWAP1 POP JUMP JUMPDEST PUSH0 PUSH1 0x20 DUP3 ADD SWAP1 POP DUP2 DUP2 SUB PUSH0 DUP4 ADD MSTORE PUSH2 0x4DDD DUP2 PUSH2 0x4DA4 JUMP JUMPDEST SWAP1 POP SWAP2 SWAP1 POP JUMP JUMPDEST PUSH32 0x4E487B7100000000000000000000000000000000000000000000000000000000 PUSH0 MSTORE PUSH1 0x31 PUSH1 0x4 MSTORE PUSH1 0x24 PUSH0 REVERT JUMPDEST PUSH0 PUSH1 0x60 DUP3 ADD SWAP1 POP PUSH2 0x4E24 PUSH0 DUP4 ADD DUP7 PUSH2 0x3DCD JUMP JUMPDEST PUSH2 0x4E31 PUSH1 0x20 DUP4 ADD DUP6 PUSH2 0x3DCD JUMP JUMPDEST PUSH2 0x4E3E PUSH1 0x40 DUP4 ADD DUP5 PUSH2 0x3DCD JUMP JUMPDEST SWAP5 SWAP4 POP POP POP POP JUMP JUMPDEST PUSH32 0x4D7573742073656E6420457468657220746F2066756E64206163636F756E7400 PUSH0 DUP3 ADD MSTORE POP JUMP JUMPDEST PUSH0 PUSH2 0x4E7A PUSH1 0x1F DUP4 PUSH2 0x3E81 JUMP JUMPDEST SWAP2 POP PUSH2 0x4E85 DUP3 PUSH2 0x4E46 JUMP JUMPDEST PUSH1 0x20 DUP3 ADD SWAP1 POP SWAP2 SWAP1 POP JUMP JUMPDEST PUSH0 PUSH1 0x20 DUP3 ADD SWAP1 POP DUP2 DUP2 SUB PUSH0 DUP4 ADD MSTORE PUSH2 0x4EA7 DUP2 PUSH2 0x4E6E JUMP JUMPDEST SWAP1 POP SWAP2 SWAP1 POP JUMP JUMPDEST PUSH0 PUSH2 0x4EB8 DUP3 PUSH2 0x3C56 JUMP JUMPDEST SWAP2 POP PUSH2 0x4EC3 DUP4 PUSH2 0x3C56 JUMP JUMPDEST SWAP3 POP DUP3 DUP3 MUL PUSH2 0x4ED1 DUP2 PUSH2 0x3C56 JUMP JUMPDEST SWAP2 POP DUP3 DUP3 DIV DUP5 EQ DUP4 ISZERO OR PUSH2 0x4EE8 JUMPI PUSH2 0x4EE7 PUSH2 0x4750 JUMP JUMPDEST JUMPDEST POP SWAP3 SWAP2 POP POP JUMP JUMPDEST PUSH32 0x4E487B7100000000000000000000000000000000000000000000000000000000 PUSH0 MSTORE PUSH1 0x12 PUSH1 0x4 MSTORE PUSH1 0x24 PUSH0 REVERT JUMPDEST PUSH0 PUSH2 0x4F26 DUP3 PUSH2 0x3C56 JUMP JUMPDEST SWAP2 POP PUSH2 0x4F31 DUP4 PUSH2 0x3C56 JUMP JUMPDEST SWAP3 POP DUP3 PUSH2 0x4F41 JUMPI PUSH2 0x4F40 PUSH2 0x4EEF JUMP JUMPDEST JUMPDEST DUP3 DUP3 DIV SWAP1 POP SWAP3 SWAP2 POP POP JUMP INVALID MSTORE8 PUSH2 0x6C61 PUSH19 0x792074696D656C6F636B20666F7220616C6C20 PUSH6 0x6D706C6F7965 PUSH6 0x73A264697066 PUSH20 0x5822122080747EA13F7DC797F5996B79FC267238 0xBD PUSH28 0xA79ADDED4E594597D0AB8FCAA97664736F6C634300081A0033000000 "
		},
		"gasEstimates": {
			"creation": {
				"codeDepositCost": "4077400",
				"executionCost": "28937",
				"totalCost": "4106337"
			},
			"external": {
				"addEmployee(address,bool,uint256,uint256,uint256,uint256,uint256,uint256)": "infinite",
				"calculateSalary(address,address)": "infinite",
				"checkEmployeeList(address)": "infinite",
				"checkSalaryTimelocks()": "infinite",
				"deleteEmployee(address)": "infinite",
				"deleteTimelock(uint256)": "infinite",
				"employerBalances(address)": "2914",
				"employerEmployeeList(address,uint256)": "infinite",
				"employerEmployees(address,address)": "infinite",
				"employerToEmployee(address,address)": "infinite",
				"employers(address)": "2880",
				"fundEmployer()": "infinite",
				"getAllEmployees()": "infinite",
				"getEmployerBalance(address)": "2919",
				"modifyEmployeeDetails(address,bool,uint256,uint256,uint256,uint256,uint256,uint256)": "infinite",
				"modifyTimelock(uint256,uint256,uint256)": "infinite",
				"owner()": "2572",
				"payAllSalaries()": "infinite",
				"payIndividualSalary(uint256)": "infinite",
				"registerEmployer()": "26807",
				"salaryTransactions(address,uint256)": "infinite",
				"setSalaryTimelock(address,uint256)": "infinite",
				"setSalaryTimelockForAll(uint256)": "infinite",
				"txCounter()": "2471",
				"viewCancelledTimelocks()": "infinite",
				"viewExecutedTimelocks()": "infinite",
				"viewQueuedTimelocks()": "infinite",
				"withdrawFunds(uint256)": "infinite"
			},
			"internal": {
				"filterTimelocksByStatus(enum PayrollDApp.TimelockStatus)": "infinite"
			}
		},
		"methodIdentifiers": {
			"addEmployee(address,bool,uint256,uint256,uint256,uint256,uint256,uint256)": "2bc95de1",
			"calculateSalary(address,address)": "fe9f0707",
			"checkEmployeeList(address)": "412566b5",
			"checkSalaryTimelocks()": "3f64dc16",
			"deleteEmployee(address)": "6e7c4ab1",
			"deleteTimelock(uint256)": "e68de8d3",
			"employerBalances(address)": "2f2909f3",
			"employerEmployeeList(address,uint256)": "7bf86e89",
			"employerEmployees(address,address)": "c30f303d",
			"employerToEmployee(address,address)": "a2ce9027",
			"employers(address)": "0be435bd",
			"fundEmployer()": "a4f85a2a",
			"getAllEmployees()": "e3366fed",
			"getEmployerBalance(address)": "2e9db8d7",
			"modifyEmployeeDetails(address,bool,uint256,uint256,uint256,uint256,uint256,uint256)": "af65d82d",
			"modifyTimelock(uint256,uint256,uint256)": "7bbda1ba",
			"owner()": "8da5cb5b",
			"payAllSalaries()": "39e23871",
			"payIndividualSalary(uint256)": "52c44644",
			"registerEmployer()": "14dee245",
			"salaryTransactions(address,uint256)": "37de568b",
			"setSalaryTimelock(address,uint256)": "1cec677d",
			"setSalaryTimelockForAll(uint256)": "411c0c55",
			"txCounter()": "74f079b8",
			"viewCancelledTimelocks()": "89308f29",
			"viewExecutedTimelocks()": "a5e2952f",
			"viewQueuedTimelocks()": "dc8d3788",
			"withdrawFunds(uint256)": "155dd5ee"
		}
	},
	"abi": [
		{
			"inputs": [],
			"stateMutability": "nonpayable",
			"type": "constructor"
		},
		{
			"anonymous": false,
			"inputs": [
				{
					"indexed": true,
					"internalType": "address",
					"name": "employer",
					"type": "address"
				},
				{
					"indexed": true,
					"internalType": "address",
					"name": "employee",
					"type": "address"
				}
			],
			"name": "EmployeeAdded",
			"type": "event"
		},
		{
			"anonymous": false,
			"inputs": [
				{
					"indexed": true,
					"internalType": "address",
					"name": "employer",
					"type": "address"
				},
				{
					"indexed": false,
					"internalType": "uint256",
					"name": "amount",
					"type": "uint256"
				}
			],
			"name": "EmployerFunded",
			"type": "event"
		},
		{
			"anonymous": false,
			"inputs": [
				{
					"indexed": true,
					"internalType": "address",
					"name": "employer",
					"type": "address"
				},
				{
					"indexed": true,
					"internalType": "address",
					"name": "employee",
					"type": "address"
				},
				{
					"indexed": false,
					"internalType": "uint256",
					"name": "amount",
					"type": "uint256"
				}
			],
			"name": "SalaryPaid",
			"type": "event"
		},
		{
			"anonymous": false,
			"inputs": [
				{
					"indexed": false,
					"internalType": "uint256",
					"name": "txid",
					"type": "uint256"
				}
			],
			"name": "SalaryTimelockDeleted",
			"type": "event"
		},
		{
			"anonymous": false,
			"inputs": [
				{
					"indexed": true,
					"internalType": "address",
					"name": "employer",
					"type": "address"
				},
				{
					"indexed": true,
					"internalType": "address",
					"name": "employee",
					"type": "address"
				},
				{
					"indexed": false,
					"internalType": "uint256",
					"name": "txid",
					"type": "uint256"
				},
				{
					"indexed": false,
					"internalType": "uint256",
					"name": "salary",
					"type": "uint256"
				},
				{
					"indexed": false,
					"internalType": "uint256",
					"name": "releaseTime",
					"type": "uint256"
				}
			],
			"name": "SalaryTimelockModified",
			"type": "event"
		},
		{
			"anonymous": false,
			"inputs": [
				{
					"indexed": true,
					"internalType": "address",
					"name": "employer",
					"type": "address"
				},
				{
					"indexed": true,
					"internalType": "address",
					"name": "employee",
					"type": "address"
				},
				{
					"indexed": false,
					"internalType": "uint256",
					"name": "releaseTime",
					"type": "uint256"
				},
				{
					"indexed": false,
					"internalType": "uint256",
					"name": "txid",
					"type": "uint256"
				}
			],
			"name": "SalaryTimelockSet",
			"type": "event"
		},
		{
			"inputs": [
				{
					"internalType": "address",
					"name": "_employee",
					"type": "address"
				},
				{
					"internalType": "bool",
					"name": "_isPartTime",
					"type": "bool"
				},
				{
					"internalType": "uint256",
					"name": "_hourlyRate",
					"type": "uint256"
				},
				{
					"internalType": "uint256",
					"name": "_workingHours",
					"type": "uint256"
				},
				{
					"internalType": "uint256",
					"name": "_otRate",
					"type": "uint256"
				},
				{
					"internalType": "uint256",
					"name": "_otHours",
					"type": "uint256"
				},
				{
					"internalType": "uint256",
					"name": "_bonus",
					"type": "uint256"
				},
				{
					"internalType": "uint256",
					"name": "_deduction",
					"type": "uint256"
				}
			],
			"name": "addEmployee",
			"outputs": [],
			"stateMutability": "nonpayable",
			"type": "function"
		},
		{
			"inputs": [
				{
					"internalType": "address",
					"name": "_employer",
					"type": "address"
				},
				{
					"internalType": "address",
					"name": "_employee",
					"type": "address"
				}
			],
			"name": "calculateSalary",
			"outputs": [
				{
					"internalType": "uint256",
					"name": "",
					"type": "uint256"
				}
			],
			"stateMutability": "view",
			"type": "function"
		},
		{
			"inputs": [
				{
					"internalType": "address",
					"name": "_employer",
					"type": "address"
				}
			],
			"name": "checkEmployeeList",
			"outputs": [
				{
					"internalType": "address[]",
					"name": "",
					"type": "address[]"
				}
			],
			"stateMutability": "view",
			"type": "function"
		},
		{
			"inputs": [],
			"name": "checkSalaryTimelocks",
			"outputs": [
				{
					"components": [
						{
							"internalType": "uint256",
							"name": "txid",
							"type": "uint256"
						},
						{
							"internalType": "address",
							"name": "employee",
							"type": "address"
						},
						{
							"internalType": "uint256",
							"name": "amount",
							"type": "uint256"
						},
						{
							"internalType": "uint256",
							"name": "releaseTime",
							"type": "uint256"
						},
						{
							"internalType": "enum PayrollDApp.TimelockStatus",
							"name": "status",
							"type": "uint8"
						},
						{
							"internalType": "bool",
							"name": "processed",
							"type": "bool"
						},
						{
							"internalType": "string",
							"name": "description",
							"type": "string"
						}
					],
					"internalType": "struct PayrollDApp.SalaryTransaction[]",
					"name": "",
					"type": "tuple[]"
				}
			],
			"stateMutability": "view",
			"type": "function"
		},
		{
			"inputs": [
				{
					"internalType": "address",
					"name": "_employee",
					"type": "address"
				}
			],
			"name": "deleteEmployee",
			"outputs": [],
			"stateMutability": "nonpayable",
			"type": "function"
		},
		{
			"inputs": [
				{
					"internalType": "uint256",
					"name": "_txid",
					"type": "uint256"
				}
			],
			"name": "deleteTimelock",
			"outputs": [],
			"stateMutability": "nonpayable",
			"type": "function"
		},
		{
			"inputs": [
				{
					"internalType": "address",
					"name": "",
					"type": "address"
				}
			],
			"name": "employerBalances",
			"outputs": [
				{
					"internalType": "uint256",
					"name": "",
					"type": "uint256"
				}
			],
			"stateMutability": "view",
			"type": "function"
		},
		{
			"inputs": [
				{
					"internalType": "address",
					"name": "",
					"type": "address"
				},
				{
					"internalType": "uint256",
					"name": "",
					"type": "uint256"
				}
			],
			"name": "employerEmployeeList",
			"outputs": [
				{
					"internalType": "address",
					"name": "",
					"type": "address"
				}
			],
			"stateMutability": "view",
			"type": "function"
		},
		{
			"inputs": [
				{
					"internalType": "address",
					"name": "",
					"type": "address"
				},
				{
					"internalType": "address",
					"name": "",
					"type": "address"
				}
			],
			"name": "employerEmployees",
			"outputs": [
				{
					"internalType": "bool",
					"name": "isPartTime",
					"type": "bool"
				},
				{
					"internalType": "uint256",
					"name": "hourlyRate",
					"type": "uint256"
				},
				{
					"internalType": "uint256",
					"name": "workingHours",
					"type": "uint256"
				},
				{
					"internalType": "uint256",
					"name": "otRate",
					"type": "uint256"
				},
				{
					"internalType": "uint256",
					"name": "otHours",
					"type": "uint256"
				},
				{
					"internalType": "uint256",
					"name": "bonus",
					"type": "uint256"
				},
				{
					"internalType": "uint256",
					"name": "deduction",
					"type": "uint256"
				}
			],
			"stateMutability": "view",
			"type": "function"
		},
		{
			"inputs": [
				{
					"internalType": "address",
					"name": "",
					"type": "address"
				},
				{
					"internalType": "address",
					"name": "",
					"type": "address"
				}
			],
			"name": "employerToEmployee",
			"outputs": [
				{
					"internalType": "bool",
					"name": "",
					"type": "bool"
				}
			],
			"stateMutability": "view",
			"type": "function"
		},
		{
			"inputs": [
				{
					"internalType": "address",
					"name": "",
					"type": "address"
				}
			],
			"name": "employers",
			"outputs": [
				{
					"internalType": "bool",
					"name": "",
					"type": "bool"
				}
			],
			"stateMutability": "view",
			"type": "function"
		},
		{
			"inputs": [],
			"name": "fundEmployer",
			"outputs": [],
			"stateMutability": "payable",
			"type": "function"
		},
		{
			"inputs": [],
			"name": "getAllEmployees",
			"outputs": [
				{
					"components": [
						{
							"internalType": "bool",
							"name": "isPartTime",
							"type": "bool"
						},
						{
							"internalType": "uint256",
							"name": "hourlyRate",
							"type": "uint256"
						},
						{
							"internalType": "uint256",
							"name": "workingHours",
							"type": "uint256"
						},
						{
							"internalType": "uint256",
							"name": "otRate",
							"type": "uint256"
						},
						{
							"internalType": "uint256",
							"name": "otHours",
							"type": "uint256"
						},
						{
							"internalType": "uint256",
							"name": "bonus",
							"type": "uint256"
						},
						{
							"internalType": "uint256",
							"name": "deduction",
							"type": "uint256"
						}
					],
					"internalType": "struct PayrollDApp.Employee[]",
					"name": "",
					"type": "tuple[]"
				}
			],
			"stateMutability": "view",
			"type": "function"
		},
		{
			"inputs": [
				{
					"internalType": "address",
					"name": "_employer",
					"type": "address"
				}
			],
			"name": "getEmployerBalance",
			"outputs": [
				{
					"internalType": "uint256",
					"name": "",
					"type": "uint256"
				}
			],
			"stateMutability": "view",
			"type": "function"
		},
		{
			"inputs": [
				{
					"internalType": "address",
					"name": "_employee",
					"type": "address"
				},
				{
					"internalType": "bool",
					"name": "_isPartTime",
					"type": "bool"
				},
				{
					"internalType": "uint256",
					"name": "_hourlyRate",
					"type": "uint256"
				},
				{
					"internalType": "uint256",
					"name": "_workingHours",
					"type": "uint256"
				},
				{
					"internalType": "uint256",
					"name": "_otRate",
					"type": "uint256"
				},
				{
					"internalType": "uint256",
					"name": "_otHours",
					"type": "uint256"
				},
				{
					"internalType": "uint256",
					"name": "_bonus",
					"type": "uint256"
				},
				{
					"internalType": "uint256",
					"name": "_deduction",
					"type": "uint256"
				}
			],
			"name": "modifyEmployeeDetails",
			"outputs": [],
			"stateMutability": "nonpayable",
			"type": "function"
		},
		{
			"inputs": [
				{
					"internalType": "uint256",
					"name": "_txid",
					"type": "uint256"
				},
				{
					"internalType": "uint256",
					"name": "_amount",
					"type": "uint256"
				},
				{
					"internalType": "uint256",
					"name": "_releaseTime",
					"type": "uint256"
				}
			],
			"name": "modifyTimelock",
			"outputs": [],
			"stateMutability": "nonpayable",
			"type": "function"
		},
		{
			"inputs": [],
			"name": "owner",
			"outputs": [
				{
					"internalType": "address",
					"name": "",
					"type": "address"
				}
			],
			"stateMutability": "view",
			"type": "function"
		},
		{
			"inputs": [],
			"name": "payAllSalaries",
			"outputs": [],
			"stateMutability": "nonpayable",
			"type": "function"
		},
		{
			"inputs": [
				{
					"internalType": "uint256",
					"name": "_txid",
					"type": "uint256"
				}
			],
			"name": "payIndividualSalary",
			"outputs": [],
			"stateMutability": "nonpayable",
			"type": "function"
		},
		{
			"inputs": [],
			"name": "registerEmployer",
			"outputs": [],
			"stateMutability": "nonpayable",
			"type": "function"
		},
		{
			"inputs": [
				{
					"internalType": "address",
					"name": "",
					"type": "address"
				},
				{
					"internalType": "uint256",
					"name": "",
					"type": "uint256"
				}
			],
			"name": "salaryTransactions",
			"outputs": [
				{
					"internalType": "uint256",
					"name": "txid",
					"type": "uint256"
				},
				{
					"internalType": "address",
					"name": "employee",
					"type": "address"
				},
				{
					"internalType": "uint256",
					"name": "amount",
					"type": "uint256"
				},
				{
					"internalType": "uint256",
					"name": "releaseTime",
					"type": "uint256"
				},
				{
					"internalType": "enum PayrollDApp.TimelockStatus",
					"name": "status",
					"type": "uint8"
				},
				{
					"internalType": "bool",
					"name": "processed",
					"type": "bool"
				},
				{
					"internalType": "string",
					"name": "description",
					"type": "string"
				}
			],
			"stateMutability": "view",
			"type": "function"
		},
		{
			"inputs": [
				{
					"internalType": "address",
					"name": "_employee",
					"type": "address"
				},
				{
					"internalType": "uint256",
					"name": "_releaseTime",
					"type": "uint256"
				}
			],
			"name": "setSalaryTimelock",
			"outputs": [],
			"stateMutability": "nonpayable",
			"type": "function"
		},
		{
			"inputs": [
				{
					"internalType": "uint256",
					"name": "_releaseTime",
					"type": "uint256"
				}
			],
			"name": "setSalaryTimelockForAll",
			"outputs": [],
			"stateMutability": "nonpayable",
			"type": "function"
		},
		{
			"inputs": [],
			"name": "txCounter",
			"outputs": [
				{
					"internalType": "uint256",
					"name": "",
					"type": "uint256"
				}
			],
			"stateMutability": "view",
			"type": "function"
		},
		{
			"inputs": [],
			"name": "viewCancelledTimelocks",
			"outputs": [
				{
					"internalType": "uint256[]",
					"name": "",
					"type": "uint256[]"
				},
				{
					"internalType": "address[]",
					"name": "",
					"type": "address[]"
				},
				{
					"internalType": "uint256[]",
					"name": "",
					"type": "uint256[]"
				},
				{
					"internalType": "uint256[]",
					"name": "",
					"type": "uint256[]"
				}
			],
			"stateMutability": "view",
			"type": "function"
		},
		{
			"inputs": [],
			"name": "viewExecutedTimelocks",
			"outputs": [
				{
					"internalType": "uint256[]",
					"name": "",
					"type": "uint256[]"
				},
				{
					"internalType": "address[]",
					"name": "",
					"type": "address[]"
				},
				{
					"internalType": "uint256[]",
					"name": "",
					"type": "uint256[]"
				},
				{
					"internalType": "uint256[]",
					"name": "",
					"type": "uint256[]"
				}
			],
			"stateMutability": "view",
			"type": "function"
		},
		{
			"inputs": [],
			"name": "viewQueuedTimelocks",
			"outputs": [
				{
					"internalType": "uint256[]",
					"name": "",
					"type": "uint256[]"
				},
				{
					"internalType": "address[]",
					"name": "",
					"type": "address[]"
				},
				{
					"internalType": "uint256[]",
					"name": "",
					"type": "uint256[]"
				},
				{
					"internalType": "uint256[]",
					"name": "",
					"type": "uint256[]"
				}
			],
			"stateMutability": "view",
			"type": "function"
		},
		{
			"inputs": [
				{
					"internalType": "uint256",
					"name": "amount",
					"type": "uint256"
				}
			],
			"name": "withdrawFunds",
			"outputs": [],
			"stateMutability": "nonpayable",
			"type": "function"
		},
		{
			"stateMutability": "payable",
			"type": "receive"
		}
	]
}